{
  "_format": "hh-sol-artifact-1",
  "contractName": "FixedProductMarketMaker",
  "sourceName": "contracts/FixedProductMarketMaker.sol",
  "abi": [
    {
      "inputs": [
        {
          "internalType": "address",
          "name": "_conditionalTokens",
          "type": "address"
        },
        {
          "internalType": "address",
          "name": "_collateralToken",
          "type": "address"
        },
        {
          "internalType": "bytes32",
          "name": "_conditionId",
          "type": "bytes32"
        }
      ],
      "stateMutability": "nonpayable",
      "type": "constructor"
    },
    {
      "anonymous": false,
      "inputs": [
        {
          "indexed": true,
          "internalType": "address",
          "name": "user",
          "type": "address"
        },
        {
          "indexed": false,
          "internalType": "bool",
          "name": "isBuy",
          "type": "bool"
        },
        {
          "indexed": false,
          "internalType": "uint256",
          "name": "investmentAmount",
          "type": "uint256"
        },
        {
          "indexed": false,
          "internalType": "uint256",
          "name": "returnAmount",
          "type": "uint256"
        }
      ],
      "name": "AMMTrade",
      "type": "event"
    },
    {
      "anonymous": false,
      "inputs": [
        {
          "indexed": true,
          "internalType": "address",
          "name": "provider",
          "type": "address"
        },
        {
          "indexed": false,
          "internalType": "uint256",
          "name": "amount",
          "type": "uint256"
        }
      ],
      "name": "LiquidityAdded",
      "type": "event"
    },
    {
      "anonymous": false,
      "inputs": [
        {
          "indexed": true,
          "internalType": "address",
          "name": "provider",
          "type": "address"
        },
        {
          "indexed": false,
          "internalType": "uint256",
          "name": "amount",
          "type": "uint256"
        }
      ],
      "name": "LiquidityRemoved",
      "type": "event"
    },
    {
      "inputs": [],
      "name": "OUTCOME_COUNT",
      "outputs": [
        {
          "internalType": "uint256",
          "name": "",
          "type": "uint256"
        }
      ],
      "stateMutability": "view",
      "type": "function"
    },
    {
      "inputs": [
        {
          "internalType": "uint256",
          "name": "amount",
          "type": "uint256"
        }
      ],
      "name": "addFunding",
      "outputs": [],
      "stateMutability": "nonpayable",
      "type": "function"
    },
    {
      "inputs": [
        {
          "internalType": "uint256",
          "name": "outcomeIndex",
          "type": "uint256"
        },
        {
          "internalType": "uint256",
          "name": "investmentAmount",
          "type": "uint256"
        },
        {
          "internalType": "uint256",
          "name": "minSharesExpected",
          "type": "uint256"
        }
      ],
      "name": "buy",
      "outputs": [],
      "stateMutability": "nonpayable",
      "type": "function"
    },
    {
      "inputs": [],
      "name": "collateralToken",
      "outputs": [
        {
          "internalType": "contract IERC20",
          "name": "",
          "type": "address"
        }
      ],
      "stateMutability": "view",
      "type": "function"
    },
    {
      "inputs": [],
      "name": "conditionId",
      "outputs": [
        {
          "internalType": "bytes32",
          "name": "",
          "type": "bytes32"
        }
      ],
      "stateMutability": "view",
      "type": "function"
    },
    {
      "inputs": [],
      "name": "conditionalTokens",
      "outputs": [
        {
          "internalType": "contract IConditionalTokens",
          "name": "",
          "type": "address"
        }
      ],
      "stateMutability": "view",
      "type": "function"
    },
    {
      "inputs": [
        {
          "internalType": "address",
          "name": "",
          "type": "address"
        }
      ],
      "name": "liquidityProviderShares",
      "outputs": [
        {
          "internalType": "uint256",
          "name": "",
          "type": "uint256"
        }
      ],
      "stateMutability": "view",
      "type": "function"
    },
    {
      "inputs": [
        {
          "internalType": "address",
          "name": "",
          "type": "address"
        },
        {
          "internalType": "address",
          "name": "",
          "type": "address"
        },
        {
          "internalType": "uint256[]",
          "name": "",
          "type": "uint256[]"
        },
        {
          "internalType": "uint256[]",
          "name": "",
          "type": "uint256[]"
        },
        {
          "internalType": "bytes",
          "name": "",
          "type": "bytes"
        }
      ],
      "name": "onERC1155BatchReceived",
      "outputs": [
        {
          "internalType": "bytes4",
          "name": "",
          "type": "bytes4"
        }
      ],
      "stateMutability": "nonpayable",
      "type": "function"
    },
    {
      "inputs": [
        {
          "internalType": "address",
          "name": "",
          "type": "address"
        },
        {
          "internalType": "address",
          "name": "",
          "type": "address"
        },
        {
          "internalType": "uint256",
          "name": "",
          "type": "uint256"
        },
        {
          "internalType": "uint256",
          "name": "",
          "type": "uint256"
        },
        {
          "internalType": "bytes",
          "name": "",
          "type": "bytes"
        }
      ],
      "name": "onERC1155Received",
      "outputs": [
        {
          "internalType": "bytes4",
          "name": "",
          "type": "bytes4"
        }
      ],
      "stateMutability": "nonpayable",
      "type": "function"
    },
    {
      "inputs": [
        {
          "internalType": "uint256",
          "name": "",
          "type": "uint256"
        }
      ],
      "name": "poolBalances",
      "outputs": [
        {
          "internalType": "uint256",
          "name": "",
          "type": "uint256"
        }
      ],
      "stateMutability": "view",
      "type": "function"
    },
    {
      "inputs": [
        {
          "internalType": "uint256",
          "name": "shareAmount",
          "type": "uint256"
        }
      ],
      "name": "removeFunding",
      "outputs": [],
      "stateMutability": "nonpayable",
      "type": "function"
    },
    {
      "inputs": [
        {
          "internalType": "uint256",
          "name": "outcomeIndex",
          "type": "uint256"
        },
        {
          "internalType": "uint256",
          "name": "returnAmount",
          "type": "uint256"
        },
        {
          "internalType": "uint256",
          "name": "minCollateralOut",
          "type": "uint256"
        }
      ],
      "name": "sell",
      "outputs": [],
      "stateMutability": "nonpayable",
      "type": "function"
    },
    {
      "inputs": [
        {
          "internalType": "bytes4",
          "name": "interfaceId",
          "type": "bytes4"
        }
      ],
      "name": "supportsInterface",
      "outputs": [
        {
          "internalType": "bool",
          "name": "",
          "type": "bool"
        }
      ],
      "stateMutability": "view",
      "type": "function"
    },
    {
      "inputs": [],
      "name": "totalLiquidityShares",
      "outputs": [
        {
          "internalType": "uint256",
          "name": "",
          "type": "uint256"
        }
      ],
      "stateMutability": "view",
      "type": "function"
    }
  ],
  "bytecode": "0x608060405234801561001057600080fd5b506040516125e93803806125e98339818101604052810190610032919061015b565b826000806101000a81548173ffffffffffffffffffffffffffffffffffffffff021916908373ffffffffffffffffffffffffffffffffffffffff16021790555081600160006101000a81548173ffffffffffffffffffffffffffffffffffffffff021916908373ffffffffffffffffffffffffffffffffffffffff160217905550806002819055505050506101ae565b600080fd5b600073ffffffffffffffffffffffffffffffffffffffff82169050919050565b60006100f2826100c7565b9050919050565b610102816100e7565b811461010d57600080fd5b50565b60008151905061011f816100f9565b92915050565b6000819050919050565b61013881610125565b811461014357600080fd5b50565b6000815190506101558161012f565b92915050565b600080600060608486031215610174576101736100c2565b5b600061018286828701610110565b935050602061019386828701610110565b92505060406101a486828701610146565b9150509250925092565b61242c806101bd6000396000f3fe608060405234801561001057600080fd5b50600436106100ea5760003560e01c8063b2016bd41161008c578063d3c9727c11610066578063d3c9727c1461025f578063d90cdf971461027b578063e03031a614610299578063f23a6e61146102b5576100ea565b8063b2016bd4146101e1578063bc197c81146101ff578063be0545431461022f576100ea565b80635608d0d3116100c85780635608d0d3146101595780635bd9e299146101895780635d5d4613146101a757806387cd5b20146101c3576100ea565b806301ffc9a7146100ef5780632ddc7de71461011f57806340993b261461013d575b600080fd5b6101096004803603810190610104919061156c565b6102e5565b60405161011691906115b4565b60405180910390f35b61012761035f565b60405161013491906115e8565b60405180910390f35b61015760048036038101906101529190611639565b610365565b005b610173600480360381019061016e91906116ea565b61080f565b6040516101809190611726565b60405180910390f35b610191610827565b60405161019e91906117a0565b60405180910390f35b6101c160048036038101906101bc91906117bb565b61084b565b005b6101cb610cf8565b6040516101d89190611726565b60405180910390f35b6101e9610cfe565b6040516101f69190611809565b60405180910390f35b61021960048036038101906102149190611a32565b610d24565b6040516102269190611b10565b60405180910390f35b610249600480360381019061024491906117bb565b610d39565b6040516102569190611726565b60405180910390f35b61027960048036038101906102749190611639565b610d54565b005b610283610d8f565b6040516102909190611726565b60405180910390f35b6102b360048036038101906102ae91906117bb565b610d94565b005b6102cf60048036038101906102ca9190611b2b565b611265565b6040516102dc9190611b10565b60405180910390f35b60007f4e2312e0000000000000000000000000000000000000000000000000000000007bffffffffffffffffffffffffffffffffffffffffffffffffffffffff1916827bffffffffffffffffffffffffffffffffffffffffffffffffffffffff1916148061035857506103578261127a565b5b9050919050565b60025481565b600283106103a8576040517f08c379a000000000000000000000000000000000000000000000000000000000815260040161039f90611c1f565b60405180910390fd5b600160009054906101000a900473ffffffffffffffffffffffffffffffffffffffff1673ffffffffffffffffffffffffffffffffffffffff166323b872dd3330856040518463ffffffff1660e01b815260040161040793929190611c4e565b6020604051808303816000875af1158015610426573d6000803e3d6000fd5b505050506040513d601f19601f8201168201806040525081019061044a9190611cb1565b610489576040517f08c379a000000000000000000000000000000000000000000000000000000000815260040161048090611d2a565b60405180910390fd5b600160009054906101000a900473ffffffffffffffffffffffffffffffffffffffff1673ffffffffffffffffffffffffffffffffffffffff1663095ea7b360008054906101000a900473ffffffffffffffffffffffffffffffffffffffff16846040518363ffffffff1660e01b8152600401610506929190611d4a565b6020604051808303816000875af1158015610525573d6000803e3d6000fd5b505050506040513d601f19601f820116820180604052508101906105499190611cb1565b506000600267ffffffffffffffff8111156105675761056661183a565b5b6040519080825280602002602001820160405280156105955781602001602082028036833780820191505090505b5090506001816000815181106105ae576105ad611d73565b5b6020026020010181815250506002816001815181106105d0576105cf611d73565b5b60200260200101818152505060008054906101000a900473ffffffffffffffffffffffffffffffffffffffff1673ffffffffffffffffffffffffffffffffffffffff166372ce4275600160009054906101000a900473ffffffffffffffffffffffffffffffffffffffff166000801b60025485886040518663ffffffff1660e01b8152600401610664959493929190611e60565b600060405180830381600087803b15801561067e57600080fd5b505af1158015610692573d6000803e3d6000fd5b5050505060008360038660016106a89190611ee9565b600281106106b9576106b8611d73565b5b01546106c59190611f1d565b84600387600281106106da576106d9611d73565b5b01546106e69190611f51565b6106f09190611fc2565b9050600081856107009190611f1d565b905083811015610745576040517f08c379a000000000000000000000000000000000000000000000000000000000815260040161073c9061203f565b60405180910390fd5b8460038760016107559190611ee9565b6002811061076657610765611d73565b5b0160008282546107769190611f1d565b92505081905550816003876002811061079257610791611d73565b5b0160008282546107a29190611ee9565b925050819055506107b43387836112e4565b3373ffffffffffffffffffffffffffffffffffffffff167fa4da03bfe9cfa35ce7158c6071762e8d7917d0fd959e408671c7e530771e8761600187846040516107ff9392919061205f565b60405180910390a2505050505050565b60066020528060005260406000206000915090505481565b60008054906101000a900473ffffffffffffffffffffffffffffffffffffffff1681565b6000811161088e576040517f08c379a0000000000000000000000000000000000000000000000000000000008152600401610885906120e2565b60405180910390fd5b600160009054906101000a900473ffffffffffffffffffffffffffffffffffffffff1673ffffffffffffffffffffffffffffffffffffffff166323b872dd3330846040518463ffffffff1660e01b81526004016108ed93929190611c4e565b6020604051808303816000875af115801561090c573d6000803e3d6000fd5b505050506040513d601f19601f820116820180604052508101906109309190611cb1565b61096f576040517f08c379a000000000000000000000000000000000000000000000000000000000815260040161096690611d2a565b60405180910390fd5b600160009054906101000a900473ffffffffffffffffffffffffffffffffffffffff1673ffffffffffffffffffffffffffffffffffffffff1663095ea7b360008054906101000a900473ffffffffffffffffffffffffffffffffffffffff16836040518363ffffffff1660e01b81526004016109ec929190611d4a565b6020604051808303816000875af1158015610a0b573d6000803e3d6000fd5b505050506040513d601f19601f82011682018060405250810190610a2f9190611cb1565b506000600267ffffffffffffffff811115610a4d57610a4c61183a565b5b604051908082528060200260200182016040528015610a7b5781602001602082028036833780820191505090505b509050600181600081518110610a9457610a93611d73565b5b602002602001018181525050600281600181518110610ab657610ab5611d73565b5b60200260200101818152505060008054906101000a900473ffffffffffffffffffffffffffffffffffffffff1673ffffffffffffffffffffffffffffffffffffffff166372ce4275600160009054906101000a900473ffffffffffffffffffffffffffffffffffffffff166000801b60025485876040518663ffffffff1660e01b8152600401610b4a959493929190611e60565b600060405180830381600087803b158015610b6457600080fd5b505af1158015610b78573d6000803e3d6000fd5b50505050816003600060028110610b9257610b91611d73565b5b016000828254610ba29190611f1d565b92505081905550816003600160028110610bbf57610bbe611d73565b5b016000828254610bcf9190611f1d565b92505081905550600060055403610c30578160058190555081600660003373ffffffffffffffffffffffffffffffffffffffff1673ffffffffffffffffffffffffffffffffffffffff16815260200190815260200160002081905550610ca6565b60008290508060056000828254610c479190611f1d565b9250508190555080600660003373ffffffffffffffffffffffffffffffffffffffff1673ffffffffffffffffffffffffffffffffffffffff1681526020019081526020016000206000828254610c9d9190611f1d565b92505081905550505b3373ffffffffffffffffffffffffffffffffffffffff167fc17cea59c2955cb181b03393209566960365771dbba9dc3d510180e7cb31208883604051610cec9190611726565b60405180910390a25050565b60055481565b600160009054906101000a900473ffffffffffffffffffffffffffffffffffffffff1681565b600063bc197c8160e01b905095945050505050565b60038160028110610d4957600080fd5b016000915090505481565b6040517f08c379a0000000000000000000000000000000000000000000000000000000008152600401610d8690612174565b60405180910390fd5b600281565b60008111610dd7576040517f08c379a0000000000000000000000000000000000000000000000000000000008152600401610dce906120e2565b60405180910390fd5b80600660003373ffffffffffffffffffffffffffffffffffffffff1673ffffffffffffffffffffffffffffffffffffffff168152602001908152602001600020541015610e59576040517f08c379a0000000000000000000000000000000000000000000000000000000008152600401610e50906121e0565b60405180910390fd5b6000600554826003600060028110610e7457610e73611d73565b5b0154610e809190611f51565b610e8a9190611fc2565b90506000600554836003600160028110610ea757610ea6611d73565b5b0154610eb39190611f51565b610ebd9190611fc2565b9050816003600060028110610ed557610ed4611d73565b5b016000828254610ee59190611ee9565b92505081905550806003600160028110610f0257610f01611d73565b5b016000828254610f129190611ee9565b925050819055508260056000828254610f2b9190611ee9565b9250508190555082600660003373ffffffffffffffffffffffffffffffffffffffff1673ffffffffffffffffffffffffffffffffffffffff1681526020019081526020016000206000828254610f819190611ee9565b925050819055506000818310610f975781610f99565b825b905060008111156111d1576000600267ffffffffffffffff811115610fc157610fc061183a565b5b604051908082528060200260200182016040528015610fef5781602001602082028036833780820191505090505b50905060018160008151811061100857611007611d73565b5b60200260200101818152505060028160018151811061102a57611029611d73565b5b60200260200101818152505060008054906101000a900473ffffffffffffffffffffffffffffffffffffffff1673ffffffffffffffffffffffffffffffffffffffff16639e7212ad600160009054906101000a900473ffffffffffffffffffffffffffffffffffffffff166000801b60025485876040518663ffffffff1660e01b81526004016110be959493929190611e60565b600060405180830381600087803b1580156110d857600080fd5b505af11580156110ec573d6000803e3d6000fd5b50505050600160009054906101000a900473ffffffffffffffffffffffffffffffffffffffff1673ffffffffffffffffffffffffffffffffffffffff1663a9059cbb33846040518363ffffffff1660e01b815260040161114d929190611d4a565b6020604051808303816000875af115801561116c573d6000803e3d6000fd5b505050506040513d601f19601f820116820180604052508101906111909190611cb1565b6111cf576040517f08c379a00000000000000000000000000000000000000000000000000000000081526004016111c69061224c565b60405180910390fd5b505b808311156111f1576111f033600083866111eb9190611ee9565b6112e4565b5b8082111561121157611210336001838561120b9190611ee9565b6112e4565b5b3373ffffffffffffffffffffffffffffffffffffffff167fc2c3f06e49b9f15e7b4af9055e183b0d73362e033ad82a07dec9bf9840171719856040516112579190611726565b60405180910390a250505050565b600063f23a6e6160e01b905095945050505050565b60007f01ffc9a7000000000000000000000000000000000000000000000000000000007bffffffffffffffffffffffffffffffffffffffffffffffffffffffff1916827bffffffffffffffffffffffffffffffffffffffffffffffffffffffff1916149050919050565b60008083146112f45760026112f7565b60015b60ff16905060008060009054906101000a900473ffffffffffffffffffffffffffffffffffffffff1673ffffffffffffffffffffffffffffffffffffffff1663856296f76000801b600254856040518463ffffffff1660e01b81526004016113619392919061226c565b602060405180830381865afa15801561137e573d6000803e3d6000fd5b505050506040513d601f19601f820116820180604052508101906113a291906122cf565b905060008060009054906101000a900473ffffffffffffffffffffffffffffffffffffffff1673ffffffffffffffffffffffffffffffffffffffff166339dd7530600160009054906101000a900473ffffffffffffffffffffffffffffffffffffffff16846040518363ffffffff1660e01b81526004016114249291906122fc565b602060405180830381865afa158015611441573d6000803e3d6000fd5b505050506040513d601f19601f82011682018060405250810190611465919061233a565b905060008054906101000a900473ffffffffffffffffffffffffffffffffffffffff1673ffffffffffffffffffffffffffffffffffffffff1663f242432a308884886040518563ffffffff1660e01b81526004016114c6949392919061239e565b600060405180830381600087803b1580156114e057600080fd5b505af11580156114f4573d6000803e3d6000fd5b50505050505050505050565b6000604051905090565b600080fd5b600080fd5b60007fffffffff0000000000000000000000000000000000000000000000000000000082169050919050565b61154981611514565b811461155457600080fd5b50565b60008135905061156681611540565b92915050565b6000602082840312156115825761158161150a565b5b600061159084828501611557565b91505092915050565b60008115159050919050565b6115ae81611599565b82525050565b60006020820190506115c960008301846115a5565b92915050565b6000819050919050565b6115e2816115cf565b82525050565b60006020820190506115fd60008301846115d9565b92915050565b6000819050919050565b61161681611603565b811461162157600080fd5b50565b6000813590506116338161160d565b92915050565b6000806000606084860312156116525761165161150a565b5b600061166086828701611624565b935050602061167186828701611624565b925050604061168286828701611624565b9150509250925092565b600073ffffffffffffffffffffffffffffffffffffffff82169050919050565b60006116b78261168c565b9050919050565b6116c7816116ac565b81146116d257600080fd5b50565b6000813590506116e4816116be565b92915050565b600060208284031215611700576116ff61150a565b5b600061170e848285016116d5565b91505092915050565b61172081611603565b82525050565b600060208201905061173b6000830184611717565b92915050565b6000819050919050565b600061176661176161175c8461168c565b611741565b61168c565b9050919050565b60006117788261174b565b9050919050565b600061178a8261176d565b9050919050565b61179a8161177f565b82525050565b60006020820190506117b56000830184611791565b92915050565b6000602082840312156117d1576117d061150a565b5b60006117df84828501611624565b91505092915050565b60006117f38261176d565b9050919050565b611803816117e8565b82525050565b600060208201905061181e60008301846117fa565b92915050565b600080fd5b6000601f19601f8301169050919050565b7f4e487b7100000000000000000000000000000000000000000000000000000000600052604160045260246000fd5b61187282611829565b810181811067ffffffffffffffff821117156118915761189061183a565b5b80604052505050565b60006118a4611500565b90506118b08282611869565b919050565b600067ffffffffffffffff8211156118d0576118cf61183a565b5b602082029050602081019050919050565b600080fd5b60006118f96118f4846118b5565b61189a565b9050808382526020820190506020840283018581111561191c5761191b6118e1565b5b835b8181101561194557806119318882611624565b84526020840193505060208101905061191e565b5050509392505050565b600082601f83011261196457611963611824565b5b81356119748482602086016118e6565b91505092915050565b600080fd5b600067ffffffffffffffff82111561199d5761199c61183a565b5b6119a682611829565b9050602081019050919050565b82818337600083830152505050565b60006119d56119d084611982565b61189a565b9050828152602081018484840111156119f1576119f061197d565b5b6119fc8482856119b3565b509392505050565b600082601f830112611a1957611a18611824565b5b8135611a298482602086016119c2565b91505092915050565b600080600080600060a08688031215611a4e57611a4d61150a565b5b6000611a5c888289016116d5565b9550506020611a6d888289016116d5565b945050604086013567ffffffffffffffff811115611a8e57611a8d61150f565b5b611a9a8882890161194f565b935050606086013567ffffffffffffffff811115611abb57611aba61150f565b5b611ac78882890161194f565b925050608086013567ffffffffffffffff811115611ae857611ae761150f565b5b611af488828901611a04565b9150509295509295909350565b611b0a81611514565b82525050565b6000602082019050611b256000830184611b01565b92915050565b600080600080600060a08688031215611b4757611b4661150a565b5b6000611b55888289016116d5565b9550506020611b66888289016116d5565b9450506040611b7788828901611624565b9350506060611b8888828901611624565b925050608086013567ffffffffffffffff811115611ba957611ba861150f565b5b611bb588828901611a04565b9150509295509295909350565b600082825260208201905092915050565b7f496e76616c6964206f7574636f6d6520696e6465780000000000000000000000600082015250565b6000611c09601583611bc2565b9150611c1482611bd3565b602082019050919050565b60006020820190508181036000830152611c3881611bfc565b9050919050565b611c48816116ac565b82525050565b6000606082019050611c636000830186611c3f565b611c706020830185611c3f565b611c7d6040830184611717565b949350505050565b611c8e81611599565b8114611c9957600080fd5b50565b600081519050611cab81611c85565b92915050565b600060208284031215611cc757611cc661150a565b5b6000611cd584828501611c9c565b91505092915050565b7f5472616e73666572206661696c65640000000000000000000000000000000000600082015250565b6000611d14600f83611bc2565b9150611d1f82611cde565b602082019050919050565b60006020820190508181036000830152611d4381611d07565b9050919050565b6000604082019050611d5f6000830185611c3f565b611d6c6020830184611717565b9392505050565b7f4e487b7100000000000000000000000000000000000000000000000000000000600052603260045260246000fd5b600081519050919050565b600082825260208201905092915050565b6000819050602082019050919050565b611dd781611603565b82525050565b6000611de98383611dce565b60208301905092915050565b6000602082019050919050565b6000611e0d82611da2565b611e178185611dad565b9350611e2283611dbe565b8060005b83811015611e53578151611e3a8882611ddd565b9750611e4583611df5565b925050600181019050611e26565b5085935050505092915050565b600060a082019050611e756000830188611c3f565b611e8260208301876115d9565b611e8f60408301866115d9565b8181036060830152611ea18185611e02565b9050611eb06080830184611717565b9695505050505050565b7f4e487b7100000000000000000000000000000000000000000000000000000000600052601160045260246000fd5b6000611ef482611603565b9150611eff83611603565b9250828203905081811115611f1757611f16611eba565b5b92915050565b6000611f2882611603565b9150611f3383611603565b9250828201905080821115611f4b57611f4a611eba565b5b92915050565b6000611f5c82611603565b9150611f6783611603565b9250828202611f7581611603565b91508282048414831517611f8c57611f8b611eba565b5b5092915050565b7f4e487b7100000000000000000000000000000000000000000000000000000000600052601260045260246000fd5b6000611fcd82611603565b9150611fd883611603565b925082611fe857611fe7611f93565b5b828204905092915050565b7f536c697070616765206c696d6974207265616368656400000000000000000000600082015250565b6000612029601683611bc2565b915061203482611ff3565b602082019050919050565b600060208201905081810360008301526120588161201c565b9050919050565b600060608201905061207460008301866115a5565b6120816020830185611717565b61208e6040830184611717565b949350505050565b7f416d6f756e74206d757374206265203e20300000000000000000000000000000600082015250565b60006120cc601283611bc2565b91506120d782612096565b602082019050919050565b600060208201905081810360008301526120fb816120bf565b9050919050565b7f53656c6c206e6f7420696d706c656d656e74656420696e204d565020416c706860008201527f6100000000000000000000000000000000000000000000000000000000000000602082015250565b600061215e602183611bc2565b915061216982612102565b604082019050919050565b6000602082019050818103600083015261218d81612151565b9050919050565b7f436865636b696e6720696e73756666696369656e742073686172657300000000600082015250565b60006121ca601c83611bc2565b91506121d582612194565b602082019050919050565b600060208201905081810360008301526121f9816121bd565b9050919050565b7f5472616e7366657220636f6c6c61746572616c206661696c6564000000000000600082015250565b6000612236601a83611bc2565b915061224182612200565b602082019050919050565b6000602082019050818103600083015261226581612229565b9050919050565b600060608201905061228160008301866115d9565b61228e60208301856115d9565b61229b6040830184611717565b949350505050565b6122ac816115cf565b81146122b757600080fd5b50565b6000815190506122c9816122a3565b92915050565b6000602082840312156122e5576122e461150a565b5b60006122f3848285016122ba565b91505092915050565b60006040820190506123116000830185611c3f565b61231e60208301846115d9565b9392505050565b6000815190506123348161160d565b92915050565b6000602082840312156123505761234f61150a565b5b600061235e84828501612325565b91505092915050565b600082825260208201905092915050565b50565b6000612388600083612367565b915061239382612378565b600082019050919050565b600060a0820190506123b36000830187611c3f565b6123c06020830186611c3f565b6123cd6040830185611717565b6123da6060830184611717565b81810360808301526123eb8161237b565b90509594505050505056fea2646970667358221220ff13c50dc40438d89f953400acda33c85fbd340bb4c410b3ad3238a958bd591864736f6c634300081c0033",
  "linkReferences": {},
  "deployedLinkReferences": {}
}