{"contracts/ConditionalTokens.sol":{"ConditionalTokens":{"abi":[{"inputs":[],"stateMutability":"nonpayable","type":"constructor"},{"inputs":[{"internalType":"address","name":"sender","type":"address"},{"internalType":"uint256","name":"balance","type":"uint256"},{"internalType":"uint256","name":"needed","type":"uint256"},{"internalType":"uint256","name":"tokenId","type":"uint256"}],"name":"ERC1155InsufficientBalance","type":"error"},{"inputs":[{"internalType":"address","name":"approver","type":"address"}],"name":"ERC1155InvalidApprover","type":"error"},{"inputs":[{"internalType":"uint256","name":"idsLength","type":"uint256"},{"internalType":"uint256","name":"valuesLength","type":"uint256"}],"name":"ERC1155InvalidArrayLength","type":"error"},{"inputs":[{"internalType":"address","name":"operator","type":"address"}],"name":"ERC1155InvalidOperator","type":"error"},{"inputs":[{"internalType":"address","name":"receiver","type":"address"}],"name":"ERC1155InvalidReceiver","type":"error"},{"inputs":[{"internalType":"address","name":"sender","type":"address"}],"name":"ERC1155InvalidSender","type":"error"},{"inputs":[{"internalType":"address","name":"operator","type":"address"},{"internalType":"address","name":"owner","type":"address"}],"name":"ERC1155MissingApprovalForAll","type":"error"},{"inputs":[{"internalType":"address","name":"owner","type":"address"}],"name":"OwnableInvalidOwner","type":"error"},{"inputs":[{"internalType":"address","name":"account","type":"address"}],"name":"OwnableUnauthorizedAccount","type":"error"},{"anonymous":false,"inputs":[{"indexed":true,"internalType":"address","name":"account","type":"address"},{"indexed":true,"internalType":"address","name":"operator","type":"address"},{"indexed":false,"internalType":"bool","name":"approved","type":"bool"}],"name":"ApprovalForAll","type":"event"},{"anonymous":false,"inputs":[{"indexed":true,"internalType":"bytes32","name":"conditionId","type":"bytes32"},{"indexed":true,"internalType":"address","name":"oracle","type":"address"},{"indexed":true,"internalType":"bytes32","name":"questionId","type":"bytes32"},{"indexed":false,"internalType":"uint256","name":"outcomeSlotCount","type":"uint256"}],"name":"ConditionPreparation","type":"event"},{"anonymous":false,"inputs":[{"indexed":true,"internalType":"address","name":"previousOwner","type":"address"},{"indexed":true,"internalType":"address","name":"newOwner","type":"address"}],"name":"OwnershipTransferred","type":"event"},{"anonymous":false,"inputs":[{"indexed":true,"internalType":"address","name":"redeemer","type":"address"},{"indexed":true,"internalType":"address","name":"collateralToken","type":"address"},{"indexed":true,"internalType":"bytes32","name":"parentCollectionId","type":"bytes32"},{"indexed":false,"internalType":"bytes32","name":"conditionId","type":"bytes32"},{"indexed":false,"internalType":"uint256[]","name":"indexSets","type":"uint256[]"},{"indexed":false,"internalType":"uint256","name":"payout","type":"uint256"}],"name":"PayoutRedemption","type":"event"},{"anonymous":false,"inputs":[{"indexed":true,"internalType":"address","name":"stakeholder","type":"address"},{"indexed":false,"internalType":"address","name":"collateralToken","type":"address"},{"indexed":true,"internalType":"bytes32","name":"parentCollectionId","type":"bytes32"},{"indexed":true,"internalType":"bytes32","name":"conditionId","type":"bytes32"},{"indexed":false,"internalType":"uint256[]","name":"partition","type":"uint256[]"},{"indexed":false,"internalType":"uint256","name":"amount","type":"uint256"}],"name":"PositionSplit","type":"event"},{"anonymous":false,"inputs":[{"indexed":true,"internalType":"address","name":"stakeholder","type":"address"},{"indexed":false,"internalType":"address","name":"collateralToken","type":"address"},{"indexed":true,"internalType":"bytes32","name":"parentCollectionId","type":"bytes32"},{"indexed":true,"internalType":"bytes32","name":"conditionId","type":"bytes32"},{"indexed":false,"internalType":"uint256[]","name":"partition","type":"uint256[]"},{"indexed":false,"internalType":"uint256","name":"amount","type":"uint256"}],"name":"PositionsMerge","type":"event"},{"anonymous":false,"inputs":[{"indexed":true,"internalType":"address","name":"operator","type":"address"},{"indexed":true,"internalType":"address","name":"from","type":"address"},{"indexed":true,"internalType":"address","name":"to","type":"address"},{"indexed":false,"internalType":"uint256[]","name":"ids","type":"uint256[]"},{"indexed":false,"internalType":"uint256[]","name":"values","type":"uint256[]"}],"name":"TransferBatch","type":"event"},{"anonymous":false,"inputs":[{"indexed":true,"internalType":"address","name":"operator","type":"address"},{"indexed":true,"internalType":"address","name":"from","type":"address"},{"indexed":true,"internalType":"address","name":"to","type":"address"},{"indexed":false,"internalType":"uint256","name":"id","type":"uint256"},{"indexed":false,"internalType":"uint256","name":"value","type":"uint256"}],"name":"TransferSingle","type":"event"},{"anonymous":false,"inputs":[{"indexed":false,"internalType":"string","name":"value","type":"string"},{"indexed":true,"internalType":"uint256","name":"id","type":"uint256"}],"name":"URI","type":"event"},{"inputs":[{"internalType":"address","name":"account","type":"address"},{"internalType":"uint256","name":"id","type":"uint256"}],"name":"balanceOf","outputs":[{"internalType":"uint256","name":"","type":"uint256"}],"stateMutability":"view","type":"function"},{"inputs":[{"internalType":"address[]","name":"accounts","type":"address[]"},{"internalType":"uint256[]","name":"ids","type":"uint256[]"}],"name":"balanceOfBatch","outputs":[{"internalType":"uint256[]","name":"","type":"uint256[]"}],"stateMutability":"view","type":"function"},{"inputs":[{"internalType":"bytes32","name":"parentCollectionId","type":"bytes32"},{"internalType":"bytes32","name":"conditionId","type":"bytes32"},{"internalType":"uint256","name":"indexSet","type":"uint256"}],"name":"getCollectionId","outputs":[{"internalType":"bytes32","name":"","type":"bytes32"}],"stateMutability":"pure","type":"function"},{"inputs":[{"internalType":"address","name":"oracle","type":"address"},{"internalType":"bytes32","name":"questionId","type":"bytes32"},{"internalType":"uint256","name":"outcomeSlotCount","type":"uint256"}],"name":"getConditionId","outputs":[{"internalType":"bytes32","name":"","type":"bytes32"}],"stateMutability":"pure","type":"function"},{"inputs":[{"internalType":"address","name":"collateralToken","type":"address"},{"internalType":"bytes32","name":"collectionId","type":"bytes32"}],"name":"getPositionId","outputs":[{"internalType":"uint256","name":"","type":"uint256"}],"stateMutability":"pure","type":"function"},{"inputs":[{"internalType":"address","name":"account","type":"address"},{"internalType":"address","name":"operator","type":"address"}],"name":"isApprovedForAll","outputs":[{"internalType":"bool","name":"","type":"bool"}],"stateMutability":"view","type":"function"},{"inputs":[{"internalType":"address","name":"collateralToken","type":"address"},{"internalType":"bytes32","name":"parentCollectionId","type":"bytes32"},{"internalType":"bytes32","name":"conditionId","type":"bytes32"},{"internalType":"uint256[]","name":"partition","type":"uint256[]"},{"internalType":"uint256","name":"amount","type":"uint256"}],"name":"mergePositions","outputs":[],"stateMutability":"nonpayable","type":"function"},{"inputs":[],"name":"owner","outputs":[{"internalType":"address","name":"","type":"address"}],"stateMutability":"view","type":"function"},{"inputs":[{"internalType":"bytes32","name":"","type":"bytes32"},{"internalType":"uint256","name":"","type":"uint256"}],"name":"payoutNumerators","outputs":[{"internalType":"uint256","name":"","type":"uint256"}],"stateMutability":"view","type":"function"},{"inputs":[{"internalType":"address","name":"oracle","type":"address"},{"internalType":"bytes32","name":"questionId","type":"bytes32"},{"internalType":"uint256","name":"outcomeSlotCount","type":"uint256"}],"name":"prepareCondition","outputs":[],"stateMutability":"nonpayable","type":"function"},{"inputs":[{"internalType":"address","name":"collateralToken","type":"address"},{"internalType":"bytes32","name":"parentCollectionId","type":"bytes32"},{"internalType":"bytes32","name":"conditionId","type":"bytes32"},{"internalType":"uint256[]","name":"indexSets","type":"uint256[]"}],"name":"redeemPositions","outputs":[],"stateMutability":"nonpayable","type":"function"},{"inputs":[],"name":"renounceOwnership","outputs":[],"stateMutability":"nonpayable","type":"function"},{"inputs":[{"internalType":"bytes32","name":"questionId","type":"bytes32"},{"internalType":"uint256[]","name":"payouts","type":"uint256[]"}],"name":"reportPayouts","outputs":[],"stateMutability":"nonpayable","type":"function"},{"inputs":[{"internalType":"bytes32","name":"conditionId","type":"bytes32"},{"internalType":"uint256[]","name":"payouts","type":"uint256[]"}],"name":"resolveCondition","outputs":[],"stateMutability":"nonpayable","type":"function"},{"inputs":[{"internalType":"address","name":"from","type":"address"},{"internalType":"address","name":"to","type":"address"},{"internalType":"uint256[]","name":"ids","type":"uint256[]"},{"internalType":"uint256[]","name":"values","type":"uint256[]"},{"internalType":"bytes","name":"data","type":"bytes"}],"name":"safeBatchTransferFrom","outputs":[],"stateMutability":"nonpayable","type":"function"},{"inputs":[{"internalType":"address","name":"from","type":"address"},{"internalType":"address","name":"to","type":"address"},{"internalType":"uint256","name":"id","type":"uint256"},{"internalType":"uint256","name":"value","type":"uint256"},{"internalType":"bytes","name":"data","type":"bytes"}],"name":"safeTransferFrom","outputs":[],"stateMutability":"nonpayable","type":"function"},{"inputs":[{"internalType":"address","name":"operator","type":"address"},{"internalType":"bool","name":"approved","type":"bool"}],"name":"setApprovalForAll","outputs":[],"stateMutability":"nonpayable","type":"function"},{"inputs":[{"internalType":"address","name":"collateralToken","type":"address"},{"internalType":"bytes32","name":"parentCollectionId","type":"bytes32"},{"internalType":"bytes32","name":"conditionId","type":"bytes32"},{"internalType":"uint256[]","name":"partition","type":"uint256[]"},{"internalType":"uint256","name":"amount","type":"uint256"}],"name":"splitPosition","outputs":[],"stateMutability":"nonpayable","type":"function"},{"inputs":[{"internalType":"bytes4","name":"interfaceId","type":"bytes4"}],"name":"supportsInterface","outputs":[{"internalType":"bool","name":"","type":"bool"}],"stateMutability":"view","type":"function"},{"inputs":[{"internalType":"address","name":"newOwner","type":"address"}],"name":"transferOwnership","outputs":[],"stateMutability":"nonpayable","type":"function"},{"inputs":[{"internalType":"uint256","name":"","type":"uint256"}],"name":"uri","outputs":[{"internalType":"string","name":"","type":"string"}],"stateMutability":"view","type":"function"}],"evm":{"bytecode":{"linkReferences":{},"object":"608060405234801561001057600080fd5b503360405180602001604052806000815250610031816100b960201b60201c565b50600073ffffffffffffffffffffffffffffffffffffffff168173ffffffffffffffffffffffffffffffffffffffff16036100a45760006040517f1e4fbdf700000000000000000000000000000000000000000000000000000000815260040161009b91906101d3565b60405180910390fd5b6100b3816100cc60201b60201c565b50610510565b80600290816100c8919061043e565b5050565b6000600360009054906101000a900473ffffffffffffffffffffffffffffffffffffffff16905081600360006101000a81548173ffffffffffffffffffffffffffffffffffffffff021916908373ffffffffffffffffffffffffffffffffffffffff1602179055508173ffffffffffffffffffffffffffffffffffffffff168173ffffffffffffffffffffffffffffffffffffffff167f8be0079c531659141344cd1fd0a4f28419497f9722a3daafe3b4186f6b6457e060405160405180910390a35050565b600073ffffffffffffffffffffffffffffffffffffffff82169050919050565b60006101bd82610192565b9050919050565b6101cd816101b2565b82525050565b60006020820190506101e860008301846101c4565b92915050565b600081519050919050565b7f4e487b7100000000000000000000000000000000000000000000000000000000600052604160045260246000fd5b7f4e487b7100000000000000000000000000000000000000000000000000000000600052602260045260246000fd5b6000600282049050600182168061026f57607f821691505b60208210810361028257610281610228565b5b50919050565b60008190508160005260206000209050919050565b60006020601f8301049050919050565b600082821b905092915050565b6000600883026102ea7fffffffffffffffffffffffffffffffffffffffffffffffffffffffffffffffff826102ad565b6102f486836102ad565b95508019841693508086168417925050509392505050565b6000819050919050565b6000819050919050565b600061033b6103366103318461030c565b610316565b61030c565b9050919050565b6000819050919050565b61035583610320565b61036961036182610342565b8484546102ba565b825550505050565b600090565b61037e610371565b61038981848461034c565b505050565b5b818110156103ad576103a2600082610376565b60018101905061038f565b5050565b601f8211156103f2576103c381610288565b6103cc8461029d565b810160208510156103db578190505b6103ef6103e78561029d565b83018261038e565b50505b505050565b600082821c905092915050565b6000610415600019846008026103f7565b1980831691505092915050565b600061042e8383610404565b9150826002028217905092915050565b610447826101ee565b67ffffffffffffffff8111156104605761045f6101f9565b5b61046a8254610257565b6104758282856103b1565b600060209050601f8311600181146104a85760008415610496578287015190505b6104a08582610422565b865550610508565b601f1984166104b686610288565b60005b828110156104de578489015182556001820191506020850194506020810190506104b9565b868310156104fb57848901516104f7601f891682610404565b8355505b6001600288020188555050505b505050505050565b613b608061051f6000396000f3fe608060405234801561001057600080fd5b50600436106101365760003560e01c80637ce9b989116100b8578063a22cb4651161007c578063a22cb4651461036f578063c49298ac1461038b578063d96ee754146103a7578063e985e9c5146103c3578063f242432a146103f3578063f2fde38b1461040f57610136565b80637ce9b989146102b9578063852c6ae2146102d5578063856296f7146103055780638da5cb5b146103355780639e7212ad1461035357610136565b80632eb2c2d6116100ff5780632eb2c2d61461021757806339dd7530146102335780634e1273f414610263578063715018a61461029357806372ce42751461029d57610136565b8062fdd58e1461013b57806301b7037c1461016b57806301ffc9a7146101875780630504c814146101b75780630e89341c146101e7575b600080fd5b6101556004803603810190610150919061256b565b61042b565b60405161016291906125ba565b60405180910390f35b61018560048036038101906101809190612670565b610485565b005b6101a1600480360381019061019c9190612750565b6107eb565b6040516101ae9190612798565b60405180910390f35b6101d160048036038101906101cc91906127b3565b6108cd565b6040516101de91906125ba565b60405180910390f35b61020160048036038101906101fc91906127f3565b6108fe565b60405161020e91906128b0565b60405180910390f35b610231600480360381019061022c9190612ac5565b610992565b005b61024d60048036038101906102489190612b94565b610a3a565b60405161025a91906125ba565b60405180910390f35b61027d60048036038101906102789190612c97565b610a70565b60405161028a9190612dcd565b60405180910390f35b61029b610b79565b005b6102b760048036038101906102b29190612def565b610b8d565b005b6102d360048036038101906102ce9190612e89565b610da7565b005b6102ef60048036038101906102ea9190612ee9565b610f69565b6040516102fc9190612f4b565b60405180910390f35b61031f600480360381019061031a9190612f66565b610f9f565b60405161032c9190612f4b565b60405180910390f35b61033d610fd5565b60405161034a9190612fc8565b60405180910390f35b61036d60048036038101906103689190612def565b610fff565b005b6103896004803603810190610384919061300f565b611207565b005b6103a560048036038101906103a09190612e89565b61121d565b005b6103c160048036038101906103bc9190612ee9565b611270565b005b6103dd60048036038101906103d8919061304f565b6113be565b6040516103ea9190612798565b60405180910390f35b61040d6004803603810190610408919061308f565b611452565b005b61042960048036038101906104249190613126565b6114fa565b005b600080600083815260200190815260200160002060008473ffffffffffffffffffffffffffffffffffffffff1673ffffffffffffffffffffffffffffffffffffffff16815260200190815260200160002054905092915050565b600080600460008681526020019081526020016000208054806020026020016040519081016040528092919081815260200182805480156104e557602002820191906000526020600020905b8154815260200190600101908083116104d1575b505050505090506000815111610530576040517f08c379a00000000000000000000000000000000000000000000000000000000081526004016105279061319f565b60405180910390fd5b6000805b8251811015610572578281815181106105505761054f6131bf565b5b602002602001015182610563919061321d565b91508080600101915050610534565b5060005b858590508110156106ad576000868683818110610596576105956131bf565b5b90506020020135905060008989836040516020016105b693929190613293565b60405160208183030381529060405280519060200120905060008b826040516020016105e3929190613318565b6040516020818303038152906040528051906020012060001c9050600061060a338361042b565b9050600081111561069c5760006001850361063e5787600081518110610633576106326131bf565b5b602002602001015190505b60028503610665578760018151811061065a576106596131bf565b5b602002602001015190505b60008782846106749190613344565b61067e91906133b5565b9050808a61068c919061321d565b9950610699338585611580565b50505b505050508080600101915050610576565b506000831115610775578773ffffffffffffffffffffffffffffffffffffffff1663a9059cbb33856040518363ffffffff1660e01b81526004016106f29291906133e6565b6020604051808303816000875af1158015610711573d6000803e3d6000fd5b505050506040513d601f19601f820116820180604052508101906107359190613424565b610774576040517f08c379a000000000000000000000000000000000000000000000000000000000815260040161076b9061349d565b60405180910390fd5b5b868873ffffffffffffffffffffffffffffffffffffffff163373ffffffffffffffffffffffffffffffffffffffff167f2682012a4a4f1973119f1c9b90745d1bd91fa2bab387344f044cb3586864d18d898989896040516107d99493929190613527565b60405180910390a45050505050505050565b60007fd9b67a26000000000000000000000000000000000000000000000000000000007bffffffffffffffffffffffffffffffffffffffffffffffffffffffff1916827bffffffffffffffffffffffffffffffffffffffffffffffffffffffff191614806108b657507f0e89341c000000000000000000000000000000000000000000000000000000007bffffffffffffffffffffffffffffffffffffffffffffffffffffffff1916827bffffffffffffffffffffffffffffffffffffffffffffffffffffffff1916145b806108c657506108c582611627565b5b9050919050565b600460205281600052604060002081815481106108e957600080fd5b90600052602060002001600091509150505481565b60606002805461090d90613596565b80601f016020809104026020016040519081016040528092919081815260200182805461093990613596565b80156109865780601f1061095b57610100808354040283529160200191610986565b820191906000526020600020905b81548152906001019060200180831161096957829003601f168201915b50505050509050919050565b600061099c611691565b90508073ffffffffffffffffffffffffffffffffffffffff168673ffffffffffffffffffffffffffffffffffffffff16141580156109e157506109df86826113be565b155b15610a255780866040517fe237d922000000000000000000000000000000000000000000000000000000008152600401610a1c9291906135c7565b60405180910390fd5b610a328686868686611699565b505050505050565b60008282604051602001610a4f929190613318565b6040516020818303038152906040528051906020012060001c905092915050565b60608151835114610abc57815183516040517f5b059991000000000000000000000000000000000000000000000000000000008152600401610ab39291906135f0565b60405180910390fd5b6000835167ffffffffffffffff811115610ad957610ad86128d2565b5b604051908082528060200260200182016040528015610b075781602001602082028036833780820191505090505b50905060005b8451811015610b6e57610b44610b2c828761179190919063ffffffff16565b610b3f83876117a590919063ffffffff16565b61042b565b828281518110610b5757610b566131bf565b5b602002602001018181525050806001019050610b0d565b508091505092915050565b610b816117b9565b610b8b6000611840565b565b60008383905011610bd3576040517f08c379a0000000000000000000000000000000000000000000000000000000008152600401610bca90613665565b60405180910390fd5b8573ffffffffffffffffffffffffffffffffffffffff166323b872dd3330846040518463ffffffff1660e01b8152600401610c1093929190613685565b6020604051808303816000875af1158015610c2f573d6000803e3d6000fd5b505050506040513d601f19601f82011682018060405250810190610c539190613424565b610c92576040517f08c379a0000000000000000000000000000000000000000000000000000000008152600401610c899061349d565b60405180910390fd5b60005b83839050811015610d48576000848483818110610cb557610cb46131bf565b5b9050602002013590506000878783604051602001610cd593929190613293565b60405160208183030381529060405280519060200120905060008982604051602001610d02929190613318565b6040516020818303038152906040528051906020012060001c9050610d3833828760405180602001604052806000815250611906565b5050508080600101915050610c95565b5083853373ffffffffffffffffffffffffffffffffffffffff167f2e6bb91f8cbcda0c93623c54d0403a43514fabc40084ec96b6d5379a7478629889878787604051610d9794939291906136bc565b60405180910390a4505050505050565b610daf6117b9565b6000805b83839050811015610df257838382818110610dd157610dd06131bf565b5b9050602002013582610de3919061321d565b91508080600101915050610db3565b5060008111610e36576040517f08c379a0000000000000000000000000000000000000000000000000000000008152600401610e2d90613748565b60405180910390fd5b82829050600460008681526020019081526020016000208054905014610e91576040517f08c379a0000000000000000000000000000000000000000000000000000000008152600401610e88906137b4565b60405180910390fd5b600060046000868152602001908152602001600020600081548110610eb957610eb86131bf565b5b9060005260206000200154148015610f015750600060046000868152602001908152602001600020600181548110610ef457610ef36131bf565b5b9060005260206000200154145b610f40576040517f08c379a0000000000000000000000000000000000000000000000000000000008152600401610f3790613820565b60405180910390fd5b8282600460008781526020019081526020016000209190610f6292919061240c565b5050505050565b6000838383604051602001610f8093929190613840565b6040516020818303038152906040528051906020012090509392505050565b6000838383604051602001610fb693929190613293565b6040516020818303038152906040528051906020012090509392505050565b6000600360009054906101000a900473ffffffffffffffffffffffffffffffffffffffff16905090565b60008383905011611045576040517f08c379a000000000000000000000000000000000000000000000000000000000815260040161103c90613665565b60405180910390fd5b60005b838390508110156110eb576000848483818110611068576110676131bf565b5b905060200201359050600087878360405160200161108893929190613293565b604051602081830303815290604052805190602001209050600089826040516020016110b5929190613318565b6040516020818303038152906040528051906020012060001c90506110db338287611580565b5050508080600101915050611048565b508573ffffffffffffffffffffffffffffffffffffffff1663a9059cbb33836040518363ffffffff1660e01b81526004016111279291906133e6565b6020604051808303816000875af1158015611146573d6000803e3d6000fd5b505050506040513d601f19601f8201168201806040525081019061116a9190613424565b6111a9576040517f08c379a00000000000000000000000000000000000000000000000000000000081526004016111a09061349d565b60405180910390fd5b83853373ffffffffffffffffffffffffffffffffffffffff167f6f13ca62553fcc2bcd2372180a43949c1e4cebba603901ede2f4e14f36b282ca898787876040516111f794939291906136bc565b60405180910390a4505050505050565b611219611212611691565b838361199f565b5050565b6112256117b9565b6002828290501461126b576040517f08c379a0000000000000000000000000000000000000000000000000000000008152600401611262906138c9565b60405180910390fd5b505050565b600083838360405160200161128793929190613840565b60405160208183030381529060405280519060200120905060006004600083815260200190815260200160002080549050146112f8576040517f08c379a00000000000000000000000000000000000000000000000000000000081526004016112ef90613935565b60405180910390fd5b8167ffffffffffffffff811115611312576113116128d2565b5b6040519080825280602002602001820160405280156113405781602001602082028036833780820191505090505b50600460008381526020019081526020016000209080519060200190611367929190612459565b50828473ffffffffffffffffffffffffffffffffffffffff16827fab3760c3bd2bb38b5bcf54dc79802ed67338b4cf29f3054ded67ed24661e4177856040516113b091906125ba565b60405180910390a450505050565b6000600160008473ffffffffffffffffffffffffffffffffffffffff1673ffffffffffffffffffffffffffffffffffffffff16815260200190815260200160002060008373ffffffffffffffffffffffffffffffffffffffff1673ffffffffffffffffffffffffffffffffffffffff16815260200190815260200160002060009054906101000a900460ff16905092915050565b600061145c611691565b90508073ffffffffffffffffffffffffffffffffffffffff168673ffffffffffffffffffffffffffffffffffffffff16141580156114a1575061149f86826113be565b155b156114e55780866040517fe237d9220000000000000000000000000000000000000000000000000000000081526004016114dc9291906135c7565b60405180910390fd5b6114f28686868686611b0f565b505050505050565b6115026117b9565b600073ffffffffffffffffffffffffffffffffffffffff168173ffffffffffffffffffffffffffffffffffffffff16036115745760006040517f1e4fbdf700000000000000000000000000000000000000000000000000000000815260040161156b9190612fc8565b60405180910390fd5b61157d81611840565b50565b600073ffffffffffffffffffffffffffffffffffffffff168373ffffffffffffffffffffffffffffffffffffffff16036115f25760006040517f01a835140000000000000000000000000000000000000000000000000000000081526004016115e99190612fc8565b60405180910390fd5b6000806115ff8484611c1a565b91509150611620856000848460405180602001604052806000815250611c4a565b5050505050565b60007f01ffc9a7000000000000000000000000000000000000000000000000000000007bffffffffffffffffffffffffffffffffffffffffffffffffffffffff1916827bffffffffffffffffffffffffffffffffffffffffffffffffffffffff1916149050919050565b600033905090565b600073ffffffffffffffffffffffffffffffffffffffff168473ffffffffffffffffffffffffffffffffffffffff160361170b5760006040517f57f447ce0000000000000000000000000000000000000000000000000000000081526004016117029190612fc8565b60405180910390fd5b600073ffffffffffffffffffffffffffffffffffffffff168573ffffffffffffffffffffffffffffffffffffffff160361177d5760006040517f01a835140000000000000000000000000000000000000000000000000000000081526004016117749190612fc8565b60405180910390fd5b61178a8585858585611c4a565b5050505050565b600060208202602084010151905092915050565b600060208202602084010151905092915050565b6117c1611691565b73ffffffffffffffffffffffffffffffffffffffff166117df610fd5565b73ffffffffffffffffffffffffffffffffffffffff161461183e57611802611691565b6040517f118cdaa70000000000000000000000000000000000000000000000000000000081526004016118359190612fc8565b60405180910390fd5b565b6000600360009054906101000a900473ffffffffffffffffffffffffffffffffffffffff16905081600360006101000a81548173ffffffffffffffffffffffffffffffffffffffff021916908373ffffffffffffffffffffffffffffffffffffffff1602179055508173ffffffffffffffffffffffffffffffffffffffff168173ffffffffffffffffffffffffffffffffffffffff167f8be0079c531659141344cd1fd0a4f28419497f9722a3daafe3b4186f6b6457e060405160405180910390a35050565b600073ffffffffffffffffffffffffffffffffffffffff168473ffffffffffffffffffffffffffffffffffffffff16036119785760006040517f57f447ce00000000000000000000000000000000000000000000000000000000815260040161196f9190612fc8565b60405180910390fd5b6000806119858585611c1a565b91509150611997600087848487611c4a565b505050505050565b600073ffffffffffffffffffffffffffffffffffffffff168273ffffffffffffffffffffffffffffffffffffffff1603611a115760006040517fced3e100000000000000000000000000000000000000000000000000000000008152600401611a089190612fc8565b60405180910390fd5b80600160008573ffffffffffffffffffffffffffffffffffffffff1673ffffffffffffffffffffffffffffffffffffffff16815260200190815260200160002060008473ffffffffffffffffffffffffffffffffffffffff1673ffffffffffffffffffffffffffffffffffffffff16815260200190815260200160002060006101000a81548160ff0219169083151502179055508173ffffffffffffffffffffffffffffffffffffffff168373ffffffffffffffffffffffffffffffffffffffff167f17307eab39ab6107e8899845ad3d59bd9653f200f220920489ca2b5937696c3183604051611b029190612798565b60405180910390a3505050565b600073ffffffffffffffffffffffffffffffffffffffff168473ffffffffffffffffffffffffffffffffffffffff1603611b815760006040517f57f447ce000000000000000000000000000000000000000000000000000000008152600401611b789190612fc8565b60405180910390fd5b600073ffffffffffffffffffffffffffffffffffffffff168573ffffffffffffffffffffffffffffffffffffffff1603611bf35760006040517f01a83514000000000000000000000000000000000000000000000000000000008152600401611bea9190612fc8565b60405180910390fd5b600080611c008585611c1a565b91509150611c118787848487611c4a565b50505050505050565b60608060405191506001825283602083015260408201905060018152826020820152604081016040529250929050565b611c5685858585611cfc565b600073ffffffffffffffffffffffffffffffffffffffff168473ffffffffffffffffffffffffffffffffffffffff1614611cf5576000611c94611691565b90506001845103611ce4576000611cb56000866117a590919063ffffffff16565b90506000611ccd6000866117a590919063ffffffff16565b9050611cdd8389898585896120a4565b5050611cf3565b611cf2818787878787612258565b5b505b5050505050565b8051825114611d4657815181516040517f5b059991000000000000000000000000000000000000000000000000000000008152600401611d3d9291906135f0565b60405180910390fd5b6000611d50611691565b905060005b8351811015611f5f576000611d7382866117a590919063ffffffff16565b90506000611d8a83866117a590919063ffffffff16565b9050600073ffffffffffffffffffffffffffffffffffffffff168873ffffffffffffffffffffffffffffffffffffffff1614611eb757600080600084815260200190815260200160002060008a73ffffffffffffffffffffffffffffffffffffffff1673ffffffffffffffffffffffffffffffffffffffff16815260200190815260200160002054905081811015611e5f57888183856040517f03dee4c5000000000000000000000000000000000000000000000000000000008152600401611e569493929190613955565b60405180910390fd5b81810360008085815260200190815260200160002060008b73ffffffffffffffffffffffffffffffffffffffff1673ffffffffffffffffffffffffffffffffffffffff16815260200190815260200160002081905550505b600073ffffffffffffffffffffffffffffffffffffffff168773ffffffffffffffffffffffffffffffffffffffff1614611f52578060008084815260200190815260200160002060008973ffffffffffffffffffffffffffffffffffffffff1673ffffffffffffffffffffffffffffffffffffffff1681526020019081526020016000206000828254611f4a919061321d565b925050819055505b5050806001019050611d55565b50600183510361201e576000611f7f6000856117a590919063ffffffff16565b90506000611f976000856117a590919063ffffffff16565b90508573ffffffffffffffffffffffffffffffffffffffff168773ffffffffffffffffffffffffffffffffffffffff168473ffffffffffffffffffffffffffffffffffffffff167fc3d58168c5ae7397731d063d5bbf3d657854427343f4c083240f7aacaa2d0f62858560405161200f9291906135f0565b60405180910390a4505061209d565b8373ffffffffffffffffffffffffffffffffffffffff168573ffffffffffffffffffffffffffffffffffffffff168273ffffffffffffffffffffffffffffffffffffffff167f4a39dc06d4c0dbc64b70af90fd698a233a518aa5d07e595d983b8c0526c8f7fb868660405161209492919061399a565b60405180910390a45b5050505050565b60008473ffffffffffffffffffffffffffffffffffffffff163b1115612250578373ffffffffffffffffffffffffffffffffffffffff1663f23a6e6187878686866040518663ffffffff1660e01b8152600401612105959493929190613a26565b6020604051808303816000875af192505050801561214157506040513d601f19601f8201168201806040525081019061213e9190613a95565b60015b6121c5573d8060008114612171576040519150601f19603f3d011682016040523d82523d6000602084013e612176565b606091505b5060008151036121bd57846040517f57f447ce0000000000000000000000000000000000000000000000000000000081526004016121b49190612fc8565b60405180910390fd5b805160208201fd5b63f23a6e6160e01b7bffffffffffffffffffffffffffffffffffffffffffffffffffffffff1916817bffffffffffffffffffffffffffffffffffffffffffffffffffffffff19161461224e57846040517f57f447ce0000000000000000000000000000000000000000000000000000000081526004016122459190612fc8565b60405180910390fd5b505b505050505050565b60008473ffffffffffffffffffffffffffffffffffffffff163b1115612404578373ffffffffffffffffffffffffffffffffffffffff1663bc197c8187878686866040518663ffffffff1660e01b81526004016122b9959493929190613ac2565b6020604051808303816000875af19250505080156122f557506040513d601f19601f820116820180604052508101906122f29190613a95565b60015b612379573d8060008114612325576040519150601f19603f3d011682016040523d82523d6000602084013e61232a565b606091505b50600081510361237157846040517f57f447ce0000000000000000000000000000000000000000000000000000000081526004016123689190612fc8565b60405180910390fd5b805160208201fd5b63bc197c8160e01b7bffffffffffffffffffffffffffffffffffffffffffffffffffffffff1916817bffffffffffffffffffffffffffffffffffffffffffffffffffffffff19161461240257846040517f57f447ce0000000000000000000000000000000000000000000000000000000081526004016123f99190612fc8565b60405180910390fd5b505b505050505050565b828054828255906000526020600020908101928215612448579160200282015b8281111561244757823582559160200191906001019061242c565b5b50905061245591906124a6565b5090565b828054828255906000526020600020908101928215612495579160200282015b82811115612494578251825591602001919060010190612479565b5b5090506124a291906124a6565b5090565b5b808211156124bf5760008160009055506001016124a7565b5090565b6000604051905090565b600080fd5b600080fd5b600073ffffffffffffffffffffffffffffffffffffffff82169050919050565b6000612502826124d7565b9050919050565b612512816124f7565b811461251d57600080fd5b50565b60008135905061252f81612509565b92915050565b6000819050919050565b61254881612535565b811461255357600080fd5b50565b6000813590506125658161253f565b92915050565b60008060408385031215612582576125816124cd565b5b600061259085828601612520565b92505060206125a185828601612556565b9150509250929050565b6125b481612535565b82525050565b60006020820190506125cf60008301846125ab565b92915050565b6000819050919050565b6125e8816125d5565b81146125f357600080fd5b50565b600081359050612605816125df565b92915050565b600080fd5b600080fd5b600080fd5b60008083601f8401126126305761262f61260b565b5b8235905067ffffffffffffffff81111561264d5761264c612610565b5b60208301915083602082028301111561266957612668612615565b5b9250929050565b60008060008060006080868803121561268c5761268b6124cd565b5b600061269a88828901612520565b95505060206126ab888289016125f6565b94505060406126bc888289016125f6565b935050606086013567ffffffffffffffff8111156126dd576126dc6124d2565b5b6126e98882890161261a565b92509250509295509295909350565b60007fffffffff0000000000000000000000000000000000000000000000000000000082169050919050565b61272d816126f8565b811461273857600080fd5b50565b60008135905061274a81612724565b92915050565b600060208284031215612766576127656124cd565b5b60006127748482850161273b565b91505092915050565b60008115159050919050565b6127928161277d565b82525050565b60006020820190506127ad6000830184612789565b92915050565b600080604083850312156127ca576127c96124cd565b5b60006127d8858286016125f6565b92505060206127e985828601612556565b9150509250929050565b600060208284031215612809576128086124cd565b5b600061281784828501612556565b91505092915050565b600081519050919050565b600082825260208201905092915050565b60005b8381101561285a57808201518184015260208101905061283f565b60008484015250505050565b6000601f19601f8301169050919050565b600061288282612820565b61288c818561282b565b935061289c81856020860161283c565b6128a581612866565b840191505092915050565b600060208201905081810360008301526128ca8184612877565b905092915050565b7f4e487b7100000000000000000000000000000000000000000000000000000000600052604160045260246000fd5b61290a82612866565b810181811067ffffffffffffffff82111715612929576129286128d2565b5b80604052505050565b600061293c6124c3565b90506129488282612901565b919050565b600067ffffffffffffffff821115612968576129676128d2565b5b602082029050602081019050919050565b600061298c6129878461294d565b612932565b905080838252602082019050602084028301858111156129af576129ae612615565b5b835b818110156129d857806129c48882612556565b8452602084019350506020810190506129b1565b5050509392505050565b600082601f8301126129f7576129f661260b565b5b8135612a07848260208601612979565b91505092915050565b600080fd5b600067ffffffffffffffff821115612a3057612a2f6128d2565b5b612a3982612866565b9050602081019050919050565b82818337600083830152505050565b6000612a68612a6384612a15565b612932565b905082815260208101848484011115612a8457612a83612a10565b5b612a8f848285612a46565b509392505050565b600082601f830112612aac57612aab61260b565b5b8135612abc848260208601612a55565b91505092915050565b600080600080600060a08688031215612ae157612ae06124cd565b5b6000612aef88828901612520565b9550506020612b0088828901612520565b945050604086013567ffffffffffffffff811115612b2157612b206124d2565b5b612b2d888289016129e2565b935050606086013567ffffffffffffffff811115612b4e57612b4d6124d2565b5b612b5a888289016129e2565b925050608086013567ffffffffffffffff811115612b7b57612b7a6124d2565b5b612b8788828901612a97565b9150509295509295909350565b60008060408385031215612bab57612baa6124cd565b5b6000612bb985828601612520565b9250506020612bca858286016125f6565b9150509250929050565b600067ffffffffffffffff821115612bef57612bee6128d2565b5b602082029050602081019050919050565b6000612c13612c0e84612bd4565b612932565b90508083825260208201905060208402830185811115612c3657612c35612615565b5b835b81811015612c5f5780612c4b8882612520565b845260208401935050602081019050612c38565b5050509392505050565b600082601f830112612c7e57612c7d61260b565b5b8135612c8e848260208601612c00565b91505092915050565b60008060408385031215612cae57612cad6124cd565b5b600083013567ffffffffffffffff811115612ccc57612ccb6124d2565b5b612cd885828601612c69565b925050602083013567ffffffffffffffff811115612cf957612cf86124d2565b5b612d05858286016129e2565b9150509250929050565b600081519050919050565b600082825260208201905092915050565b6000819050602082019050919050565b612d4481612535565b82525050565b6000612d568383612d3b565b60208301905092915050565b6000602082019050919050565b6000612d7a82612d0f565b612d848185612d1a565b9350612d8f83612d2b565b8060005b83811015612dc0578151612da78882612d4a565b9750612db283612d62565b925050600181019050612d93565b5085935050505092915050565b60006020820190508181036000830152612de78184612d6f565b905092915050565b60008060008060008060a08789031215612e0c57612e0b6124cd565b5b6000612e1a89828a01612520565b9650506020612e2b89828a016125f6565b9550506040612e3c89828a016125f6565b945050606087013567ffffffffffffffff811115612e5d57612e5c6124d2565b5b612e6989828a0161261a565b93509350506080612e7c89828a01612556565b9150509295509295509295565b600080600060408486031215612ea257612ea16124cd565b5b6000612eb0868287016125f6565b935050602084013567ffffffffffffffff811115612ed157612ed06124d2565b5b612edd8682870161261a565b92509250509250925092565b600080600060608486031215612f0257612f016124cd565b5b6000612f1086828701612520565b9350506020612f21868287016125f6565b9250506040612f3286828701612556565b9150509250925092565b612f45816125d5565b82525050565b6000602082019050612f606000830184612f3c565b92915050565b600080600060608486031215612f7f57612f7e6124cd565b5b6000612f8d868287016125f6565b9350506020612f9e868287016125f6565b9250506040612faf86828701612556565b9150509250925092565b612fc2816124f7565b82525050565b6000602082019050612fdd6000830184612fb9565b92915050565b612fec8161277d565b8114612ff757600080fd5b50565b60008135905061300981612fe3565b92915050565b60008060408385031215613026576130256124cd565b5b600061303485828601612520565b925050602061304585828601612ffa565b9150509250929050565b60008060408385031215613066576130656124cd565b5b600061307485828601612520565b925050602061308585828601612520565b9150509250929050565b600080600080600060a086880312156130ab576130aa6124cd565b5b60006130b988828901612520565b95505060206130ca88828901612520565b94505060406130db88828901612556565b93505060606130ec88828901612556565b925050608086013567ffffffffffffffff81111561310d5761310c6124d2565b5b61311988828901612a97565b9150509295509295909350565b60006020828403121561313c5761313b6124cd565b5b600061314a84828501612520565b91505092915050565b7f436f6e646974696f6e206e6f74207265736f6c76656400000000000000000000600082015250565b600061318960168361282b565b915061319482613153565b602082019050919050565b600060208201905081810360008301526131b88161317c565b9050919050565b7f4e487b7100000000000000000000000000000000000000000000000000000000600052603260045260246000fd5b7f4e487b7100000000000000000000000000000000000000000000000000000000600052601160045260246000fd5b600061322882612535565b915061323383612535565b925082820190508082111561324b5761324a6131ee565b5b92915050565b6000819050919050565b61326c613267826125d5565b613251565b82525050565b6000819050919050565b61328d61328882612535565b613272565b82525050565b600061329f828661325b565b6020820191506132af828561325b565b6020820191506132bf828461327c565b602082019150819050949350505050565b60008160601b9050919050565b60006132e8826132d0565b9050919050565b60006132fa826132dd565b9050919050565b61331261330d826124f7565b6132ef565b82525050565b60006133248285613301565b601482019150613334828461325b565b6020820191508190509392505050565b600061334f82612535565b915061335a83612535565b925082820261336881612535565b9150828204841483151761337f5761337e6131ee565b5b5092915050565b7f4e487b7100000000000000000000000000000000000000000000000000000000600052601260045260246000fd5b60006133c082612535565b91506133cb83612535565b9250826133db576133da613386565b5b828204905092915050565b60006040820190506133fb6000830185612fb9565b61340860208301846125ab565b9392505050565b60008151905061341e81612fe3565b92915050565b60006020828403121561343a576134396124cd565b5b60006134488482850161340f565b91505092915050565b7f5472616e73666572206661696c65640000000000000000000000000000000000600082015250565b6000613487600f8361282b565b915061349282613451565b602082019050919050565b600060208201905081810360008301526134b68161347a565b9050919050565b600080fd5b82818337505050565b60006134d78385612d1a565b93507f07ffffffffffffffffffffffffffffffffffffffffffffffffffffffffffffff83111561350a576135096134bd565b5b60208302925061351b8385846134c2565b82840190509392505050565b600060608201905061353c6000830187612f3c565b818103602083015261354f8185876134cb565b905061355e60408301846125ab565b95945050505050565b7f4e487b7100000000000000000000000000000000000000000000000000000000600052602260045260246000fd5b600060028204905060018216806135ae57607f821691505b6020821081036135c1576135c0613567565b5b50919050565b60006040820190506135dc6000830185612fb9565b6135e96020830184612fb9565b9392505050565b600060408201905061360560008301856125ab565b61361260208301846125ab565b9392505050565b7f506172746974696f6e206d757374206e6f7420626520656d7074790000000000600082015250565b600061364f601b8361282b565b915061365a82613619565b602082019050919050565b6000602082019050818103600083015261367e81613642565b9050919050565b600060608201905061369a6000830186612fb9565b6136a76020830185612fb9565b6136b460408301846125ab565b949350505050565b60006060820190506136d16000830187612fb9565b81810360208301526136e48185876134cb565b90506136f360408301846125ab565b95945050505050565b7f546f74616c207061796f7574206d757374206265203e20300000000000000000600082015250565b600061373260188361282b565b915061373d826136fc565b602082019050919050565b6000602082019050818103600083015261376181613725565b9050919050565b7f5061796f757420636f756e74206d69736d617463680000000000000000000000600082015250565b600061379e60158361282b565b91506137a982613768565b602082019050919050565b600060208201905081810360008301526137cd81613791565b9050919050565b7f416c7265616479207265736f6c76656400000000000000000000000000000000600082015250565b600061380a60108361282b565b9150613815826137d4565b602082019050919050565b60006020820190508181036000830152613839816137fd565b9050919050565b600061384c8286613301565b60148201915061385c828561325b565b60208201915061386c828461327c565b602082019150819050949350505050565b7f42696e617279206d61726b657473206f6e6c7920666f72204d56500000000000600082015250565b60006138b3601b8361282b565b91506138be8261387d565b602082019050919050565b600060208201905081810360008301526138e2816138a6565b9050919050565b7f436f6e646974696f6e20616c7265616479207072657061726564000000000000600082015250565b600061391f601a8361282b565b915061392a826138e9565b602082019050919050565b6000602082019050818103600083015261394e81613912565b9050919050565b600060808201905061396a6000830187612fb9565b61397760208301866125ab565b61398460408301856125ab565b61399160608301846125ab565b95945050505050565b600060408201905081810360008301526139b48185612d6f565b905081810360208301526139c88184612d6f565b90509392505050565b600081519050919050565b600082825260208201905092915050565b60006139f8826139d1565b613a0281856139dc565b9350613a1281856020860161283c565b613a1b81612866565b840191505092915050565b600060a082019050613a3b6000830188612fb9565b613a486020830187612fb9565b613a5560408301866125ab565b613a6260608301856125ab565b8181036080830152613a7481846139ed565b90509695505050505050565b600081519050613a8f81612724565b92915050565b600060208284031215613aab57613aaa6124cd565b5b6000613ab984828501613a80565b91505092915050565b600060a082019050613ad76000830188612fb9565b613ae46020830187612fb9565b8181036040830152613af68186612d6f565b90508181036060830152613b0a8185612d6f565b90508181036080830152613b1e81846139ed565b9050969550505050505056fea264697066735822122097a47c8e96861bdf7215c802a1e53d22409510f5d16aeadfd762ed8a75e6da6e64736f6c634300081c0033","opcodes":"PUSH1 0x80 PUSH1 0x40 MSTORE CALLVALUE DUP1 ISZERO PUSH2 0x10 JUMPI PUSH1 0x0 DUP1 REVERT JUMPDEST POP CALLER PUSH1 0x40 MLOAD DUP1 PUSH1 0x20 ADD PUSH1 0x40 MSTORE DUP1 PUSH1 0x0 DUP2 MSTORE POP PUSH2 0x31 DUP2 PUSH2 0xB9 PUSH1 0x20 SHL PUSH1 0x20 SHR JUMP JUMPDEST POP PUSH1 0x0 PUSH20 0xFFFFFFFFFFFFFFFFFFFFFFFFFFFFFFFFFFFFFFFF AND DUP2 PUSH20 0xFFFFFFFFFFFFFFFFFFFFFFFFFFFFFFFFFFFFFFFF AND SUB PUSH2 0xA4 JUMPI PUSH1 0x0 PUSH1 0x40 MLOAD PUSH32 0x1E4FBDF700000000000000000000000000000000000000000000000000000000 DUP2 MSTORE PUSH1 0x4 ADD PUSH2 0x9B SWAP2 SWAP1 PUSH2 0x1D3 JUMP JUMPDEST PUSH1 0x40 MLOAD DUP1 SWAP2 SUB SWAP1 REVERT JUMPDEST PUSH2 0xB3 DUP2 PUSH2 0xCC PUSH1 0x20 SHL PUSH1 0x20 SHR JUMP JUMPDEST POP PUSH2 0x510 JUMP JUMPDEST DUP1 PUSH1 0x2 SWAP1 DUP2 PUSH2 0xC8 SWAP2 SWAP1 PUSH2 0x43E JUMP JUMPDEST POP POP JUMP JUMPDEST PUSH1 0x0 PUSH1 0x3 PUSH1 0x0 SWAP1 SLOAD SWAP1 PUSH2 0x100 EXP SWAP1 DIV PUSH20 0xFFFFFFFFFFFFFFFFFFFFFFFFFFFFFFFFFFFFFFFF AND SWAP1 POP DUP2 PUSH1 0x3 PUSH1 0x0 PUSH2 0x100 EXP DUP2 SLOAD DUP2 PUSH20 0xFFFFFFFFFFFFFFFFFFFFFFFFFFFFFFFFFFFFFFFF MUL NOT AND SWAP1 DUP4 PUSH20 0xFFFFFFFFFFFFFFFFFFFFFFFFFFFFFFFFFFFFFFFF AND MUL OR SWAP1 SSTORE POP DUP2 PUSH20 0xFFFFFFFFFFFFFFFFFFFFFFFFFFFFFFFFFFFFFFFF AND DUP2 PUSH20 0xFFFFFFFFFFFFFFFFFFFFFFFFFFFFFFFFFFFFFFFF AND PUSH32 0x8BE0079C531659141344CD1FD0A4F28419497F9722A3DAAFE3B4186F6B6457E0 PUSH1 0x40 MLOAD PUSH1 0x40 MLOAD DUP1 SWAP2 SUB SWAP1 LOG3 POP POP JUMP JUMPDEST PUSH1 0x0 PUSH20 0xFFFFFFFFFFFFFFFFFFFFFFFFFFFFFFFFFFFFFFFF DUP3 AND SWAP1 POP SWAP2 SWAP1 POP JUMP JUMPDEST PUSH1 0x0 PUSH2 0x1BD DUP3 PUSH2 0x192 JUMP JUMPDEST SWAP1 POP SWAP2 SWAP1 POP JUMP JUMPDEST PUSH2 0x1CD DUP2 PUSH2 0x1B2 JUMP JUMPDEST DUP3 MSTORE POP POP JUMP JUMPDEST PUSH1 0x0 PUSH1 0x20 DUP3 ADD SWAP1 POP PUSH2 0x1E8 PUSH1 0x0 DUP4 ADD DUP5 PUSH2 0x1C4 JUMP JUMPDEST SWAP3 SWAP2 POP POP JUMP JUMPDEST PUSH1 0x0 DUP2 MLOAD SWAP1 POP SWAP2 SWAP1 POP JUMP JUMPDEST PUSH32 0x4E487B7100000000000000000000000000000000000000000000000000000000 PUSH1 0x0 MSTORE PUSH1 0x41 PUSH1 0x4 MSTORE PUSH1 0x24 PUSH1 0x0 REVERT JUMPDEST PUSH32 0x4E487B7100000000000000000000000000000000000000000000000000000000 PUSH1 0x0 MSTORE PUSH1 0x22 PUSH1 0x4 MSTORE PUSH1 0x24 PUSH1 0x0 REVERT JUMPDEST PUSH1 0x0 PUSH1 0x2 DUP3 DIV SWAP1 POP PUSH1 0x1 DUP3 AND DUP1 PUSH2 0x26F JUMPI PUSH1 0x7F DUP3 AND SWAP2 POP JUMPDEST PUSH1 0x20 DUP3 LT DUP2 SUB PUSH2 0x282 JUMPI PUSH2 0x281 PUSH2 0x228 JUMP JUMPDEST JUMPDEST POP SWAP2 SWAP1 POP JUMP JUMPDEST PUSH1 0x0 DUP2 SWAP1 POP DUP2 PUSH1 0x0 MSTORE PUSH1 0x20 PUSH1 0x0 KECCAK256 SWAP1 POP SWAP2 SWAP1 POP JUMP JUMPDEST PUSH1 0x0 PUSH1 0x20 PUSH1 0x1F DUP4 ADD DIV SWAP1 POP SWAP2 SWAP1 POP JUMP JUMPDEST PUSH1 0x0 DUP3 DUP3 SHL SWAP1 POP SWAP3 SWAP2 POP POP JUMP JUMPDEST PUSH1 0x0 PUSH1 0x8 DUP4 MUL PUSH2 0x2EA PUSH32 0xFFFFFFFFFFFFFFFFFFFFFFFFFFFFFFFFFFFFFFFFFFFFFFFFFFFFFFFFFFFFFFFF DUP3 PUSH2 0x2AD JUMP JUMPDEST PUSH2 0x2F4 DUP7 DUP4 PUSH2 0x2AD JUMP JUMPDEST SWAP6 POP DUP1 NOT DUP5 AND SWAP4 POP DUP1 DUP7 AND DUP5 OR SWAP3 POP POP POP SWAP4 SWAP3 POP POP POP JUMP JUMPDEST PUSH1 0x0 DUP2 SWAP1 POP SWAP2 SWAP1 POP JUMP JUMPDEST PUSH1 0x0 DUP2 SWAP1 POP SWAP2 SWAP1 POP JUMP JUMPDEST PUSH1 0x0 PUSH2 0x33B PUSH2 0x336 PUSH2 0x331 DUP5 PUSH2 0x30C JUMP JUMPDEST PUSH2 0x316 JUMP JUMPDEST PUSH2 0x30C JUMP JUMPDEST SWAP1 POP SWAP2 SWAP1 POP JUMP JUMPDEST PUSH1 0x0 DUP2 SWAP1 POP SWAP2 SWAP1 POP JUMP JUMPDEST PUSH2 0x355 DUP4 PUSH2 0x320 JUMP JUMPDEST PUSH2 0x369 PUSH2 0x361 DUP3 PUSH2 0x342 JUMP JUMPDEST DUP5 DUP5 SLOAD PUSH2 0x2BA JUMP JUMPDEST DUP3 SSTORE POP POP POP POP JUMP JUMPDEST PUSH1 0x0 SWAP1 JUMP JUMPDEST PUSH2 0x37E PUSH2 0x371 JUMP JUMPDEST PUSH2 0x389 DUP2 DUP5 DUP5 PUSH2 0x34C JUMP JUMPDEST POP POP POP JUMP JUMPDEST JUMPDEST DUP2 DUP2 LT ISZERO PUSH2 0x3AD JUMPI PUSH2 0x3A2 PUSH1 0x0 DUP3 PUSH2 0x376 JUMP JUMPDEST PUSH1 0x1 DUP2 ADD SWAP1 POP PUSH2 0x38F JUMP JUMPDEST POP POP JUMP JUMPDEST PUSH1 0x1F DUP3 GT ISZERO PUSH2 0x3F2 JUMPI PUSH2 0x3C3 DUP2 PUSH2 0x288 JUMP JUMPDEST PUSH2 0x3CC DUP5 PUSH2 0x29D JUMP JUMPDEST DUP2 ADD PUSH1 0x20 DUP6 LT ISZERO PUSH2 0x3DB JUMPI DUP2 SWAP1 POP JUMPDEST PUSH2 0x3EF PUSH2 0x3E7 DUP6 PUSH2 0x29D JUMP JUMPDEST DUP4 ADD DUP3 PUSH2 0x38E JUMP JUMPDEST POP POP JUMPDEST POP POP POP JUMP JUMPDEST PUSH1 0x0 DUP3 DUP3 SHR SWAP1 POP SWAP3 SWAP2 POP POP JUMP JUMPDEST PUSH1 0x0 PUSH2 0x415 PUSH1 0x0 NOT DUP5 PUSH1 0x8 MUL PUSH2 0x3F7 JUMP JUMPDEST NOT DUP1 DUP4 AND SWAP2 POP POP SWAP3 SWAP2 POP POP JUMP JUMPDEST PUSH1 0x0 PUSH2 0x42E DUP4 DUP4 PUSH2 0x404 JUMP JUMPDEST SWAP2 POP DUP3 PUSH1 0x2 MUL DUP3 OR SWAP1 POP SWAP3 SWAP2 POP POP JUMP JUMPDEST PUSH2 0x447 DUP3 PUSH2 0x1EE JUMP JUMPDEST PUSH8 0xFFFFFFFFFFFFFFFF DUP2 GT ISZERO PUSH2 0x460 JUMPI PUSH2 0x45F PUSH2 0x1F9 JUMP JUMPDEST JUMPDEST PUSH2 0x46A DUP3 SLOAD PUSH2 0x257 JUMP JUMPDEST PUSH2 0x475 DUP3 DUP3 DUP6 PUSH2 0x3B1 JUMP JUMPDEST PUSH1 0x0 PUSH1 0x20 SWAP1 POP PUSH1 0x1F DUP4 GT PUSH1 0x1 DUP2 EQ PUSH2 0x4A8 JUMPI PUSH1 0x0 DUP5 ISZERO PUSH2 0x496 JUMPI DUP3 DUP8 ADD MLOAD SWAP1 POP JUMPDEST PUSH2 0x4A0 DUP6 DUP3 PUSH2 0x422 JUMP JUMPDEST DUP7 SSTORE POP PUSH2 0x508 JUMP JUMPDEST PUSH1 0x1F NOT DUP5 AND PUSH2 0x4B6 DUP7 PUSH2 0x288 JUMP JUMPDEST PUSH1 0x0 JUMPDEST DUP3 DUP2 LT ISZERO PUSH2 0x4DE JUMPI DUP5 DUP10 ADD MLOAD DUP3 SSTORE PUSH1 0x1 DUP3 ADD SWAP2 POP PUSH1 0x20 DUP6 ADD SWAP5 POP PUSH1 0x20 DUP2 ADD SWAP1 POP PUSH2 0x4B9 JUMP JUMPDEST DUP7 DUP4 LT ISZERO PUSH2 0x4FB JUMPI DUP5 DUP10 ADD MLOAD PUSH2 0x4F7 PUSH1 0x1F DUP10 AND DUP3 PUSH2 0x404 JUMP JUMPDEST DUP4 SSTORE POP JUMPDEST PUSH1 0x1 PUSH1 0x2 DUP9 MUL ADD DUP9 SSTORE POP POP POP JUMPDEST POP POP POP POP POP POP JUMP JUMPDEST PUSH2 0x3B60 DUP1 PUSH2 0x51F PUSH1 0x0 CODECOPY PUSH1 0x0 RETURN INVALID PUSH1 0x80 PUSH1 0x40 MSTORE CALLVALUE DUP1 ISZERO PUSH2 0x10 JUMPI PUSH1 0x0 DUP1 REVERT JUMPDEST POP PUSH1 0x4 CALLDATASIZE LT PUSH2 0x136 JUMPI PUSH1 0x0 CALLDATALOAD PUSH1 0xE0 SHR DUP1 PUSH4 0x7CE9B989 GT PUSH2 0xB8 JUMPI DUP1 PUSH4 0xA22CB465 GT PUSH2 0x7C JUMPI DUP1 PUSH4 0xA22CB465 EQ PUSH2 0x36F JUMPI DUP1 PUSH4 0xC49298AC EQ PUSH2 0x38B JUMPI DUP1 PUSH4 0xD96EE754 EQ PUSH2 0x3A7 JUMPI DUP1 PUSH4 0xE985E9C5 EQ PUSH2 0x3C3 JUMPI DUP1 PUSH4 0xF242432A EQ PUSH2 0x3F3 JUMPI DUP1 PUSH4 0xF2FDE38B EQ PUSH2 0x40F JUMPI PUSH2 0x136 JUMP JUMPDEST DUP1 PUSH4 0x7CE9B989 EQ PUSH2 0x2B9 JUMPI DUP1 PUSH4 0x852C6AE2 EQ PUSH2 0x2D5 JUMPI DUP1 PUSH4 0x856296F7 EQ PUSH2 0x305 JUMPI DUP1 PUSH4 0x8DA5CB5B EQ PUSH2 0x335 JUMPI DUP1 PUSH4 0x9E7212AD EQ PUSH2 0x353 JUMPI PUSH2 0x136 JUMP JUMPDEST DUP1 PUSH4 0x2EB2C2D6 GT PUSH2 0xFF JUMPI DUP1 PUSH4 0x2EB2C2D6 EQ PUSH2 0x217 JUMPI DUP1 PUSH4 0x39DD7530 EQ PUSH2 0x233 JUMPI DUP1 PUSH4 0x4E1273F4 EQ PUSH2 0x263 JUMPI DUP1 PUSH4 0x715018A6 EQ PUSH2 0x293 JUMPI DUP1 PUSH4 0x72CE4275 EQ PUSH2 0x29D JUMPI PUSH2 0x136 JUMP JUMPDEST DUP1 PUSH3 0xFDD58E EQ PUSH2 0x13B JUMPI DUP1 PUSH4 0x1B7037C EQ PUSH2 0x16B JUMPI DUP1 PUSH4 0x1FFC9A7 EQ PUSH2 0x187 JUMPI DUP1 PUSH4 0x504C814 EQ PUSH2 0x1B7 JUMPI DUP1 PUSH4 0xE89341C EQ PUSH2 0x1E7 JUMPI JUMPDEST PUSH1 0x0 DUP1 REVERT JUMPDEST PUSH2 0x155 PUSH1 0x4 DUP1 CALLDATASIZE SUB DUP2 ADD SWAP1 PUSH2 0x150 SWAP2 SWAP1 PUSH2 0x256B JUMP JUMPDEST PUSH2 0x42B JUMP JUMPDEST PUSH1 0x40 MLOAD PUSH2 0x162 SWAP2 SWAP1 PUSH2 0x25BA JUMP JUMPDEST PUSH1 0x40 MLOAD DUP1 SWAP2 SUB SWAP1 RETURN JUMPDEST PUSH2 0x185 PUSH1 0x4 DUP1 CALLDATASIZE SUB DUP2 ADD SWAP1 PUSH2 0x180 SWAP2 SWAP1 PUSH2 0x2670 JUMP JUMPDEST PUSH2 0x485 JUMP JUMPDEST STOP JUMPDEST PUSH2 0x1A1 PUSH1 0x4 DUP1 CALLDATASIZE SUB DUP2 ADD SWAP1 PUSH2 0x19C SWAP2 SWAP1 PUSH2 0x2750 JUMP JUMPDEST PUSH2 0x7EB JUMP JUMPDEST PUSH1 0x40 MLOAD PUSH2 0x1AE SWAP2 SWAP1 PUSH2 0x2798 JUMP JUMPDEST PUSH1 0x40 MLOAD DUP1 SWAP2 SUB SWAP1 RETURN JUMPDEST PUSH2 0x1D1 PUSH1 0x4 DUP1 CALLDATASIZE SUB DUP2 ADD SWAP1 PUSH2 0x1CC SWAP2 SWAP1 PUSH2 0x27B3 JUMP JUMPDEST PUSH2 0x8CD JUMP JUMPDEST PUSH1 0x40 MLOAD PUSH2 0x1DE SWAP2 SWAP1 PUSH2 0x25BA JUMP JUMPDEST PUSH1 0x40 MLOAD DUP1 SWAP2 SUB SWAP1 RETURN JUMPDEST PUSH2 0x201 PUSH1 0x4 DUP1 CALLDATASIZE SUB DUP2 ADD SWAP1 PUSH2 0x1FC SWAP2 SWAP1 PUSH2 0x27F3 JUMP JUMPDEST PUSH2 0x8FE JUMP JUMPDEST PUSH1 0x40 MLOAD PUSH2 0x20E SWAP2 SWAP1 PUSH2 0x28B0 JUMP JUMPDEST PUSH1 0x40 MLOAD DUP1 SWAP2 SUB SWAP1 RETURN JUMPDEST PUSH2 0x231 PUSH1 0x4 DUP1 CALLDATASIZE SUB DUP2 ADD SWAP1 PUSH2 0x22C SWAP2 SWAP1 PUSH2 0x2AC5 JUMP JUMPDEST PUSH2 0x992 JUMP JUMPDEST STOP JUMPDEST PUSH2 0x24D PUSH1 0x4 DUP1 CALLDATASIZE SUB DUP2 ADD SWAP1 PUSH2 0x248 SWAP2 SWAP1 PUSH2 0x2B94 JUMP JUMPDEST PUSH2 0xA3A JUMP JUMPDEST PUSH1 0x40 MLOAD PUSH2 0x25A SWAP2 SWAP1 PUSH2 0x25BA JUMP JUMPDEST PUSH1 0x40 MLOAD DUP1 SWAP2 SUB SWAP1 RETURN JUMPDEST PUSH2 0x27D PUSH1 0x4 DUP1 CALLDATASIZE SUB DUP2 ADD SWAP1 PUSH2 0x278 SWAP2 SWAP1 PUSH2 0x2C97 JUMP JUMPDEST PUSH2 0xA70 JUMP JUMPDEST PUSH1 0x40 MLOAD PUSH2 0x28A SWAP2 SWAP1 PUSH2 0x2DCD JUMP JUMPDEST PUSH1 0x40 MLOAD DUP1 SWAP2 SUB SWAP1 RETURN JUMPDEST PUSH2 0x29B PUSH2 0xB79 JUMP JUMPDEST STOP JUMPDEST PUSH2 0x2B7 PUSH1 0x4 DUP1 CALLDATASIZE SUB DUP2 ADD SWAP1 PUSH2 0x2B2 SWAP2 SWAP1 PUSH2 0x2DEF JUMP JUMPDEST PUSH2 0xB8D JUMP JUMPDEST STOP JUMPDEST PUSH2 0x2D3 PUSH1 0x4 DUP1 CALLDATASIZE SUB DUP2 ADD SWAP1 PUSH2 0x2CE SWAP2 SWAP1 PUSH2 0x2E89 JUMP JUMPDEST PUSH2 0xDA7 JUMP JUMPDEST STOP JUMPDEST PUSH2 0x2EF PUSH1 0x4 DUP1 CALLDATASIZE SUB DUP2 ADD SWAP1 PUSH2 0x2EA SWAP2 SWAP1 PUSH2 0x2EE9 JUMP JUMPDEST PUSH2 0xF69 JUMP JUMPDEST PUSH1 0x40 MLOAD PUSH2 0x2FC SWAP2 SWAP1 PUSH2 0x2F4B JUMP JUMPDEST PUSH1 0x40 MLOAD DUP1 SWAP2 SUB SWAP1 RETURN JUMPDEST PUSH2 0x31F PUSH1 0x4 DUP1 CALLDATASIZE SUB DUP2 ADD SWAP1 PUSH2 0x31A SWAP2 SWAP1 PUSH2 0x2F66 JUMP JUMPDEST PUSH2 0xF9F JUMP JUMPDEST PUSH1 0x40 MLOAD PUSH2 0x32C SWAP2 SWAP1 PUSH2 0x2F4B JUMP JUMPDEST PUSH1 0x40 MLOAD DUP1 SWAP2 SUB SWAP1 RETURN JUMPDEST PUSH2 0x33D PUSH2 0xFD5 JUMP JUMPDEST PUSH1 0x40 MLOAD PUSH2 0x34A SWAP2 SWAP1 PUSH2 0x2FC8 JUMP JUMPDEST PUSH1 0x40 MLOAD DUP1 SWAP2 SUB SWAP1 RETURN JUMPDEST PUSH2 0x36D PUSH1 0x4 DUP1 CALLDATASIZE SUB DUP2 ADD SWAP1 PUSH2 0x368 SWAP2 SWAP1 PUSH2 0x2DEF JUMP JUMPDEST PUSH2 0xFFF JUMP JUMPDEST STOP JUMPDEST PUSH2 0x389 PUSH1 0x4 DUP1 CALLDATASIZE SUB DUP2 ADD SWAP1 PUSH2 0x384 SWAP2 SWAP1 PUSH2 0x300F JUMP JUMPDEST PUSH2 0x1207 JUMP JUMPDEST STOP JUMPDEST PUSH2 0x3A5 PUSH1 0x4 DUP1 CALLDATASIZE SUB DUP2 ADD SWAP1 PUSH2 0x3A0 SWAP2 SWAP1 PUSH2 0x2E89 JUMP JUMPDEST PUSH2 0x121D JUMP JUMPDEST STOP JUMPDEST PUSH2 0x3C1 PUSH1 0x4 DUP1 CALLDATASIZE SUB DUP2 ADD SWAP1 PUSH2 0x3BC SWAP2 SWAP1 PUSH2 0x2EE9 JUMP JUMPDEST PUSH2 0x1270 JUMP JUMPDEST STOP JUMPDEST PUSH2 0x3DD PUSH1 0x4 DUP1 CALLDATASIZE SUB DUP2 ADD SWAP1 PUSH2 0x3D8 SWAP2 SWAP1 PUSH2 0x304F JUMP JUMPDEST PUSH2 0x13BE JUMP JUMPDEST PUSH1 0x40 MLOAD PUSH2 0x3EA SWAP2 SWAP1 PUSH2 0x2798 JUMP JUMPDEST PUSH1 0x40 MLOAD DUP1 SWAP2 SUB SWAP1 RETURN JUMPDEST PUSH2 0x40D PUSH1 0x4 DUP1 CALLDATASIZE SUB DUP2 ADD SWAP1 PUSH2 0x408 SWAP2 SWAP1 PUSH2 0x308F JUMP JUMPDEST PUSH2 0x1452 JUMP JUMPDEST STOP JUMPDEST PUSH2 0x429 PUSH1 0x4 DUP1 CALLDATASIZE SUB DUP2 ADD SWAP1 PUSH2 0x424 SWAP2 SWAP1 PUSH2 0x3126 JUMP JUMPDEST PUSH2 0x14FA JUMP JUMPDEST STOP JUMPDEST PUSH1 0x0 DUP1 PUSH1 0x0 DUP4 DUP2 MSTORE PUSH1 0x20 ADD SWAP1 DUP2 MSTORE PUSH1 0x20 ADD PUSH1 0x0 KECCAK256 PUSH1 0x0 DUP5 PUSH20 0xFFFFFFFFFFFFFFFFFFFFFFFFFFFFFFFFFFFFFFFF AND PUSH20 0xFFFFFFFFFFFFFFFFFFFFFFFFFFFFFFFFFFFFFFFF AND DUP2 MSTORE PUSH1 0x20 ADD SWAP1 DUP2 MSTORE PUSH1 0x20 ADD PUSH1 0x0 KECCAK256 SLOAD SWAP1 POP SWAP3 SWAP2 POP POP JUMP JUMPDEST PUSH1 0x0 DUP1 PUSH1 0x4 PUSH1 0x0 DUP7 DUP2 MSTORE PUSH1 0x20 ADD SWAP1 DUP2 MSTORE PUSH1 0x20 ADD PUSH1 0x0 KECCAK256 DUP1 SLOAD DUP1 PUSH1 0x20 MUL PUSH1 0x20 ADD PUSH1 0x40 MLOAD SWAP1 DUP2 ADD PUSH1 0x40 MSTORE DUP1 SWAP3 SWAP2 SWAP1 DUP2 DUP2 MSTORE PUSH1 0x20 ADD DUP3 DUP1 SLOAD DUP1 ISZERO PUSH2 0x4E5 JUMPI PUSH1 0x20 MUL DUP3 ADD SWAP2 SWAP1 PUSH1 0x0 MSTORE PUSH1 0x20 PUSH1 0x0 KECCAK256 SWAP1 JUMPDEST DUP2 SLOAD DUP2 MSTORE PUSH1 0x20 ADD SWAP1 PUSH1 0x1 ADD SWAP1 DUP1 DUP4 GT PUSH2 0x4D1 JUMPI JUMPDEST POP POP POP POP POP SWAP1 POP PUSH1 0x0 DUP2 MLOAD GT PUSH2 0x530 JUMPI PUSH1 0x40 MLOAD PUSH32 0x8C379A000000000000000000000000000000000000000000000000000000000 DUP2 MSTORE PUSH1 0x4 ADD PUSH2 0x527 SWAP1 PUSH2 0x319F JUMP JUMPDEST PUSH1 0x40 MLOAD DUP1 SWAP2 SUB SWAP1 REVERT JUMPDEST PUSH1 0x0 DUP1 JUMPDEST DUP3 MLOAD DUP2 LT ISZERO PUSH2 0x572 JUMPI DUP3 DUP2 DUP2 MLOAD DUP2 LT PUSH2 0x550 JUMPI PUSH2 0x54F PUSH2 0x31BF JUMP JUMPDEST JUMPDEST PUSH1 0x20 MUL PUSH1 0x20 ADD ADD MLOAD DUP3 PUSH2 0x563 SWAP2 SWAP1 PUSH2 0x321D JUMP JUMPDEST SWAP2 POP DUP1 DUP1 PUSH1 0x1 ADD SWAP2 POP POP PUSH2 0x534 JUMP JUMPDEST POP PUSH1 0x0 JUMPDEST DUP6 DUP6 SWAP1 POP DUP2 LT ISZERO PUSH2 0x6AD JUMPI PUSH1 0x0 DUP7 DUP7 DUP4 DUP2 DUP2 LT PUSH2 0x596 JUMPI PUSH2 0x595 PUSH2 0x31BF JUMP JUMPDEST JUMPDEST SWAP1 POP PUSH1 0x20 MUL ADD CALLDATALOAD SWAP1 POP PUSH1 0x0 DUP10 DUP10 DUP4 PUSH1 0x40 MLOAD PUSH1 0x20 ADD PUSH2 0x5B6 SWAP4 SWAP3 SWAP2 SWAP1 PUSH2 0x3293 JUMP JUMPDEST PUSH1 0x40 MLOAD PUSH1 0x20 DUP2 DUP4 SUB SUB DUP2 MSTORE SWAP1 PUSH1 0x40 MSTORE DUP1 MLOAD SWAP1 PUSH1 0x20 ADD KECCAK256 SWAP1 POP PUSH1 0x0 DUP12 DUP3 PUSH1 0x40 MLOAD PUSH1 0x20 ADD PUSH2 0x5E3 SWAP3 SWAP2 SWAP1 PUSH2 0x3318 JUMP JUMPDEST PUSH1 0x40 MLOAD PUSH1 0x20 DUP2 DUP4 SUB SUB DUP2 MSTORE SWAP1 PUSH1 0x40 MSTORE DUP1 MLOAD SWAP1 PUSH1 0x20 ADD KECCAK256 PUSH1 0x0 SHR SWAP1 POP PUSH1 0x0 PUSH2 0x60A CALLER DUP4 PUSH2 0x42B JUMP JUMPDEST SWAP1 POP PUSH1 0x0 DUP2 GT ISZERO PUSH2 0x69C JUMPI PUSH1 0x0 PUSH1 0x1 DUP6 SUB PUSH2 0x63E JUMPI DUP8 PUSH1 0x0 DUP2 MLOAD DUP2 LT PUSH2 0x633 JUMPI PUSH2 0x632 PUSH2 0x31BF JUMP JUMPDEST JUMPDEST PUSH1 0x20 MUL PUSH1 0x20 ADD ADD MLOAD SWAP1 POP JUMPDEST PUSH1 0x2 DUP6 SUB PUSH2 0x665 JUMPI DUP8 PUSH1 0x1 DUP2 MLOAD DUP2 LT PUSH2 0x65A JUMPI PUSH2 0x659 PUSH2 0x31BF JUMP JUMPDEST JUMPDEST PUSH1 0x20 MUL PUSH1 0x20 ADD ADD MLOAD SWAP1 POP JUMPDEST PUSH1 0x0 DUP8 DUP3 DUP5 PUSH2 0x674 SWAP2 SWAP1 PUSH2 0x3344 JUMP JUMPDEST PUSH2 0x67E SWAP2 SWAP1 PUSH2 0x33B5 JUMP JUMPDEST SWAP1 POP DUP1 DUP11 PUSH2 0x68C SWAP2 SWAP1 PUSH2 0x321D JUMP JUMPDEST SWAP10 POP PUSH2 0x699 CALLER DUP6 DUP6 PUSH2 0x1580 JUMP JUMPDEST POP POP JUMPDEST POP POP POP POP DUP1 DUP1 PUSH1 0x1 ADD SWAP2 POP POP PUSH2 0x576 JUMP JUMPDEST POP PUSH1 0x0 DUP4 GT ISZERO PUSH2 0x775 JUMPI DUP8 PUSH20 0xFFFFFFFFFFFFFFFFFFFFFFFFFFFFFFFFFFFFFFFF AND PUSH4 0xA9059CBB CALLER DUP6 PUSH1 0x40 MLOAD DUP4 PUSH4 0xFFFFFFFF AND PUSH1 0xE0 SHL DUP2 MSTORE PUSH1 0x4 ADD PUSH2 0x6F2 SWAP3 SWAP2 SWAP1 PUSH2 0x33E6 JUMP JUMPDEST PUSH1 0x20 PUSH1 0x40 MLOAD DUP1 DUP4 SUB DUP2 PUSH1 0x0 DUP8 GAS CALL ISZERO DUP1 ISZERO PUSH2 0x711 JUMPI RETURNDATASIZE PUSH1 0x0 DUP1 RETURNDATACOPY RETURNDATASIZE PUSH1 0x0 REVERT JUMPDEST POP POP POP POP PUSH1 0x40 MLOAD RETURNDATASIZE PUSH1 0x1F NOT PUSH1 0x1F DUP3 ADD AND DUP3 ADD DUP1 PUSH1 0x40 MSTORE POP DUP2 ADD SWAP1 PUSH2 0x735 SWAP2 SWAP1 PUSH2 0x3424 JUMP JUMPDEST PUSH2 0x774 JUMPI PUSH1 0x40 MLOAD PUSH32 0x8C379A000000000000000000000000000000000000000000000000000000000 DUP2 MSTORE PUSH1 0x4 ADD PUSH2 0x76B SWAP1 PUSH2 0x349D JUMP JUMPDEST PUSH1 0x40 MLOAD DUP1 SWAP2 SUB SWAP1 REVERT JUMPDEST JUMPDEST DUP7 DUP9 PUSH20 0xFFFFFFFFFFFFFFFFFFFFFFFFFFFFFFFFFFFFFFFF AND CALLER PUSH20 0xFFFFFFFFFFFFFFFFFFFFFFFFFFFFFFFFFFFFFFFF AND PUSH32 0x2682012A4A4F1973119F1C9B90745D1BD91FA2BAB387344F044CB3586864D18D DUP10 DUP10 DUP10 DUP10 PUSH1 0x40 MLOAD PUSH2 0x7D9 SWAP5 SWAP4 SWAP3 SWAP2 SWAP1 PUSH2 0x3527 JUMP JUMPDEST PUSH1 0x40 MLOAD DUP1 SWAP2 SUB SWAP1 LOG4 POP POP POP POP POP POP POP POP JUMP JUMPDEST PUSH1 0x0 PUSH32 0xD9B67A2600000000000000000000000000000000000000000000000000000000 PUSH28 0xFFFFFFFFFFFFFFFFFFFFFFFFFFFFFFFFFFFFFFFFFFFFFFFFFFFFFFFF NOT AND DUP3 PUSH28 0xFFFFFFFFFFFFFFFFFFFFFFFFFFFFFFFFFFFFFFFFFFFFFFFFFFFFFFFF NOT AND EQ DUP1 PUSH2 0x8B6 JUMPI POP PUSH32 0xE89341C00000000000000000000000000000000000000000000000000000000 PUSH28 0xFFFFFFFFFFFFFFFFFFFFFFFFFFFFFFFFFFFFFFFFFFFFFFFFFFFFFFFF NOT AND DUP3 PUSH28 0xFFFFFFFFFFFFFFFFFFFFFFFFFFFFFFFFFFFFFFFFFFFFFFFFFFFFFFFF NOT AND EQ JUMPDEST DUP1 PUSH2 0x8C6 JUMPI POP PUSH2 0x8C5 DUP3 PUSH2 0x1627 JUMP JUMPDEST JUMPDEST SWAP1 POP SWAP2 SWAP1 POP JUMP JUMPDEST PUSH1 0x4 PUSH1 0x20 MSTORE DUP2 PUSH1 0x0 MSTORE PUSH1 0x40 PUSH1 0x0 KECCAK256 DUP2 DUP2 SLOAD DUP2 LT PUSH2 0x8E9 JUMPI PUSH1 0x0 DUP1 REVERT JUMPDEST SWAP1 PUSH1 0x0 MSTORE PUSH1 0x20 PUSH1 0x0 KECCAK256 ADD PUSH1 0x0 SWAP2 POP SWAP2 POP POP SLOAD DUP2 JUMP JUMPDEST PUSH1 0x60 PUSH1 0x2 DUP1 SLOAD PUSH2 0x90D SWAP1 PUSH2 0x3596 JUMP JUMPDEST DUP1 PUSH1 0x1F ADD PUSH1 0x20 DUP1 SWAP2 DIV MUL PUSH1 0x20 ADD PUSH1 0x40 MLOAD SWAP1 DUP2 ADD PUSH1 0x40 MSTORE DUP1 SWAP3 SWAP2 SWAP1 DUP2 DUP2 MSTORE PUSH1 0x20 ADD DUP3 DUP1 SLOAD PUSH2 0x939 SWAP1 PUSH2 0x3596 JUMP JUMPDEST DUP1 ISZERO PUSH2 0x986 JUMPI DUP1 PUSH1 0x1F LT PUSH2 0x95B JUMPI PUSH2 0x100 DUP1 DUP4 SLOAD DIV MUL DUP4 MSTORE SWAP2 PUSH1 0x20 ADD SWAP2 PUSH2 0x986 JUMP JUMPDEST DUP3 ADD SWAP2 SWAP1 PUSH1 0x0 MSTORE PUSH1 0x20 PUSH1 0x0 KECCAK256 SWAP1 JUMPDEST DUP2 SLOAD DUP2 MSTORE SWAP1 PUSH1 0x1 ADD SWAP1 PUSH1 0x20 ADD DUP1 DUP4 GT PUSH2 0x969 JUMPI DUP3 SWAP1 SUB PUSH1 0x1F AND DUP3 ADD SWAP2 JUMPDEST POP POP POP POP POP SWAP1 POP SWAP2 SWAP1 POP JUMP JUMPDEST PUSH1 0x0 PUSH2 0x99C PUSH2 0x1691 JUMP JUMPDEST SWAP1 POP DUP1 PUSH20 0xFFFFFFFFFFFFFFFFFFFFFFFFFFFFFFFFFFFFFFFF AND DUP7 PUSH20 0xFFFFFFFFFFFFFFFFFFFFFFFFFFFFFFFFFFFFFFFF AND EQ ISZERO DUP1 ISZERO PUSH2 0x9E1 JUMPI POP PUSH2 0x9DF DUP7 DUP3 PUSH2 0x13BE JUMP JUMPDEST ISZERO JUMPDEST ISZERO PUSH2 0xA25 JUMPI DUP1 DUP7 PUSH1 0x40 MLOAD PUSH32 0xE237D92200000000000000000000000000000000000000000000000000000000 DUP2 MSTORE PUSH1 0x4 ADD PUSH2 0xA1C SWAP3 SWAP2 SWAP1 PUSH2 0x35C7 JUMP JUMPDEST PUSH1 0x40 MLOAD DUP1 SWAP2 SUB SWAP1 REVERT JUMPDEST PUSH2 0xA32 DUP7 DUP7 DUP7 DUP7 DUP7 PUSH2 0x1699 JUMP JUMPDEST POP POP POP POP POP POP JUMP JUMPDEST PUSH1 0x0 DUP3 DUP3 PUSH1 0x40 MLOAD PUSH1 0x20 ADD PUSH2 0xA4F SWAP3 SWAP2 SWAP1 PUSH2 0x3318 JUMP JUMPDEST PUSH1 0x40 MLOAD PUSH1 0x20 DUP2 DUP4 SUB SUB DUP2 MSTORE SWAP1 PUSH1 0x40 MSTORE DUP1 MLOAD SWAP1 PUSH1 0x20 ADD KECCAK256 PUSH1 0x0 SHR SWAP1 POP SWAP3 SWAP2 POP POP JUMP JUMPDEST PUSH1 0x60 DUP2 MLOAD DUP4 MLOAD EQ PUSH2 0xABC JUMPI DUP2 MLOAD DUP4 MLOAD PUSH1 0x40 MLOAD PUSH32 0x5B05999100000000000000000000000000000000000000000000000000000000 DUP2 MSTORE PUSH1 0x4 ADD PUSH2 0xAB3 SWAP3 SWAP2 SWAP1 PUSH2 0x35F0 JUMP JUMPDEST PUSH1 0x40 MLOAD DUP1 SWAP2 SUB SWAP1 REVERT JUMPDEST PUSH1 0x0 DUP4 MLOAD PUSH8 0xFFFFFFFFFFFFFFFF DUP2 GT ISZERO PUSH2 0xAD9 JUMPI PUSH2 0xAD8 PUSH2 0x28D2 JUMP JUMPDEST JUMPDEST PUSH1 0x40 MLOAD SWAP1 DUP1 DUP3 MSTORE DUP1 PUSH1 0x20 MUL PUSH1 0x20 ADD DUP3 ADD PUSH1 0x40 MSTORE DUP1 ISZERO PUSH2 0xB07 JUMPI DUP2 PUSH1 0x20 ADD PUSH1 0x20 DUP3 MUL DUP1 CALLDATASIZE DUP4 CALLDATACOPY DUP1 DUP3 ADD SWAP2 POP POP SWAP1 POP JUMPDEST POP SWAP1 POP PUSH1 0x0 JUMPDEST DUP5 MLOAD DUP2 LT ISZERO PUSH2 0xB6E JUMPI PUSH2 0xB44 PUSH2 0xB2C DUP3 DUP8 PUSH2 0x1791 SWAP1 SWAP2 SWAP1 PUSH4 0xFFFFFFFF AND JUMP JUMPDEST PUSH2 0xB3F DUP4 DUP8 PUSH2 0x17A5 SWAP1 SWAP2 SWAP1 PUSH4 0xFFFFFFFF AND JUMP JUMPDEST PUSH2 0x42B JUMP JUMPDEST DUP3 DUP3 DUP2 MLOAD DUP2 LT PUSH2 0xB57 JUMPI PUSH2 0xB56 PUSH2 0x31BF JUMP JUMPDEST JUMPDEST PUSH1 0x20 MUL PUSH1 0x20 ADD ADD DUP2 DUP2 MSTORE POP POP DUP1 PUSH1 0x1 ADD SWAP1 POP PUSH2 0xB0D JUMP JUMPDEST POP DUP1 SWAP2 POP POP SWAP3 SWAP2 POP POP JUMP JUMPDEST PUSH2 0xB81 PUSH2 0x17B9 JUMP JUMPDEST PUSH2 0xB8B PUSH1 0x0 PUSH2 0x1840 JUMP JUMPDEST JUMP JUMPDEST PUSH1 0x0 DUP4 DUP4 SWAP1 POP GT PUSH2 0xBD3 JUMPI PUSH1 0x40 MLOAD PUSH32 0x8C379A000000000000000000000000000000000000000000000000000000000 DUP2 MSTORE PUSH1 0x4 ADD PUSH2 0xBCA SWAP1 PUSH2 0x3665 JUMP JUMPDEST PUSH1 0x40 MLOAD DUP1 SWAP2 SUB SWAP1 REVERT JUMPDEST DUP6 PUSH20 0xFFFFFFFFFFFFFFFFFFFFFFFFFFFFFFFFFFFFFFFF AND PUSH4 0x23B872DD CALLER ADDRESS DUP5 PUSH1 0x40 MLOAD DUP5 PUSH4 0xFFFFFFFF AND PUSH1 0xE0 SHL DUP2 MSTORE PUSH1 0x4 ADD PUSH2 0xC10 SWAP4 SWAP3 SWAP2 SWAP1 PUSH2 0x3685 JUMP JUMPDEST PUSH1 0x20 PUSH1 0x40 MLOAD DUP1 DUP4 SUB DUP2 PUSH1 0x0 DUP8 GAS CALL ISZERO DUP1 ISZERO PUSH2 0xC2F JUMPI RETURNDATASIZE PUSH1 0x0 DUP1 RETURNDATACOPY RETURNDATASIZE PUSH1 0x0 REVERT JUMPDEST POP POP POP POP PUSH1 0x40 MLOAD RETURNDATASIZE PUSH1 0x1F NOT PUSH1 0x1F DUP3 ADD AND DUP3 ADD DUP1 PUSH1 0x40 MSTORE POP DUP2 ADD SWAP1 PUSH2 0xC53 SWAP2 SWAP1 PUSH2 0x3424 JUMP JUMPDEST PUSH2 0xC92 JUMPI PUSH1 0x40 MLOAD PUSH32 0x8C379A000000000000000000000000000000000000000000000000000000000 DUP2 MSTORE PUSH1 0x4 ADD PUSH2 0xC89 SWAP1 PUSH2 0x349D JUMP JUMPDEST PUSH1 0x40 MLOAD DUP1 SWAP2 SUB SWAP1 REVERT JUMPDEST PUSH1 0x0 JUMPDEST DUP4 DUP4 SWAP1 POP DUP2 LT ISZERO PUSH2 0xD48 JUMPI PUSH1 0x0 DUP5 DUP5 DUP4 DUP2 DUP2 LT PUSH2 0xCB5 JUMPI PUSH2 0xCB4 PUSH2 0x31BF JUMP JUMPDEST JUMPDEST SWAP1 POP PUSH1 0x20 MUL ADD CALLDATALOAD SWAP1 POP PUSH1 0x0 DUP8 DUP8 DUP4 PUSH1 0x40 MLOAD PUSH1 0x20 ADD PUSH2 0xCD5 SWAP4 SWAP3 SWAP2 SWAP1 PUSH2 0x3293 JUMP JUMPDEST PUSH1 0x40 MLOAD PUSH1 0x20 DUP2 DUP4 SUB SUB DUP2 MSTORE SWAP1 PUSH1 0x40 MSTORE DUP1 MLOAD SWAP1 PUSH1 0x20 ADD KECCAK256 SWAP1 POP PUSH1 0x0 DUP10 DUP3 PUSH1 0x40 MLOAD PUSH1 0x20 ADD PUSH2 0xD02 SWAP3 SWAP2 SWAP1 PUSH2 0x3318 JUMP JUMPDEST PUSH1 0x40 MLOAD PUSH1 0x20 DUP2 DUP4 SUB SUB DUP2 MSTORE SWAP1 PUSH1 0x40 MSTORE DUP1 MLOAD SWAP1 PUSH1 0x20 ADD KECCAK256 PUSH1 0x0 SHR SWAP1 POP PUSH2 0xD38 CALLER DUP3 DUP8 PUSH1 0x40 MLOAD DUP1 PUSH1 0x20 ADD PUSH1 0x40 MSTORE DUP1 PUSH1 0x0 DUP2 MSTORE POP PUSH2 0x1906 JUMP JUMPDEST POP POP POP DUP1 DUP1 PUSH1 0x1 ADD SWAP2 POP POP PUSH2 0xC95 JUMP JUMPDEST POP DUP4 DUP6 CALLER PUSH20 0xFFFFFFFFFFFFFFFFFFFFFFFFFFFFFFFFFFFFFFFF AND PUSH32 0x2E6BB91F8CBCDA0C93623C54D0403A43514FABC40084EC96B6D5379A74786298 DUP10 DUP8 DUP8 DUP8 PUSH1 0x40 MLOAD PUSH2 0xD97 SWAP5 SWAP4 SWAP3 SWAP2 SWAP1 PUSH2 0x36BC JUMP JUMPDEST PUSH1 0x40 MLOAD DUP1 SWAP2 SUB SWAP1 LOG4 POP POP POP POP POP POP JUMP JUMPDEST PUSH2 0xDAF PUSH2 0x17B9 JUMP JUMPDEST PUSH1 0x0 DUP1 JUMPDEST DUP4 DUP4 SWAP1 POP DUP2 LT ISZERO PUSH2 0xDF2 JUMPI DUP4 DUP4 DUP3 DUP2 DUP2 LT PUSH2 0xDD1 JUMPI PUSH2 0xDD0 PUSH2 0x31BF JUMP JUMPDEST JUMPDEST SWAP1 POP PUSH1 0x20 MUL ADD CALLDATALOAD DUP3 PUSH2 0xDE3 SWAP2 SWAP1 PUSH2 0x321D JUMP JUMPDEST SWAP2 POP DUP1 DUP1 PUSH1 0x1 ADD SWAP2 POP POP PUSH2 0xDB3 JUMP JUMPDEST POP PUSH1 0x0 DUP2 GT PUSH2 0xE36 JUMPI PUSH1 0x40 MLOAD PUSH32 0x8C379A000000000000000000000000000000000000000000000000000000000 DUP2 MSTORE PUSH1 0x4 ADD PUSH2 0xE2D SWAP1 PUSH2 0x3748 JUMP JUMPDEST PUSH1 0x40 MLOAD DUP1 SWAP2 SUB SWAP1 REVERT JUMPDEST DUP3 DUP3 SWAP1 POP PUSH1 0x4 PUSH1 0x0 DUP7 DUP2 MSTORE PUSH1 0x20 ADD SWAP1 DUP2 MSTORE PUSH1 0x20 ADD PUSH1 0x0 KECCAK256 DUP1 SLOAD SWAP1 POP EQ PUSH2 0xE91 JUMPI PUSH1 0x40 MLOAD PUSH32 0x8C379A000000000000000000000000000000000000000000000000000000000 DUP2 MSTORE PUSH1 0x4 ADD PUSH2 0xE88 SWAP1 PUSH2 0x37B4 JUMP JUMPDEST PUSH1 0x40 MLOAD DUP1 SWAP2 SUB SWAP1 REVERT JUMPDEST PUSH1 0x0 PUSH1 0x4 PUSH1 0x0 DUP7 DUP2 MSTORE PUSH1 0x20 ADD SWAP1 DUP2 MSTORE PUSH1 0x20 ADD PUSH1 0x0 KECCAK256 PUSH1 0x0 DUP2 SLOAD DUP2 LT PUSH2 0xEB9 JUMPI PUSH2 0xEB8 PUSH2 0x31BF JUMP JUMPDEST JUMPDEST SWAP1 PUSH1 0x0 MSTORE PUSH1 0x20 PUSH1 0x0 KECCAK256 ADD SLOAD EQ DUP1 ISZERO PUSH2 0xF01 JUMPI POP PUSH1 0x0 PUSH1 0x4 PUSH1 0x0 DUP7 DUP2 MSTORE PUSH1 0x20 ADD SWAP1 DUP2 MSTORE PUSH1 0x20 ADD PUSH1 0x0 KECCAK256 PUSH1 0x1 DUP2 SLOAD DUP2 LT PUSH2 0xEF4 JUMPI PUSH2 0xEF3 PUSH2 0x31BF JUMP JUMPDEST JUMPDEST SWAP1 PUSH1 0x0 MSTORE PUSH1 0x20 PUSH1 0x0 KECCAK256 ADD SLOAD EQ JUMPDEST PUSH2 0xF40 JUMPI PUSH1 0x40 MLOAD PUSH32 0x8C379A000000000000000000000000000000000000000000000000000000000 DUP2 MSTORE PUSH1 0x4 ADD PUSH2 0xF37 SWAP1 PUSH2 0x3820 JUMP JUMPDEST PUSH1 0x40 MLOAD DUP1 SWAP2 SUB SWAP1 REVERT JUMPDEST DUP3 DUP3 PUSH1 0x4 PUSH1 0x0 DUP8 DUP2 MSTORE PUSH1 0x20 ADD SWAP1 DUP2 MSTORE PUSH1 0x20 ADD PUSH1 0x0 KECCAK256 SWAP2 SWAP1 PUSH2 0xF62 SWAP3 SWAP2 SWAP1 PUSH2 0x240C JUMP JUMPDEST POP POP POP POP POP JUMP JUMPDEST PUSH1 0x0 DUP4 DUP4 DUP4 PUSH1 0x40 MLOAD PUSH1 0x20 ADD PUSH2 0xF80 SWAP4 SWAP3 SWAP2 SWAP1 PUSH2 0x3840 JUMP JUMPDEST PUSH1 0x40 MLOAD PUSH1 0x20 DUP2 DUP4 SUB SUB DUP2 MSTORE SWAP1 PUSH1 0x40 MSTORE DUP1 MLOAD SWAP1 PUSH1 0x20 ADD KECCAK256 SWAP1 POP SWAP4 SWAP3 POP POP POP JUMP JUMPDEST PUSH1 0x0 DUP4 DUP4 DUP4 PUSH1 0x40 MLOAD PUSH1 0x20 ADD PUSH2 0xFB6 SWAP4 SWAP3 SWAP2 SWAP1 PUSH2 0x3293 JUMP JUMPDEST PUSH1 0x40 MLOAD PUSH1 0x20 DUP2 DUP4 SUB SUB DUP2 MSTORE SWAP1 PUSH1 0x40 MSTORE DUP1 MLOAD SWAP1 PUSH1 0x20 ADD KECCAK256 SWAP1 POP SWAP4 SWAP3 POP POP POP JUMP JUMPDEST PUSH1 0x0 PUSH1 0x3 PUSH1 0x0 SWAP1 SLOAD SWAP1 PUSH2 0x100 EXP SWAP1 DIV PUSH20 0xFFFFFFFFFFFFFFFFFFFFFFFFFFFFFFFFFFFFFFFF AND SWAP1 POP SWAP1 JUMP JUMPDEST PUSH1 0x0 DUP4 DUP4 SWAP1 POP GT PUSH2 0x1045 JUMPI PUSH1 0x40 MLOAD PUSH32 0x8C379A000000000000000000000000000000000000000000000000000000000 DUP2 MSTORE PUSH1 0x4 ADD PUSH2 0x103C SWAP1 PUSH2 0x3665 JUMP JUMPDEST PUSH1 0x40 MLOAD DUP1 SWAP2 SUB SWAP1 REVERT JUMPDEST PUSH1 0x0 JUMPDEST DUP4 DUP4 SWAP1 POP DUP2 LT ISZERO PUSH2 0x10EB JUMPI PUSH1 0x0 DUP5 DUP5 DUP4 DUP2 DUP2 LT PUSH2 0x1068 JUMPI PUSH2 0x1067 PUSH2 0x31BF JUMP JUMPDEST JUMPDEST SWAP1 POP PUSH1 0x20 MUL ADD CALLDATALOAD SWAP1 POP PUSH1 0x0 DUP8 DUP8 DUP4 PUSH1 0x40 MLOAD PUSH1 0x20 ADD PUSH2 0x1088 SWAP4 SWAP3 SWAP2 SWAP1 PUSH2 0x3293 JUMP JUMPDEST PUSH1 0x40 MLOAD PUSH1 0x20 DUP2 DUP4 SUB SUB DUP2 MSTORE SWAP1 PUSH1 0x40 MSTORE DUP1 MLOAD SWAP1 PUSH1 0x20 ADD KECCAK256 SWAP1 POP PUSH1 0x0 DUP10 DUP3 PUSH1 0x40 MLOAD PUSH1 0x20 ADD PUSH2 0x10B5 SWAP3 SWAP2 SWAP1 PUSH2 0x3318 JUMP JUMPDEST PUSH1 0x40 MLOAD PUSH1 0x20 DUP2 DUP4 SUB SUB DUP2 MSTORE SWAP1 PUSH1 0x40 MSTORE DUP1 MLOAD SWAP1 PUSH1 0x20 ADD KECCAK256 PUSH1 0x0 SHR SWAP1 POP PUSH2 0x10DB CALLER DUP3 DUP8 PUSH2 0x1580 JUMP JUMPDEST POP POP POP DUP1 DUP1 PUSH1 0x1 ADD SWAP2 POP POP PUSH2 0x1048 JUMP JUMPDEST POP DUP6 PUSH20 0xFFFFFFFFFFFFFFFFFFFFFFFFFFFFFFFFFFFFFFFF AND PUSH4 0xA9059CBB CALLER DUP4 PUSH1 0x40 MLOAD DUP4 PUSH4 0xFFFFFFFF AND PUSH1 0xE0 SHL DUP2 MSTORE PUSH1 0x4 ADD PUSH2 0x1127 SWAP3 SWAP2 SWAP1 PUSH2 0x33E6 JUMP JUMPDEST PUSH1 0x20 PUSH1 0x40 MLOAD DUP1 DUP4 SUB DUP2 PUSH1 0x0 DUP8 GAS CALL ISZERO DUP1 ISZERO PUSH2 0x1146 JUMPI RETURNDATASIZE PUSH1 0x0 DUP1 RETURNDATACOPY RETURNDATASIZE PUSH1 0x0 REVERT JUMPDEST POP POP POP POP PUSH1 0x40 MLOAD RETURNDATASIZE PUSH1 0x1F NOT PUSH1 0x1F DUP3 ADD AND DUP3 ADD DUP1 PUSH1 0x40 MSTORE POP DUP2 ADD SWAP1 PUSH2 0x116A SWAP2 SWAP1 PUSH2 0x3424 JUMP JUMPDEST PUSH2 0x11A9 JUMPI PUSH1 0x40 MLOAD PUSH32 0x8C379A000000000000000000000000000000000000000000000000000000000 DUP2 MSTORE PUSH1 0x4 ADD PUSH2 0x11A0 SWAP1 PUSH2 0x349D JUMP JUMPDEST PUSH1 0x40 MLOAD DUP1 SWAP2 SUB SWAP1 REVERT JUMPDEST DUP4 DUP6 CALLER PUSH20 0xFFFFFFFFFFFFFFFFFFFFFFFFFFFFFFFFFFFFFFFF AND PUSH32 0x6F13CA62553FCC2BCD2372180A43949C1E4CEBBA603901EDE2F4E14F36B282CA DUP10 DUP8 DUP8 DUP8 PUSH1 0x40 MLOAD PUSH2 0x11F7 SWAP5 SWAP4 SWAP3 SWAP2 SWAP1 PUSH2 0x36BC JUMP JUMPDEST PUSH1 0x40 MLOAD DUP1 SWAP2 SUB SWAP1 LOG4 POP POP POP POP POP POP JUMP JUMPDEST PUSH2 0x1219 PUSH2 0x1212 PUSH2 0x1691 JUMP JUMPDEST DUP4 DUP4 PUSH2 0x199F JUMP JUMPDEST POP POP JUMP JUMPDEST PUSH2 0x1225 PUSH2 0x17B9 JUMP JUMPDEST PUSH1 0x2 DUP3 DUP3 SWAP1 POP EQ PUSH2 0x126B JUMPI PUSH1 0x40 MLOAD PUSH32 0x8C379A000000000000000000000000000000000000000000000000000000000 DUP2 MSTORE PUSH1 0x4 ADD PUSH2 0x1262 SWAP1 PUSH2 0x38C9 JUMP JUMPDEST PUSH1 0x40 MLOAD DUP1 SWAP2 SUB SWAP1 REVERT JUMPDEST POP POP POP JUMP JUMPDEST PUSH1 0x0 DUP4 DUP4 DUP4 PUSH1 0x40 MLOAD PUSH1 0x20 ADD PUSH2 0x1287 SWAP4 SWAP3 SWAP2 SWAP1 PUSH2 0x3840 JUMP JUMPDEST PUSH1 0x40 MLOAD PUSH1 0x20 DUP2 DUP4 SUB SUB DUP2 MSTORE SWAP1 PUSH1 0x40 MSTORE DUP1 MLOAD SWAP1 PUSH1 0x20 ADD KECCAK256 SWAP1 POP PUSH1 0x0 PUSH1 0x4 PUSH1 0x0 DUP4 DUP2 MSTORE PUSH1 0x20 ADD SWAP1 DUP2 MSTORE PUSH1 0x20 ADD PUSH1 0x0 KECCAK256 DUP1 SLOAD SWAP1 POP EQ PUSH2 0x12F8 JUMPI PUSH1 0x40 MLOAD PUSH32 0x8C379A000000000000000000000000000000000000000000000000000000000 DUP2 MSTORE PUSH1 0x4 ADD PUSH2 0x12EF SWAP1 PUSH2 0x3935 JUMP JUMPDEST PUSH1 0x40 MLOAD DUP1 SWAP2 SUB SWAP1 REVERT JUMPDEST DUP2 PUSH8 0xFFFFFFFFFFFFFFFF DUP2 GT ISZERO PUSH2 0x1312 JUMPI PUSH2 0x1311 PUSH2 0x28D2 JUMP JUMPDEST JUMPDEST PUSH1 0x40 MLOAD SWAP1 DUP1 DUP3 MSTORE DUP1 PUSH1 0x20 MUL PUSH1 0x20 ADD DUP3 ADD PUSH1 0x40 MSTORE DUP1 ISZERO PUSH2 0x1340 JUMPI DUP2 PUSH1 0x20 ADD PUSH1 0x20 DUP3 MUL DUP1 CALLDATASIZE DUP4 CALLDATACOPY DUP1 DUP3 ADD SWAP2 POP POP SWAP1 POP JUMPDEST POP PUSH1 0x4 PUSH1 0x0 DUP4 DUP2 MSTORE PUSH1 0x20 ADD SWAP1 DUP2 MSTORE PUSH1 0x20 ADD PUSH1 0x0 KECCAK256 SWAP1 DUP1 MLOAD SWAP1 PUSH1 0x20 ADD SWAP1 PUSH2 0x1367 SWAP3 SWAP2 SWAP1 PUSH2 0x2459 JUMP JUMPDEST POP DUP3 DUP5 PUSH20 0xFFFFFFFFFFFFFFFFFFFFFFFFFFFFFFFFFFFFFFFF AND DUP3 PUSH32 0xAB3760C3BD2BB38B5BCF54DC79802ED67338B4CF29F3054DED67ED24661E4177 DUP6 PUSH1 0x40 MLOAD PUSH2 0x13B0 SWAP2 SWAP1 PUSH2 0x25BA JUMP JUMPDEST PUSH1 0x40 MLOAD DUP1 SWAP2 SUB SWAP1 LOG4 POP POP POP POP JUMP JUMPDEST PUSH1 0x0 PUSH1 0x1 PUSH1 0x0 DUP5 PUSH20 0xFFFFFFFFFFFFFFFFFFFFFFFFFFFFFFFFFFFFFFFF AND PUSH20 0xFFFFFFFFFFFFFFFFFFFFFFFFFFFFFFFFFFFFFFFF AND DUP2 MSTORE PUSH1 0x20 ADD SWAP1 DUP2 MSTORE PUSH1 0x20 ADD PUSH1 0x0 KECCAK256 PUSH1 0x0 DUP4 PUSH20 0xFFFFFFFFFFFFFFFFFFFFFFFFFFFFFFFFFFFFFFFF AND PUSH20 0xFFFFFFFFFFFFFFFFFFFFFFFFFFFFFFFFFFFFFFFF AND DUP2 MSTORE PUSH1 0x20 ADD SWAP1 DUP2 MSTORE PUSH1 0x20 ADD PUSH1 0x0 KECCAK256 PUSH1 0x0 SWAP1 SLOAD SWAP1 PUSH2 0x100 EXP SWAP1 DIV PUSH1 0xFF AND SWAP1 POP SWAP3 SWAP2 POP POP JUMP JUMPDEST PUSH1 0x0 PUSH2 0x145C PUSH2 0x1691 JUMP JUMPDEST SWAP1 POP DUP1 PUSH20 0xFFFFFFFFFFFFFFFFFFFFFFFFFFFFFFFFFFFFFFFF AND DUP7 PUSH20 0xFFFFFFFFFFFFFFFFFFFFFFFFFFFFFFFFFFFFFFFF AND EQ ISZERO DUP1 ISZERO PUSH2 0x14A1 JUMPI POP PUSH2 0x149F DUP7 DUP3 PUSH2 0x13BE JUMP JUMPDEST ISZERO JUMPDEST ISZERO PUSH2 0x14E5 JUMPI DUP1 DUP7 PUSH1 0x40 MLOAD PUSH32 0xE237D92200000000000000000000000000000000000000000000000000000000 DUP2 MSTORE PUSH1 0x4 ADD PUSH2 0x14DC SWAP3 SWAP2 SWAP1 PUSH2 0x35C7 JUMP JUMPDEST PUSH1 0x40 MLOAD DUP1 SWAP2 SUB SWAP1 REVERT JUMPDEST PUSH2 0x14F2 DUP7 DUP7 DUP7 DUP7 DUP7 PUSH2 0x1B0F JUMP JUMPDEST POP POP POP POP POP POP JUMP JUMPDEST PUSH2 0x1502 PUSH2 0x17B9 JUMP JUMPDEST PUSH1 0x0 PUSH20 0xFFFFFFFFFFFFFFFFFFFFFFFFFFFFFFFFFFFFFFFF AND DUP2 PUSH20 0xFFFFFFFFFFFFFFFFFFFFFFFFFFFFFFFFFFFFFFFF AND SUB PUSH2 0x1574 JUMPI PUSH1 0x0 PUSH1 0x40 MLOAD PUSH32 0x1E4FBDF700000000000000000000000000000000000000000000000000000000 DUP2 MSTORE PUSH1 0x4 ADD PUSH2 0x156B SWAP2 SWAP1 PUSH2 0x2FC8 JUMP JUMPDEST PUSH1 0x40 MLOAD DUP1 SWAP2 SUB SWAP1 REVERT JUMPDEST PUSH2 0x157D DUP2 PUSH2 0x1840 JUMP JUMPDEST POP JUMP JUMPDEST PUSH1 0x0 PUSH20 0xFFFFFFFFFFFFFFFFFFFFFFFFFFFFFFFFFFFFFFFF AND DUP4 PUSH20 0xFFFFFFFFFFFFFFFFFFFFFFFFFFFFFFFFFFFFFFFF AND SUB PUSH2 0x15F2 JUMPI PUSH1 0x0 PUSH1 0x40 MLOAD PUSH32 0x1A8351400000000000000000000000000000000000000000000000000000000 DUP2 MSTORE PUSH1 0x4 ADD PUSH2 0x15E9 SWAP2 SWAP1 PUSH2 0x2FC8 JUMP JUMPDEST PUSH1 0x40 MLOAD DUP1 SWAP2 SUB SWAP1 REVERT JUMPDEST PUSH1 0x0 DUP1 PUSH2 0x15FF DUP5 DUP5 PUSH2 0x1C1A JUMP JUMPDEST SWAP2 POP SWAP2 POP PUSH2 0x1620 DUP6 PUSH1 0x0 DUP5 DUP5 PUSH1 0x40 MLOAD DUP1 PUSH1 0x20 ADD PUSH1 0x40 MSTORE DUP1 PUSH1 0x0 DUP2 MSTORE POP PUSH2 0x1C4A JUMP JUMPDEST POP POP POP POP POP JUMP JUMPDEST PUSH1 0x0 PUSH32 0x1FFC9A700000000000000000000000000000000000000000000000000000000 PUSH28 0xFFFFFFFFFFFFFFFFFFFFFFFFFFFFFFFFFFFFFFFFFFFFFFFFFFFFFFFF NOT AND DUP3 PUSH28 0xFFFFFFFFFFFFFFFFFFFFFFFFFFFFFFFFFFFFFFFFFFFFFFFFFFFFFFFF NOT AND EQ SWAP1 POP SWAP2 SWAP1 POP JUMP JUMPDEST PUSH1 0x0 CALLER SWAP1 POP SWAP1 JUMP JUMPDEST PUSH1 0x0 PUSH20 0xFFFFFFFFFFFFFFFFFFFFFFFFFFFFFFFFFFFFFFFF AND DUP5 PUSH20 0xFFFFFFFFFFFFFFFFFFFFFFFFFFFFFFFFFFFFFFFF AND SUB PUSH2 0x170B JUMPI PUSH1 0x0 PUSH1 0x40 MLOAD PUSH32 0x57F447CE00000000000000000000000000000000000000000000000000000000 DUP2 MSTORE PUSH1 0x4 ADD PUSH2 0x1702 SWAP2 SWAP1 PUSH2 0x2FC8 JUMP JUMPDEST PUSH1 0x40 MLOAD DUP1 SWAP2 SUB SWAP1 REVERT JUMPDEST PUSH1 0x0 PUSH20 0xFFFFFFFFFFFFFFFFFFFFFFFFFFFFFFFFFFFFFFFF AND DUP6 PUSH20 0xFFFFFFFFFFFFFFFFFFFFFFFFFFFFFFFFFFFFFFFF AND SUB PUSH2 0x177D JUMPI PUSH1 0x0 PUSH1 0x40 MLOAD PUSH32 0x1A8351400000000000000000000000000000000000000000000000000000000 DUP2 MSTORE PUSH1 0x4 ADD PUSH2 0x1774 SWAP2 SWAP1 PUSH2 0x2FC8 JUMP JUMPDEST PUSH1 0x40 MLOAD DUP1 SWAP2 SUB SWAP1 REVERT JUMPDEST PUSH2 0x178A DUP6 DUP6 DUP6 DUP6 DUP6 PUSH2 0x1C4A JUMP JUMPDEST POP POP POP POP POP JUMP JUMPDEST PUSH1 0x0 PUSH1 0x20 DUP3 MUL PUSH1 0x20 DUP5 ADD ADD MLOAD SWAP1 POP SWAP3 SWAP2 POP POP JUMP JUMPDEST PUSH1 0x0 PUSH1 0x20 DUP3 MUL PUSH1 0x20 DUP5 ADD ADD MLOAD SWAP1 POP SWAP3 SWAP2 POP POP JUMP JUMPDEST PUSH2 0x17C1 PUSH2 0x1691 JUMP JUMPDEST PUSH20 0xFFFFFFFFFFFFFFFFFFFFFFFFFFFFFFFFFFFFFFFF AND PUSH2 0x17DF PUSH2 0xFD5 JUMP JUMPDEST PUSH20 0xFFFFFFFFFFFFFFFFFFFFFFFFFFFFFFFFFFFFFFFF AND EQ PUSH2 0x183E JUMPI PUSH2 0x1802 PUSH2 0x1691 JUMP JUMPDEST PUSH1 0x40 MLOAD PUSH32 0x118CDAA700000000000000000000000000000000000000000000000000000000 DUP2 MSTORE PUSH1 0x4 ADD PUSH2 0x1835 SWAP2 SWAP1 PUSH2 0x2FC8 JUMP JUMPDEST PUSH1 0x40 MLOAD DUP1 SWAP2 SUB SWAP1 REVERT JUMPDEST JUMP JUMPDEST PUSH1 0x0 PUSH1 0x3 PUSH1 0x0 SWAP1 SLOAD SWAP1 PUSH2 0x100 EXP SWAP1 DIV PUSH20 0xFFFFFFFFFFFFFFFFFFFFFFFFFFFFFFFFFFFFFFFF AND SWAP1 POP DUP2 PUSH1 0x3 PUSH1 0x0 PUSH2 0x100 EXP DUP2 SLOAD DUP2 PUSH20 0xFFFFFFFFFFFFFFFFFFFFFFFFFFFFFFFFFFFFFFFF MUL NOT AND SWAP1 DUP4 PUSH20 0xFFFFFFFFFFFFFFFFFFFFFFFFFFFFFFFFFFFFFFFF AND MUL OR SWAP1 SSTORE POP DUP2 PUSH20 0xFFFFFFFFFFFFFFFFFFFFFFFFFFFFFFFFFFFFFFFF AND DUP2 PUSH20 0xFFFFFFFFFFFFFFFFFFFFFFFFFFFFFFFFFFFFFFFF AND PUSH32 0x8BE0079C531659141344CD1FD0A4F28419497F9722A3DAAFE3B4186F6B6457E0 PUSH1 0x40 MLOAD PUSH1 0x40 MLOAD DUP1 SWAP2 SUB SWAP1 LOG3 POP POP JUMP JUMPDEST PUSH1 0x0 PUSH20 0xFFFFFFFFFFFFFFFFFFFFFFFFFFFFFFFFFFFFFFFF AND DUP5 PUSH20 0xFFFFFFFFFFFFFFFFFFFFFFFFFFFFFFFFFFFFFFFF AND SUB PUSH2 0x1978 JUMPI PUSH1 0x0 PUSH1 0x40 MLOAD PUSH32 0x57F447CE00000000000000000000000000000000000000000000000000000000 DUP2 MSTORE PUSH1 0x4 ADD PUSH2 0x196F SWAP2 SWAP1 PUSH2 0x2FC8 JUMP JUMPDEST PUSH1 0x40 MLOAD DUP1 SWAP2 SUB SWAP1 REVERT JUMPDEST PUSH1 0x0 DUP1 PUSH2 0x1985 DUP6 DUP6 PUSH2 0x1C1A JUMP JUMPDEST SWAP2 POP SWAP2 POP PUSH2 0x1997 PUSH1 0x0 DUP8 DUP5 DUP5 DUP8 PUSH2 0x1C4A JUMP JUMPDEST POP POP POP POP POP POP JUMP JUMPDEST PUSH1 0x0 PUSH20 0xFFFFFFFFFFFFFFFFFFFFFFFFFFFFFFFFFFFFFFFF AND DUP3 PUSH20 0xFFFFFFFFFFFFFFFFFFFFFFFFFFFFFFFFFFFFFFFF AND SUB PUSH2 0x1A11 JUMPI PUSH1 0x0 PUSH1 0x40 MLOAD PUSH32 0xCED3E10000000000000000000000000000000000000000000000000000000000 DUP2 MSTORE PUSH1 0x4 ADD PUSH2 0x1A08 SWAP2 SWAP1 PUSH2 0x2FC8 JUMP JUMPDEST PUSH1 0x40 MLOAD DUP1 SWAP2 SUB SWAP1 REVERT JUMPDEST DUP1 PUSH1 0x1 PUSH1 0x0 DUP6 PUSH20 0xFFFFFFFFFFFFFFFFFFFFFFFFFFFFFFFFFFFFFFFF AND PUSH20 0xFFFFFFFFFFFFFFFFFFFFFFFFFFFFFFFFFFFFFFFF AND DUP2 MSTORE PUSH1 0x20 ADD SWAP1 DUP2 MSTORE PUSH1 0x20 ADD PUSH1 0x0 KECCAK256 PUSH1 0x0 DUP5 PUSH20 0xFFFFFFFFFFFFFFFFFFFFFFFFFFFFFFFFFFFFFFFF AND PUSH20 0xFFFFFFFFFFFFFFFFFFFFFFFFFFFFFFFFFFFFFFFF AND DUP2 MSTORE PUSH1 0x20 ADD SWAP1 DUP2 MSTORE PUSH1 0x20 ADD PUSH1 0x0 KECCAK256 PUSH1 0x0 PUSH2 0x100 EXP DUP2 SLOAD DUP2 PUSH1 0xFF MUL NOT AND SWAP1 DUP4 ISZERO ISZERO MUL OR SWAP1 SSTORE POP DUP2 PUSH20 0xFFFFFFFFFFFFFFFFFFFFFFFFFFFFFFFFFFFFFFFF AND DUP4 PUSH20 0xFFFFFFFFFFFFFFFFFFFFFFFFFFFFFFFFFFFFFFFF AND PUSH32 0x17307EAB39AB6107E8899845AD3D59BD9653F200F220920489CA2B5937696C31 DUP4 PUSH1 0x40 MLOAD PUSH2 0x1B02 SWAP2 SWAP1 PUSH2 0x2798 JUMP JUMPDEST PUSH1 0x40 MLOAD DUP1 SWAP2 SUB SWAP1 LOG3 POP POP POP JUMP JUMPDEST PUSH1 0x0 PUSH20 0xFFFFFFFFFFFFFFFFFFFFFFFFFFFFFFFFFFFFFFFF AND DUP5 PUSH20 0xFFFFFFFFFFFFFFFFFFFFFFFFFFFFFFFFFFFFFFFF AND SUB PUSH2 0x1B81 JUMPI PUSH1 0x0 PUSH1 0x40 MLOAD PUSH32 0x57F447CE00000000000000000000000000000000000000000000000000000000 DUP2 MSTORE PUSH1 0x4 ADD PUSH2 0x1B78 SWAP2 SWAP1 PUSH2 0x2FC8 JUMP JUMPDEST PUSH1 0x40 MLOAD DUP1 SWAP2 SUB SWAP1 REVERT JUMPDEST PUSH1 0x0 PUSH20 0xFFFFFFFFFFFFFFFFFFFFFFFFFFFFFFFFFFFFFFFF AND DUP6 PUSH20 0xFFFFFFFFFFFFFFFFFFFFFFFFFFFFFFFFFFFFFFFF AND SUB PUSH2 0x1BF3 JUMPI PUSH1 0x0 PUSH1 0x40 MLOAD PUSH32 0x1A8351400000000000000000000000000000000000000000000000000000000 DUP2 MSTORE PUSH1 0x4 ADD PUSH2 0x1BEA SWAP2 SWAP1 PUSH2 0x2FC8 JUMP JUMPDEST PUSH1 0x40 MLOAD DUP1 SWAP2 SUB SWAP1 REVERT JUMPDEST PUSH1 0x0 DUP1 PUSH2 0x1C00 DUP6 DUP6 PUSH2 0x1C1A JUMP JUMPDEST SWAP2 POP SWAP2 POP PUSH2 0x1C11 DUP8 DUP8 DUP5 DUP5 DUP8 PUSH2 0x1C4A JUMP JUMPDEST POP POP POP POP POP POP POP JUMP JUMPDEST PUSH1 0x60 DUP1 PUSH1 0x40 MLOAD SWAP2 POP PUSH1 0x1 DUP3 MSTORE DUP4 PUSH1 0x20 DUP4 ADD MSTORE PUSH1 0x40 DUP3 ADD SWAP1 POP PUSH1 0x1 DUP2 MSTORE DUP3 PUSH1 0x20 DUP3 ADD MSTORE PUSH1 0x40 DUP2 ADD PUSH1 0x40 MSTORE SWAP3 POP SWAP3 SWAP1 POP JUMP JUMPDEST PUSH2 0x1C56 DUP6 DUP6 DUP6 DUP6 PUSH2 0x1CFC JUMP JUMPDEST PUSH1 0x0 PUSH20 0xFFFFFFFFFFFFFFFFFFFFFFFFFFFFFFFFFFFFFFFF AND DUP5 PUSH20 0xFFFFFFFFFFFFFFFFFFFFFFFFFFFFFFFFFFFFFFFF AND EQ PUSH2 0x1CF5 JUMPI PUSH1 0x0 PUSH2 0x1C94 PUSH2 0x1691 JUMP JUMPDEST SWAP1 POP PUSH1 0x1 DUP5 MLOAD SUB PUSH2 0x1CE4 JUMPI PUSH1 0x0 PUSH2 0x1CB5 PUSH1 0x0 DUP7 PUSH2 0x17A5 SWAP1 SWAP2 SWAP1 PUSH4 0xFFFFFFFF AND JUMP JUMPDEST SWAP1 POP PUSH1 0x0 PUSH2 0x1CCD PUSH1 0x0 DUP7 PUSH2 0x17A5 SWAP1 SWAP2 SWAP1 PUSH4 0xFFFFFFFF AND JUMP JUMPDEST SWAP1 POP PUSH2 0x1CDD DUP4 DUP10 DUP10 DUP6 DUP6 DUP10 PUSH2 0x20A4 JUMP JUMPDEST POP POP PUSH2 0x1CF3 JUMP JUMPDEST PUSH2 0x1CF2 DUP2 DUP8 DUP8 DUP8 DUP8 DUP8 PUSH2 0x2258 JUMP JUMPDEST JUMPDEST POP JUMPDEST POP POP POP POP POP JUMP JUMPDEST DUP1 MLOAD DUP3 MLOAD EQ PUSH2 0x1D46 JUMPI DUP2 MLOAD DUP2 MLOAD PUSH1 0x40 MLOAD PUSH32 0x5B05999100000000000000000000000000000000000000000000000000000000 DUP2 MSTORE PUSH1 0x4 ADD PUSH2 0x1D3D SWAP3 SWAP2 SWAP1 PUSH2 0x35F0 JUMP JUMPDEST PUSH1 0x40 MLOAD DUP1 SWAP2 SUB SWAP1 REVERT JUMPDEST PUSH1 0x0 PUSH2 0x1D50 PUSH2 0x1691 JUMP JUMPDEST SWAP1 POP PUSH1 0x0 JUMPDEST DUP4 MLOAD DUP2 LT ISZERO PUSH2 0x1F5F JUMPI PUSH1 0x0 PUSH2 0x1D73 DUP3 DUP7 PUSH2 0x17A5 SWAP1 SWAP2 SWAP1 PUSH4 0xFFFFFFFF AND JUMP JUMPDEST SWAP1 POP PUSH1 0x0 PUSH2 0x1D8A DUP4 DUP7 PUSH2 0x17A5 SWAP1 SWAP2 SWAP1 PUSH4 0xFFFFFFFF AND JUMP JUMPDEST SWAP1 POP PUSH1 0x0 PUSH20 0xFFFFFFFFFFFFFFFFFFFFFFFFFFFFFFFFFFFFFFFF AND DUP9 PUSH20 0xFFFFFFFFFFFFFFFFFFFFFFFFFFFFFFFFFFFFFFFF AND EQ PUSH2 0x1EB7 JUMPI PUSH1 0x0 DUP1 PUSH1 0x0 DUP5 DUP2 MSTORE PUSH1 0x20 ADD SWAP1 DUP2 MSTORE PUSH1 0x20 ADD PUSH1 0x0 KECCAK256 PUSH1 0x0 DUP11 PUSH20 0xFFFFFFFFFFFFFFFFFFFFFFFFFFFFFFFFFFFFFFFF AND PUSH20 0xFFFFFFFFFFFFFFFFFFFFFFFFFFFFFFFFFFFFFFFF AND DUP2 MSTORE PUSH1 0x20 ADD SWAP1 DUP2 MSTORE PUSH1 0x20 ADD PUSH1 0x0 KECCAK256 SLOAD SWAP1 POP DUP2 DUP2 LT ISZERO PUSH2 0x1E5F JUMPI DUP9 DUP2 DUP4 DUP6 PUSH1 0x40 MLOAD PUSH32 0x3DEE4C500000000000000000000000000000000000000000000000000000000 DUP2 MSTORE PUSH1 0x4 ADD PUSH2 0x1E56 SWAP5 SWAP4 SWAP3 SWAP2 SWAP1 PUSH2 0x3955 JUMP JUMPDEST PUSH1 0x40 MLOAD DUP1 SWAP2 SUB SWAP1 REVERT JUMPDEST DUP2 DUP2 SUB PUSH1 0x0 DUP1 DUP6 DUP2 MSTORE PUSH1 0x20 ADD SWAP1 DUP2 MSTORE PUSH1 0x20 ADD PUSH1 0x0 KECCAK256 PUSH1 0x0 DUP12 PUSH20 0xFFFFFFFFFFFFFFFFFFFFFFFFFFFFFFFFFFFFFFFF AND PUSH20 0xFFFFFFFFFFFFFFFFFFFFFFFFFFFFFFFFFFFFFFFF AND DUP2 MSTORE PUSH1 0x20 ADD SWAP1 DUP2 MSTORE PUSH1 0x20 ADD PUSH1 0x0 KECCAK256 DUP2 SWAP1 SSTORE POP POP JUMPDEST PUSH1 0x0 PUSH20 0xFFFFFFFFFFFFFFFFFFFFFFFFFFFFFFFFFFFFFFFF AND DUP8 PUSH20 0xFFFFFFFFFFFFFFFFFFFFFFFFFFFFFFFFFFFFFFFF AND EQ PUSH2 0x1F52 JUMPI DUP1 PUSH1 0x0 DUP1 DUP5 DUP2 MSTORE PUSH1 0x20 ADD SWAP1 DUP2 MSTORE PUSH1 0x20 ADD PUSH1 0x0 KECCAK256 PUSH1 0x0 DUP10 PUSH20 0xFFFFFFFFFFFFFFFFFFFFFFFFFFFFFFFFFFFFFFFF AND PUSH20 0xFFFFFFFFFFFFFFFFFFFFFFFFFFFFFFFFFFFFFFFF AND DUP2 MSTORE PUSH1 0x20 ADD SWAP1 DUP2 MSTORE PUSH1 0x20 ADD PUSH1 0x0 KECCAK256 PUSH1 0x0 DUP3 DUP3 SLOAD PUSH2 0x1F4A SWAP2 SWAP1 PUSH2 0x321D JUMP JUMPDEST SWAP3 POP POP DUP2 SWAP1 SSTORE POP JUMPDEST POP POP DUP1 PUSH1 0x1 ADD SWAP1 POP PUSH2 0x1D55 JUMP JUMPDEST POP PUSH1 0x1 DUP4 MLOAD SUB PUSH2 0x201E JUMPI PUSH1 0x0 PUSH2 0x1F7F PUSH1 0x0 DUP6 PUSH2 0x17A5 SWAP1 SWAP2 SWAP1 PUSH4 0xFFFFFFFF AND JUMP JUMPDEST SWAP1 POP PUSH1 0x0 PUSH2 0x1F97 PUSH1 0x0 DUP6 PUSH2 0x17A5 SWAP1 SWAP2 SWAP1 PUSH4 0xFFFFFFFF AND JUMP JUMPDEST SWAP1 POP DUP6 PUSH20 0xFFFFFFFFFFFFFFFFFFFFFFFFFFFFFFFFFFFFFFFF AND DUP8 PUSH20 0xFFFFFFFFFFFFFFFFFFFFFFFFFFFFFFFFFFFFFFFF AND DUP5 PUSH20 0xFFFFFFFFFFFFFFFFFFFFFFFFFFFFFFFFFFFFFFFF AND PUSH32 0xC3D58168C5AE7397731D063D5BBF3D657854427343F4C083240F7AACAA2D0F62 DUP6 DUP6 PUSH1 0x40 MLOAD PUSH2 0x200F SWAP3 SWAP2 SWAP1 PUSH2 0x35F0 JUMP JUMPDEST PUSH1 0x40 MLOAD DUP1 SWAP2 SUB SWAP1 LOG4 POP POP PUSH2 0x209D JUMP JUMPDEST DUP4 PUSH20 0xFFFFFFFFFFFFFFFFFFFFFFFFFFFFFFFFFFFFFFFF AND DUP6 PUSH20 0xFFFFFFFFFFFFFFFFFFFFFFFFFFFFFFFFFFFFFFFF AND DUP3 PUSH20 0xFFFFFFFFFFFFFFFFFFFFFFFFFFFFFFFFFFFFFFFF AND PUSH32 0x4A39DC06D4C0DBC64B70AF90FD698A233A518AA5D07E595D983B8C0526C8F7FB DUP7 DUP7 PUSH1 0x40 MLOAD PUSH2 0x2094 SWAP3 SWAP2 SWAP1 PUSH2 0x399A JUMP JUMPDEST PUSH1 0x40 MLOAD DUP1 SWAP2 SUB SWAP1 LOG4 JUMPDEST POP POP POP POP POP JUMP JUMPDEST PUSH1 0x0 DUP5 PUSH20 0xFFFFFFFFFFFFFFFFFFFFFFFFFFFFFFFFFFFFFFFF AND EXTCODESIZE GT ISZERO PUSH2 0x2250 JUMPI DUP4 PUSH20 0xFFFFFFFFFFFFFFFFFFFFFFFFFFFFFFFFFFFFFFFF AND PUSH4 0xF23A6E61 DUP8 DUP8 DUP7 DUP7 DUP7 PUSH1 0x40 MLOAD DUP7 PUSH4 0xFFFFFFFF AND PUSH1 0xE0 SHL DUP2 MSTORE PUSH1 0x4 ADD PUSH2 0x2105 SWAP6 SWAP5 SWAP4 SWAP3 SWAP2 SWAP1 PUSH2 0x3A26 JUMP JUMPDEST PUSH1 0x20 PUSH1 0x40 MLOAD DUP1 DUP4 SUB DUP2 PUSH1 0x0 DUP8 GAS CALL SWAP3 POP POP POP DUP1 ISZERO PUSH2 0x2141 JUMPI POP PUSH1 0x40 MLOAD RETURNDATASIZE PUSH1 0x1F NOT PUSH1 0x1F DUP3 ADD AND DUP3 ADD DUP1 PUSH1 0x40 MSTORE POP DUP2 ADD SWAP1 PUSH2 0x213E SWAP2 SWAP1 PUSH2 0x3A95 JUMP JUMPDEST PUSH1 0x1 JUMPDEST PUSH2 0x21C5 JUMPI RETURNDATASIZE DUP1 PUSH1 0x0 DUP2 EQ PUSH2 0x2171 JUMPI PUSH1 0x40 MLOAD SWAP2 POP PUSH1 0x1F NOT PUSH1 0x3F RETURNDATASIZE ADD AND DUP3 ADD PUSH1 0x40 MSTORE RETURNDATASIZE DUP3 MSTORE RETURNDATASIZE PUSH1 0x0 PUSH1 0x20 DUP5 ADD RETURNDATACOPY PUSH2 0x2176 JUMP JUMPDEST PUSH1 0x60 SWAP2 POP JUMPDEST POP PUSH1 0x0 DUP2 MLOAD SUB PUSH2 0x21BD JUMPI DUP5 PUSH1 0x40 MLOAD PUSH32 0x57F447CE00000000000000000000000000000000000000000000000000000000 DUP2 MSTORE PUSH1 0x4 ADD PUSH2 0x21B4 SWAP2 SWAP1 PUSH2 0x2FC8 JUMP JUMPDEST PUSH1 0x40 MLOAD DUP1 SWAP2 SUB SWAP1 REVERT JUMPDEST DUP1 MLOAD PUSH1 0x20 DUP3 ADD REVERT JUMPDEST PUSH4 0xF23A6E61 PUSH1 0xE0 SHL PUSH28 0xFFFFFFFFFFFFFFFFFFFFFFFFFFFFFFFFFFFFFFFFFFFFFFFFFFFFFFFF NOT AND DUP2 PUSH28 0xFFFFFFFFFFFFFFFFFFFFFFFFFFFFFFFFFFFFFFFFFFFFFFFFFFFFFFFF NOT AND EQ PUSH2 0x224E JUMPI DUP5 PUSH1 0x40 MLOAD PUSH32 0x57F447CE00000000000000000000000000000000000000000000000000000000 DUP2 MSTORE PUSH1 0x4 ADD PUSH2 0x2245 SWAP2 SWAP1 PUSH2 0x2FC8 JUMP JUMPDEST PUSH1 0x40 MLOAD DUP1 SWAP2 SUB SWAP1 REVERT JUMPDEST POP JUMPDEST POP POP POP POP POP POP JUMP JUMPDEST PUSH1 0x0 DUP5 PUSH20 0xFFFFFFFFFFFFFFFFFFFFFFFFFFFFFFFFFFFFFFFF AND EXTCODESIZE GT ISZERO PUSH2 0x2404 JUMPI DUP4 PUSH20 0xFFFFFFFFFFFFFFFFFFFFFFFFFFFFFFFFFFFFFFFF AND PUSH4 0xBC197C81 DUP8 DUP8 DUP7 DUP7 DUP7 PUSH1 0x40 MLOAD DUP7 PUSH4 0xFFFFFFFF AND PUSH1 0xE0 SHL DUP2 MSTORE PUSH1 0x4 ADD PUSH2 0x22B9 SWAP6 SWAP5 SWAP4 SWAP3 SWAP2 SWAP1 PUSH2 0x3AC2 JUMP JUMPDEST PUSH1 0x20 PUSH1 0x40 MLOAD DUP1 DUP4 SUB DUP2 PUSH1 0x0 DUP8 GAS CALL SWAP3 POP POP POP DUP1 ISZERO PUSH2 0x22F5 JUMPI POP PUSH1 0x40 MLOAD RETURNDATASIZE PUSH1 0x1F NOT PUSH1 0x1F DUP3 ADD AND DUP3 ADD DUP1 PUSH1 0x40 MSTORE POP DUP2 ADD SWAP1 PUSH2 0x22F2 SWAP2 SWAP1 PUSH2 0x3A95 JUMP JUMPDEST PUSH1 0x1 JUMPDEST PUSH2 0x2379 JUMPI RETURNDATASIZE DUP1 PUSH1 0x0 DUP2 EQ PUSH2 0x2325 JUMPI PUSH1 0x40 MLOAD SWAP2 POP PUSH1 0x1F NOT PUSH1 0x3F RETURNDATASIZE ADD AND DUP3 ADD PUSH1 0x40 MSTORE RETURNDATASIZE DUP3 MSTORE RETURNDATASIZE PUSH1 0x0 PUSH1 0x20 DUP5 ADD RETURNDATACOPY PUSH2 0x232A JUMP JUMPDEST PUSH1 0x60 SWAP2 POP JUMPDEST POP PUSH1 0x0 DUP2 MLOAD SUB PUSH2 0x2371 JUMPI DUP5 PUSH1 0x40 MLOAD PUSH32 0x57F447CE00000000000000000000000000000000000000000000000000000000 DUP2 MSTORE PUSH1 0x4 ADD PUSH2 0x2368 SWAP2 SWAP1 PUSH2 0x2FC8 JUMP JUMPDEST PUSH1 0x40 MLOAD DUP1 SWAP2 SUB SWAP1 REVERT JUMPDEST DUP1 MLOAD PUSH1 0x20 DUP3 ADD REVERT JUMPDEST PUSH4 0xBC197C81 PUSH1 0xE0 SHL PUSH28 0xFFFFFFFFFFFFFFFFFFFFFFFFFFFFFFFFFFFFFFFFFFFFFFFFFFFFFFFF NOT AND DUP2 PUSH28 0xFFFFFFFFFFFFFFFFFFFFFFFFFFFFFFFFFFFFFFFFFFFFFFFFFFFFFFFF NOT AND EQ PUSH2 0x2402 JUMPI DUP5 PUSH1 0x40 MLOAD PUSH32 0x57F447CE00000000000000000000000000000000000000000000000000000000 DUP2 MSTORE PUSH1 0x4 ADD PUSH2 0x23F9 SWAP2 SWAP1 PUSH2 0x2FC8 JUMP JUMPDEST PUSH1 0x40 MLOAD DUP1 SWAP2 SUB SWAP1 REVERT JUMPDEST POP JUMPDEST POP POP POP POP POP POP JUMP JUMPDEST DUP3 DUP1 SLOAD DUP3 DUP3 SSTORE SWAP1 PUSH1 0x0 MSTORE PUSH1 0x20 PUSH1 0x0 KECCAK256 SWAP1 DUP2 ADD SWAP3 DUP3 ISZERO PUSH2 0x2448 JUMPI SWAP2 PUSH1 0x20 MUL DUP3 ADD JUMPDEST DUP3 DUP2 GT ISZERO PUSH2 0x2447 JUMPI DUP3 CALLDATALOAD DUP3 SSTORE SWAP2 PUSH1 0x20 ADD SWAP2 SWAP1 PUSH1 0x1 ADD SWAP1 PUSH2 0x242C JUMP JUMPDEST JUMPDEST POP SWAP1 POP PUSH2 0x2455 SWAP2 SWAP1 PUSH2 0x24A6 JUMP JUMPDEST POP SWAP1 JUMP JUMPDEST DUP3 DUP1 SLOAD DUP3 DUP3 SSTORE SWAP1 PUSH1 0x0 MSTORE PUSH1 0x20 PUSH1 0x0 KECCAK256 SWAP1 DUP2 ADD SWAP3 DUP3 ISZERO PUSH2 0x2495 JUMPI SWAP2 PUSH1 0x20 MUL DUP3 ADD JUMPDEST DUP3 DUP2 GT ISZERO PUSH2 0x2494 JUMPI DUP3 MLOAD DUP3 SSTORE SWAP2 PUSH1 0x20 ADD SWAP2 SWAP1 PUSH1 0x1 ADD SWAP1 PUSH2 0x2479 JUMP JUMPDEST JUMPDEST POP SWAP1 POP PUSH2 0x24A2 SWAP2 SWAP1 PUSH2 0x24A6 JUMP JUMPDEST POP SWAP1 JUMP JUMPDEST JUMPDEST DUP1 DUP3 GT ISZERO PUSH2 0x24BF JUMPI PUSH1 0x0 DUP2 PUSH1 0x0 SWAP1 SSTORE POP PUSH1 0x1 ADD PUSH2 0x24A7 JUMP JUMPDEST POP SWAP1 JUMP JUMPDEST PUSH1 0x0 PUSH1 0x40 MLOAD SWAP1 POP SWAP1 JUMP JUMPDEST PUSH1 0x0 DUP1 REVERT JUMPDEST PUSH1 0x0 DUP1 REVERT JUMPDEST PUSH1 0x0 PUSH20 0xFFFFFFFFFFFFFFFFFFFFFFFFFFFFFFFFFFFFFFFF DUP3 AND SWAP1 POP SWAP2 SWAP1 POP JUMP JUMPDEST PUSH1 0x0 PUSH2 0x2502 DUP3 PUSH2 0x24D7 JUMP JUMPDEST SWAP1 POP SWAP2 SWAP1 POP JUMP JUMPDEST PUSH2 0x2512 DUP2 PUSH2 0x24F7 JUMP JUMPDEST DUP2 EQ PUSH2 0x251D JUMPI PUSH1 0x0 DUP1 REVERT JUMPDEST POP JUMP JUMPDEST PUSH1 0x0 DUP2 CALLDATALOAD SWAP1 POP PUSH2 0x252F DUP2 PUSH2 0x2509 JUMP JUMPDEST SWAP3 SWAP2 POP POP JUMP JUMPDEST PUSH1 0x0 DUP2 SWAP1 POP SWAP2 SWAP1 POP JUMP JUMPDEST PUSH2 0x2548 DUP2 PUSH2 0x2535 JUMP JUMPDEST DUP2 EQ PUSH2 0x2553 JUMPI PUSH1 0x0 DUP1 REVERT JUMPDEST POP JUMP JUMPDEST PUSH1 0x0 DUP2 CALLDATALOAD SWAP1 POP PUSH2 0x2565 DUP2 PUSH2 0x253F JUMP JUMPDEST SWAP3 SWAP2 POP POP JUMP JUMPDEST PUSH1 0x0 DUP1 PUSH1 0x40 DUP4 DUP6 SUB SLT ISZERO PUSH2 0x2582 JUMPI PUSH2 0x2581 PUSH2 0x24CD JUMP JUMPDEST JUMPDEST PUSH1 0x0 PUSH2 0x2590 DUP6 DUP3 DUP7 ADD PUSH2 0x2520 JUMP JUMPDEST SWAP3 POP POP PUSH1 0x20 PUSH2 0x25A1 DUP6 DUP3 DUP7 ADD PUSH2 0x2556 JUMP JUMPDEST SWAP2 POP POP SWAP3 POP SWAP3 SWAP1 POP JUMP JUMPDEST PUSH2 0x25B4 DUP2 PUSH2 0x2535 JUMP JUMPDEST DUP3 MSTORE POP POP JUMP JUMPDEST PUSH1 0x0 PUSH1 0x20 DUP3 ADD SWAP1 POP PUSH2 0x25CF PUSH1 0x0 DUP4 ADD DUP5 PUSH2 0x25AB JUMP JUMPDEST SWAP3 SWAP2 POP POP JUMP JUMPDEST PUSH1 0x0 DUP2 SWAP1 POP SWAP2 SWAP1 POP JUMP JUMPDEST PUSH2 0x25E8 DUP2 PUSH2 0x25D5 JUMP JUMPDEST DUP2 EQ PUSH2 0x25F3 JUMPI PUSH1 0x0 DUP1 REVERT JUMPDEST POP JUMP JUMPDEST PUSH1 0x0 DUP2 CALLDATALOAD SWAP1 POP PUSH2 0x2605 DUP2 PUSH2 0x25DF JUMP JUMPDEST SWAP3 SWAP2 POP POP JUMP JUMPDEST PUSH1 0x0 DUP1 REVERT JUMPDEST PUSH1 0x0 DUP1 REVERT JUMPDEST PUSH1 0x0 DUP1 REVERT JUMPDEST PUSH1 0x0 DUP1 DUP4 PUSH1 0x1F DUP5 ADD SLT PUSH2 0x2630 JUMPI PUSH2 0x262F PUSH2 0x260B JUMP JUMPDEST JUMPDEST DUP3 CALLDATALOAD SWAP1 POP PUSH8 0xFFFFFFFFFFFFFFFF DUP2 GT ISZERO PUSH2 0x264D JUMPI PUSH2 0x264C PUSH2 0x2610 JUMP JUMPDEST JUMPDEST PUSH1 0x20 DUP4 ADD SWAP2 POP DUP4 PUSH1 0x20 DUP3 MUL DUP4 ADD GT ISZERO PUSH2 0x2669 JUMPI PUSH2 0x2668 PUSH2 0x2615 JUMP JUMPDEST JUMPDEST SWAP3 POP SWAP3 SWAP1 POP JUMP JUMPDEST PUSH1 0x0 DUP1 PUSH1 0x0 DUP1 PUSH1 0x0 PUSH1 0x80 DUP7 DUP9 SUB SLT ISZERO PUSH2 0x268C JUMPI PUSH2 0x268B PUSH2 0x24CD JUMP JUMPDEST JUMPDEST PUSH1 0x0 PUSH2 0x269A DUP9 DUP3 DUP10 ADD PUSH2 0x2520 JUMP JUMPDEST SWAP6 POP POP PUSH1 0x20 PUSH2 0x26AB DUP9 DUP3 DUP10 ADD PUSH2 0x25F6 JUMP JUMPDEST SWAP5 POP POP PUSH1 0x40 PUSH2 0x26BC DUP9 DUP3 DUP10 ADD PUSH2 0x25F6 JUMP JUMPDEST SWAP4 POP POP PUSH1 0x60 DUP7 ADD CALLDATALOAD PUSH8 0xFFFFFFFFFFFFFFFF DUP2 GT ISZERO PUSH2 0x26DD JUMPI PUSH2 0x26DC PUSH2 0x24D2 JUMP JUMPDEST JUMPDEST PUSH2 0x26E9 DUP9 DUP3 DUP10 ADD PUSH2 0x261A JUMP JUMPDEST SWAP3 POP SWAP3 POP POP SWAP3 SWAP6 POP SWAP3 SWAP6 SWAP1 SWAP4 POP JUMP JUMPDEST PUSH1 0x0 PUSH32 0xFFFFFFFF00000000000000000000000000000000000000000000000000000000 DUP3 AND SWAP1 POP SWAP2 SWAP1 POP JUMP JUMPDEST PUSH2 0x272D DUP2 PUSH2 0x26F8 JUMP JUMPDEST DUP2 EQ PUSH2 0x2738 JUMPI PUSH1 0x0 DUP1 REVERT JUMPDEST POP JUMP JUMPDEST PUSH1 0x0 DUP2 CALLDATALOAD SWAP1 POP PUSH2 0x274A DUP2 PUSH2 0x2724 JUMP JUMPDEST SWAP3 SWAP2 POP POP JUMP JUMPDEST PUSH1 0x0 PUSH1 0x20 DUP3 DUP5 SUB SLT ISZERO PUSH2 0x2766 JUMPI PUSH2 0x2765 PUSH2 0x24CD JUMP JUMPDEST JUMPDEST PUSH1 0x0 PUSH2 0x2774 DUP5 DUP3 DUP6 ADD PUSH2 0x273B JUMP JUMPDEST SWAP2 POP POP SWAP3 SWAP2 POP POP JUMP JUMPDEST PUSH1 0x0 DUP2 ISZERO ISZERO SWAP1 POP SWAP2 SWAP1 POP JUMP JUMPDEST PUSH2 0x2792 DUP2 PUSH2 0x277D JUMP JUMPDEST DUP3 MSTORE POP POP JUMP JUMPDEST PUSH1 0x0 PUSH1 0x20 DUP3 ADD SWAP1 POP PUSH2 0x27AD PUSH1 0x0 DUP4 ADD DUP5 PUSH2 0x2789 JUMP JUMPDEST SWAP3 SWAP2 POP POP JUMP JUMPDEST PUSH1 0x0 DUP1 PUSH1 0x40 DUP4 DUP6 SUB SLT ISZERO PUSH2 0x27CA JUMPI PUSH2 0x27C9 PUSH2 0x24CD JUMP JUMPDEST JUMPDEST PUSH1 0x0 PUSH2 0x27D8 DUP6 DUP3 DUP7 ADD PUSH2 0x25F6 JUMP JUMPDEST SWAP3 POP POP PUSH1 0x20 PUSH2 0x27E9 DUP6 DUP3 DUP7 ADD PUSH2 0x2556 JUMP JUMPDEST SWAP2 POP POP SWAP3 POP SWAP3 SWAP1 POP JUMP JUMPDEST PUSH1 0x0 PUSH1 0x20 DUP3 DUP5 SUB SLT ISZERO PUSH2 0x2809 JUMPI PUSH2 0x2808 PUSH2 0x24CD JUMP JUMPDEST JUMPDEST PUSH1 0x0 PUSH2 0x2817 DUP5 DUP3 DUP6 ADD PUSH2 0x2556 JUMP JUMPDEST SWAP2 POP POP SWAP3 SWAP2 POP POP JUMP JUMPDEST PUSH1 0x0 DUP2 MLOAD SWAP1 POP SWAP2 SWAP1 POP JUMP JUMPDEST PUSH1 0x0 DUP3 DUP3 MSTORE PUSH1 0x20 DUP3 ADD SWAP1 POP SWAP3 SWAP2 POP POP JUMP JUMPDEST PUSH1 0x0 JUMPDEST DUP4 DUP2 LT ISZERO PUSH2 0x285A JUMPI DUP1 DUP3 ADD MLOAD DUP2 DUP5 ADD MSTORE PUSH1 0x20 DUP2 ADD SWAP1 POP PUSH2 0x283F JUMP JUMPDEST PUSH1 0x0 DUP5 DUP5 ADD MSTORE POP POP POP POP JUMP JUMPDEST PUSH1 0x0 PUSH1 0x1F NOT PUSH1 0x1F DUP4 ADD AND SWAP1 POP SWAP2 SWAP1 POP JUMP JUMPDEST PUSH1 0x0 PUSH2 0x2882 DUP3 PUSH2 0x2820 JUMP JUMPDEST PUSH2 0x288C DUP2 DUP6 PUSH2 0x282B JUMP JUMPDEST SWAP4 POP PUSH2 0x289C DUP2 DUP6 PUSH1 0x20 DUP7 ADD PUSH2 0x283C JUMP JUMPDEST PUSH2 0x28A5 DUP2 PUSH2 0x2866 JUMP JUMPDEST DUP5 ADD SWAP2 POP POP SWAP3 SWAP2 POP POP JUMP JUMPDEST PUSH1 0x0 PUSH1 0x20 DUP3 ADD SWAP1 POP DUP2 DUP2 SUB PUSH1 0x0 DUP4 ADD MSTORE PUSH2 0x28CA DUP2 DUP5 PUSH2 0x2877 JUMP JUMPDEST SWAP1 POP SWAP3 SWAP2 POP POP JUMP JUMPDEST PUSH32 0x4E487B7100000000000000000000000000000000000000000000000000000000 PUSH1 0x0 MSTORE PUSH1 0x41 PUSH1 0x4 MSTORE PUSH1 0x24 PUSH1 0x0 REVERT JUMPDEST PUSH2 0x290A DUP3 PUSH2 0x2866 JUMP JUMPDEST DUP2 ADD DUP2 DUP2 LT PUSH8 0xFFFFFFFFFFFFFFFF DUP3 GT OR ISZERO PUSH2 0x2929 JUMPI PUSH2 0x2928 PUSH2 0x28D2 JUMP JUMPDEST JUMPDEST DUP1 PUSH1 0x40 MSTORE POP POP POP JUMP JUMPDEST PUSH1 0x0 PUSH2 0x293C PUSH2 0x24C3 JUMP JUMPDEST SWAP1 POP PUSH2 0x2948 DUP3 DUP3 PUSH2 0x2901 JUMP JUMPDEST SWAP2 SWAP1 POP JUMP JUMPDEST PUSH1 0x0 PUSH8 0xFFFFFFFFFFFFFFFF DUP3 GT ISZERO PUSH2 0x2968 JUMPI PUSH2 0x2967 PUSH2 0x28D2 JUMP JUMPDEST JUMPDEST PUSH1 0x20 DUP3 MUL SWAP1 POP PUSH1 0x20 DUP2 ADD SWAP1 POP SWAP2 SWAP1 POP JUMP JUMPDEST PUSH1 0x0 PUSH2 0x298C PUSH2 0x2987 DUP5 PUSH2 0x294D JUMP JUMPDEST PUSH2 0x2932 JUMP JUMPDEST SWAP1 POP DUP1 DUP4 DUP3 MSTORE PUSH1 0x20 DUP3 ADD SWAP1 POP PUSH1 0x20 DUP5 MUL DUP4 ADD DUP6 DUP2 GT ISZERO PUSH2 0x29AF JUMPI PUSH2 0x29AE PUSH2 0x2615 JUMP JUMPDEST JUMPDEST DUP4 JUMPDEST DUP2 DUP2 LT ISZERO PUSH2 0x29D8 JUMPI DUP1 PUSH2 0x29C4 DUP9 DUP3 PUSH2 0x2556 JUMP JUMPDEST DUP5 MSTORE PUSH1 0x20 DUP5 ADD SWAP4 POP POP PUSH1 0x20 DUP2 ADD SWAP1 POP PUSH2 0x29B1 JUMP JUMPDEST POP POP POP SWAP4 SWAP3 POP POP POP JUMP JUMPDEST PUSH1 0x0 DUP3 PUSH1 0x1F DUP4 ADD SLT PUSH2 0x29F7 JUMPI PUSH2 0x29F6 PUSH2 0x260B JUMP JUMPDEST JUMPDEST DUP2 CALLDATALOAD PUSH2 0x2A07 DUP5 DUP3 PUSH1 0x20 DUP7 ADD PUSH2 0x2979 JUMP JUMPDEST SWAP2 POP POP SWAP3 SWAP2 POP POP JUMP JUMPDEST PUSH1 0x0 DUP1 REVERT JUMPDEST PUSH1 0x0 PUSH8 0xFFFFFFFFFFFFFFFF DUP3 GT ISZERO PUSH2 0x2A30 JUMPI PUSH2 0x2A2F PUSH2 0x28D2 JUMP JUMPDEST JUMPDEST PUSH2 0x2A39 DUP3 PUSH2 0x2866 JUMP JUMPDEST SWAP1 POP PUSH1 0x20 DUP2 ADD SWAP1 POP SWAP2 SWAP1 POP JUMP JUMPDEST DUP3 DUP2 DUP4 CALLDATACOPY PUSH1 0x0 DUP4 DUP4 ADD MSTORE POP POP POP JUMP JUMPDEST PUSH1 0x0 PUSH2 0x2A68 PUSH2 0x2A63 DUP5 PUSH2 0x2A15 JUMP JUMPDEST PUSH2 0x2932 JUMP JUMPDEST SWAP1 POP DUP3 DUP2 MSTORE PUSH1 0x20 DUP2 ADD DUP5 DUP5 DUP5 ADD GT ISZERO PUSH2 0x2A84 JUMPI PUSH2 0x2A83 PUSH2 0x2A10 JUMP JUMPDEST JUMPDEST PUSH2 0x2A8F DUP5 DUP3 DUP6 PUSH2 0x2A46 JUMP JUMPDEST POP SWAP4 SWAP3 POP POP POP JUMP JUMPDEST PUSH1 0x0 DUP3 PUSH1 0x1F DUP4 ADD SLT PUSH2 0x2AAC JUMPI PUSH2 0x2AAB PUSH2 0x260B JUMP JUMPDEST JUMPDEST DUP2 CALLDATALOAD PUSH2 0x2ABC DUP5 DUP3 PUSH1 0x20 DUP7 ADD PUSH2 0x2A55 JUMP JUMPDEST SWAP2 POP POP SWAP3 SWAP2 POP POP JUMP JUMPDEST PUSH1 0x0 DUP1 PUSH1 0x0 DUP1 PUSH1 0x0 PUSH1 0xA0 DUP7 DUP9 SUB SLT ISZERO PUSH2 0x2AE1 JUMPI PUSH2 0x2AE0 PUSH2 0x24CD JUMP JUMPDEST JUMPDEST PUSH1 0x0 PUSH2 0x2AEF DUP9 DUP3 DUP10 ADD PUSH2 0x2520 JUMP JUMPDEST SWAP6 POP POP PUSH1 0x20 PUSH2 0x2B00 DUP9 DUP3 DUP10 ADD PUSH2 0x2520 JUMP JUMPDEST SWAP5 POP POP PUSH1 0x40 DUP7 ADD CALLDATALOAD PUSH8 0xFFFFFFFFFFFFFFFF DUP2 GT ISZERO PUSH2 0x2B21 JUMPI PUSH2 0x2B20 PUSH2 0x24D2 JUMP JUMPDEST JUMPDEST PUSH2 0x2B2D DUP9 DUP3 DUP10 ADD PUSH2 0x29E2 JUMP JUMPDEST SWAP4 POP POP PUSH1 0x60 DUP7 ADD CALLDATALOAD PUSH8 0xFFFFFFFFFFFFFFFF DUP2 GT ISZERO PUSH2 0x2B4E JUMPI PUSH2 0x2B4D PUSH2 0x24D2 JUMP JUMPDEST JUMPDEST PUSH2 0x2B5A DUP9 DUP3 DUP10 ADD PUSH2 0x29E2 JUMP JUMPDEST SWAP3 POP POP PUSH1 0x80 DUP7 ADD CALLDATALOAD PUSH8 0xFFFFFFFFFFFFFFFF DUP2 GT ISZERO PUSH2 0x2B7B JUMPI PUSH2 0x2B7A PUSH2 0x24D2 JUMP JUMPDEST JUMPDEST PUSH2 0x2B87 DUP9 DUP3 DUP10 ADD PUSH2 0x2A97 JUMP JUMPDEST SWAP2 POP POP SWAP3 SWAP6 POP SWAP3 SWAP6 SWAP1 SWAP4 POP JUMP JUMPDEST PUSH1 0x0 DUP1 PUSH1 0x40 DUP4 DUP6 SUB SLT ISZERO PUSH2 0x2BAB JUMPI PUSH2 0x2BAA PUSH2 0x24CD JUMP JUMPDEST JUMPDEST PUSH1 0x0 PUSH2 0x2BB9 DUP6 DUP3 DUP7 ADD PUSH2 0x2520 JUMP JUMPDEST SWAP3 POP POP PUSH1 0x20 PUSH2 0x2BCA DUP6 DUP3 DUP7 ADD PUSH2 0x25F6 JUMP JUMPDEST SWAP2 POP POP SWAP3 POP SWAP3 SWAP1 POP JUMP JUMPDEST PUSH1 0x0 PUSH8 0xFFFFFFFFFFFFFFFF DUP3 GT ISZERO PUSH2 0x2BEF JUMPI PUSH2 0x2BEE PUSH2 0x28D2 JUMP JUMPDEST JUMPDEST PUSH1 0x20 DUP3 MUL SWAP1 POP PUSH1 0x20 DUP2 ADD SWAP1 POP SWAP2 SWAP1 POP JUMP JUMPDEST PUSH1 0x0 PUSH2 0x2C13 PUSH2 0x2C0E DUP5 PUSH2 0x2BD4 JUMP JUMPDEST PUSH2 0x2932 JUMP JUMPDEST SWAP1 POP DUP1 DUP4 DUP3 MSTORE PUSH1 0x20 DUP3 ADD SWAP1 POP PUSH1 0x20 DUP5 MUL DUP4 ADD DUP6 DUP2 GT ISZERO PUSH2 0x2C36 JUMPI PUSH2 0x2C35 PUSH2 0x2615 JUMP JUMPDEST JUMPDEST DUP4 JUMPDEST DUP2 DUP2 LT ISZERO PUSH2 0x2C5F JUMPI DUP1 PUSH2 0x2C4B DUP9 DUP3 PUSH2 0x2520 JUMP JUMPDEST DUP5 MSTORE PUSH1 0x20 DUP5 ADD SWAP4 POP POP PUSH1 0x20 DUP2 ADD SWAP1 POP PUSH2 0x2C38 JUMP JUMPDEST POP POP POP SWAP4 SWAP3 POP POP POP JUMP JUMPDEST PUSH1 0x0 DUP3 PUSH1 0x1F DUP4 ADD SLT PUSH2 0x2C7E JUMPI PUSH2 0x2C7D PUSH2 0x260B JUMP JUMPDEST JUMPDEST DUP2 CALLDATALOAD PUSH2 0x2C8E DUP5 DUP3 PUSH1 0x20 DUP7 ADD PUSH2 0x2C00 JUMP JUMPDEST SWAP2 POP POP SWAP3 SWAP2 POP POP JUMP JUMPDEST PUSH1 0x0 DUP1 PUSH1 0x40 DUP4 DUP6 SUB SLT ISZERO PUSH2 0x2CAE JUMPI PUSH2 0x2CAD PUSH2 0x24CD JUMP JUMPDEST JUMPDEST PUSH1 0x0 DUP4 ADD CALLDATALOAD PUSH8 0xFFFFFFFFFFFFFFFF DUP2 GT ISZERO PUSH2 0x2CCC JUMPI PUSH2 0x2CCB PUSH2 0x24D2 JUMP JUMPDEST JUMPDEST PUSH2 0x2CD8 DUP6 DUP3 DUP7 ADD PUSH2 0x2C69 JUMP JUMPDEST SWAP3 POP POP PUSH1 0x20 DUP4 ADD CALLDATALOAD PUSH8 0xFFFFFFFFFFFFFFFF DUP2 GT ISZERO PUSH2 0x2CF9 JUMPI PUSH2 0x2CF8 PUSH2 0x24D2 JUMP JUMPDEST JUMPDEST PUSH2 0x2D05 DUP6 DUP3 DUP7 ADD PUSH2 0x29E2 JUMP JUMPDEST SWAP2 POP POP SWAP3 POP SWAP3 SWAP1 POP JUMP JUMPDEST PUSH1 0x0 DUP2 MLOAD SWAP1 POP SWAP2 SWAP1 POP JUMP JUMPDEST PUSH1 0x0 DUP3 DUP3 MSTORE PUSH1 0x20 DUP3 ADD SWAP1 POP SWAP3 SWAP2 POP POP JUMP JUMPDEST PUSH1 0x0 DUP2 SWAP1 POP PUSH1 0x20 DUP3 ADD SWAP1 POP SWAP2 SWAP1 POP JUMP JUMPDEST PUSH2 0x2D44 DUP2 PUSH2 0x2535 JUMP JUMPDEST DUP3 MSTORE POP POP JUMP JUMPDEST PUSH1 0x0 PUSH2 0x2D56 DUP4 DUP4 PUSH2 0x2D3B JUMP JUMPDEST PUSH1 0x20 DUP4 ADD SWAP1 POP SWAP3 SWAP2 POP POP JUMP JUMPDEST PUSH1 0x0 PUSH1 0x20 DUP3 ADD SWAP1 POP SWAP2 SWAP1 POP JUMP JUMPDEST PUSH1 0x0 PUSH2 0x2D7A DUP3 PUSH2 0x2D0F JUMP JUMPDEST PUSH2 0x2D84 DUP2 DUP6 PUSH2 0x2D1A JUMP JUMPDEST SWAP4 POP PUSH2 0x2D8F DUP4 PUSH2 0x2D2B JUMP JUMPDEST DUP1 PUSH1 0x0 JUMPDEST DUP4 DUP2 LT ISZERO PUSH2 0x2DC0 JUMPI DUP2 MLOAD PUSH2 0x2DA7 DUP9 DUP3 PUSH2 0x2D4A JUMP JUMPDEST SWAP8 POP PUSH2 0x2DB2 DUP4 PUSH2 0x2D62 JUMP JUMPDEST SWAP3 POP POP PUSH1 0x1 DUP2 ADD SWAP1 POP PUSH2 0x2D93 JUMP JUMPDEST POP DUP6 SWAP4 POP POP POP POP SWAP3 SWAP2 POP POP JUMP JUMPDEST PUSH1 0x0 PUSH1 0x20 DUP3 ADD SWAP1 POP DUP2 DUP2 SUB PUSH1 0x0 DUP4 ADD MSTORE PUSH2 0x2DE7 DUP2 DUP5 PUSH2 0x2D6F JUMP JUMPDEST SWAP1 POP SWAP3 SWAP2 POP POP JUMP JUMPDEST PUSH1 0x0 DUP1 PUSH1 0x0 DUP1 PUSH1 0x0 DUP1 PUSH1 0xA0 DUP8 DUP10 SUB SLT ISZERO PUSH2 0x2E0C JUMPI PUSH2 0x2E0B PUSH2 0x24CD JUMP JUMPDEST JUMPDEST PUSH1 0x0 PUSH2 0x2E1A DUP10 DUP3 DUP11 ADD PUSH2 0x2520 JUMP JUMPDEST SWAP7 POP POP PUSH1 0x20 PUSH2 0x2E2B DUP10 DUP3 DUP11 ADD PUSH2 0x25F6 JUMP JUMPDEST SWAP6 POP POP PUSH1 0x40 PUSH2 0x2E3C DUP10 DUP3 DUP11 ADD PUSH2 0x25F6 JUMP JUMPDEST SWAP5 POP POP PUSH1 0x60 DUP8 ADD CALLDATALOAD PUSH8 0xFFFFFFFFFFFFFFFF DUP2 GT ISZERO PUSH2 0x2E5D JUMPI PUSH2 0x2E5C PUSH2 0x24D2 JUMP JUMPDEST JUMPDEST PUSH2 0x2E69 DUP10 DUP3 DUP11 ADD PUSH2 0x261A JUMP JUMPDEST SWAP4 POP SWAP4 POP POP PUSH1 0x80 PUSH2 0x2E7C DUP10 DUP3 DUP11 ADD PUSH2 0x2556 JUMP JUMPDEST SWAP2 POP POP SWAP3 SWAP6 POP SWAP3 SWAP6 POP SWAP3 SWAP6 JUMP JUMPDEST PUSH1 0x0 DUP1 PUSH1 0x0 PUSH1 0x40 DUP5 DUP7 SUB SLT ISZERO PUSH2 0x2EA2 JUMPI PUSH2 0x2EA1 PUSH2 0x24CD JUMP JUMPDEST JUMPDEST PUSH1 0x0 PUSH2 0x2EB0 DUP7 DUP3 DUP8 ADD PUSH2 0x25F6 JUMP JUMPDEST SWAP4 POP POP PUSH1 0x20 DUP5 ADD CALLDATALOAD PUSH8 0xFFFFFFFFFFFFFFFF DUP2 GT ISZERO PUSH2 0x2ED1 JUMPI PUSH2 0x2ED0 PUSH2 0x24D2 JUMP JUMPDEST JUMPDEST PUSH2 0x2EDD DUP7 DUP3 DUP8 ADD PUSH2 0x261A JUMP JUMPDEST SWAP3 POP SWAP3 POP POP SWAP3 POP SWAP3 POP SWAP3 JUMP JUMPDEST PUSH1 0x0 DUP1 PUSH1 0x0 PUSH1 0x60 DUP5 DUP7 SUB SLT ISZERO PUSH2 0x2F02 JUMPI PUSH2 0x2F01 PUSH2 0x24CD JUMP JUMPDEST JUMPDEST PUSH1 0x0 PUSH2 0x2F10 DUP7 DUP3 DUP8 ADD PUSH2 0x2520 JUMP JUMPDEST SWAP4 POP POP PUSH1 0x20 PUSH2 0x2F21 DUP7 DUP3 DUP8 ADD PUSH2 0x25F6 JUMP JUMPDEST SWAP3 POP POP PUSH1 0x40 PUSH2 0x2F32 DUP7 DUP3 DUP8 ADD PUSH2 0x2556 JUMP JUMPDEST SWAP2 POP POP SWAP3 POP SWAP3 POP SWAP3 JUMP JUMPDEST PUSH2 0x2F45 DUP2 PUSH2 0x25D5 JUMP JUMPDEST DUP3 MSTORE POP POP JUMP JUMPDEST PUSH1 0x0 PUSH1 0x20 DUP3 ADD SWAP1 POP PUSH2 0x2F60 PUSH1 0x0 DUP4 ADD DUP5 PUSH2 0x2F3C JUMP JUMPDEST SWAP3 SWAP2 POP POP JUMP JUMPDEST PUSH1 0x0 DUP1 PUSH1 0x0 PUSH1 0x60 DUP5 DUP7 SUB SLT ISZERO PUSH2 0x2F7F JUMPI PUSH2 0x2F7E PUSH2 0x24CD JUMP JUMPDEST JUMPDEST PUSH1 0x0 PUSH2 0x2F8D DUP7 DUP3 DUP8 ADD PUSH2 0x25F6 JUMP JUMPDEST SWAP4 POP POP PUSH1 0x20 PUSH2 0x2F9E DUP7 DUP3 DUP8 ADD PUSH2 0x25F6 JUMP JUMPDEST SWAP3 POP POP PUSH1 0x40 PUSH2 0x2FAF DUP7 DUP3 DUP8 ADD PUSH2 0x2556 JUMP JUMPDEST SWAP2 POP POP SWAP3 POP SWAP3 POP SWAP3 JUMP JUMPDEST PUSH2 0x2FC2 DUP2 PUSH2 0x24F7 JUMP JUMPDEST DUP3 MSTORE POP POP JUMP JUMPDEST PUSH1 0x0 PUSH1 0x20 DUP3 ADD SWAP1 POP PUSH2 0x2FDD PUSH1 0x0 DUP4 ADD DUP5 PUSH2 0x2FB9 JUMP JUMPDEST SWAP3 SWAP2 POP POP JUMP JUMPDEST PUSH2 0x2FEC DUP2 PUSH2 0x277D JUMP JUMPDEST DUP2 EQ PUSH2 0x2FF7 JUMPI PUSH1 0x0 DUP1 REVERT JUMPDEST POP JUMP JUMPDEST PUSH1 0x0 DUP2 CALLDATALOAD SWAP1 POP PUSH2 0x3009 DUP2 PUSH2 0x2FE3 JUMP JUMPDEST SWAP3 SWAP2 POP POP JUMP JUMPDEST PUSH1 0x0 DUP1 PUSH1 0x40 DUP4 DUP6 SUB SLT ISZERO PUSH2 0x3026 JUMPI PUSH2 0x3025 PUSH2 0x24CD JUMP JUMPDEST JUMPDEST PUSH1 0x0 PUSH2 0x3034 DUP6 DUP3 DUP7 ADD PUSH2 0x2520 JUMP JUMPDEST SWAP3 POP POP PUSH1 0x20 PUSH2 0x3045 DUP6 DUP3 DUP7 ADD PUSH2 0x2FFA JUMP JUMPDEST SWAP2 POP POP SWAP3 POP SWAP3 SWAP1 POP JUMP JUMPDEST PUSH1 0x0 DUP1 PUSH1 0x40 DUP4 DUP6 SUB SLT ISZERO PUSH2 0x3066 JUMPI PUSH2 0x3065 PUSH2 0x24CD JUMP JUMPDEST JUMPDEST PUSH1 0x0 PUSH2 0x3074 DUP6 DUP3 DUP7 ADD PUSH2 0x2520 JUMP JUMPDEST SWAP3 POP POP PUSH1 0x20 PUSH2 0x3085 DUP6 DUP3 DUP7 ADD PUSH2 0x2520 JUMP JUMPDEST SWAP2 POP POP SWAP3 POP SWAP3 SWAP1 POP JUMP JUMPDEST PUSH1 0x0 DUP1 PUSH1 0x0 DUP1 PUSH1 0x0 PUSH1 0xA0 DUP7 DUP9 SUB SLT ISZERO PUSH2 0x30AB JUMPI PUSH2 0x30AA PUSH2 0x24CD JUMP JUMPDEST JUMPDEST PUSH1 0x0 PUSH2 0x30B9 DUP9 DUP3 DUP10 ADD PUSH2 0x2520 JUMP JUMPDEST SWAP6 POP POP PUSH1 0x20 PUSH2 0x30CA DUP9 DUP3 DUP10 ADD PUSH2 0x2520 JUMP JUMPDEST SWAP5 POP POP PUSH1 0x40 PUSH2 0x30DB DUP9 DUP3 DUP10 ADD PUSH2 0x2556 JUMP JUMPDEST SWAP4 POP POP PUSH1 0x60 PUSH2 0x30EC DUP9 DUP3 DUP10 ADD PUSH2 0x2556 JUMP JUMPDEST SWAP3 POP POP PUSH1 0x80 DUP7 ADD CALLDATALOAD PUSH8 0xFFFFFFFFFFFFFFFF DUP2 GT ISZERO PUSH2 0x310D JUMPI PUSH2 0x310C PUSH2 0x24D2 JUMP JUMPDEST JUMPDEST PUSH2 0x3119 DUP9 DUP3 DUP10 ADD PUSH2 0x2A97 JUMP JUMPDEST SWAP2 POP POP SWAP3 SWAP6 POP SWAP3 SWAP6 SWAP1 SWAP4 POP JUMP JUMPDEST PUSH1 0x0 PUSH1 0x20 DUP3 DUP5 SUB SLT ISZERO PUSH2 0x313C JUMPI PUSH2 0x313B PUSH2 0x24CD JUMP JUMPDEST JUMPDEST PUSH1 0x0 PUSH2 0x314A DUP5 DUP3 DUP6 ADD PUSH2 0x2520 JUMP JUMPDEST SWAP2 POP POP SWAP3 SWAP2 POP POP JUMP JUMPDEST PUSH32 0x436F6E646974696F6E206E6F74207265736F6C76656400000000000000000000 PUSH1 0x0 DUP3 ADD MSTORE POP JUMP JUMPDEST PUSH1 0x0 PUSH2 0x3189 PUSH1 0x16 DUP4 PUSH2 0x282B JUMP JUMPDEST SWAP2 POP PUSH2 0x3194 DUP3 PUSH2 0x3153 JUMP JUMPDEST PUSH1 0x20 DUP3 ADD SWAP1 POP SWAP2 SWAP1 POP JUMP JUMPDEST PUSH1 0x0 PUSH1 0x20 DUP3 ADD SWAP1 POP DUP2 DUP2 SUB PUSH1 0x0 DUP4 ADD MSTORE PUSH2 0x31B8 DUP2 PUSH2 0x317C JUMP JUMPDEST SWAP1 POP SWAP2 SWAP1 POP JUMP JUMPDEST PUSH32 0x4E487B7100000000000000000000000000000000000000000000000000000000 PUSH1 0x0 MSTORE PUSH1 0x32 PUSH1 0x4 MSTORE PUSH1 0x24 PUSH1 0x0 REVERT JUMPDEST PUSH32 0x4E487B7100000000000000000000000000000000000000000000000000000000 PUSH1 0x0 MSTORE PUSH1 0x11 PUSH1 0x4 MSTORE PUSH1 0x24 PUSH1 0x0 REVERT JUMPDEST PUSH1 0x0 PUSH2 0x3228 DUP3 PUSH2 0x2535 JUMP JUMPDEST SWAP2 POP PUSH2 0x3233 DUP4 PUSH2 0x2535 JUMP JUMPDEST SWAP3 POP DUP3 DUP3 ADD SWAP1 POP DUP1 DUP3 GT ISZERO PUSH2 0x324B JUMPI PUSH2 0x324A PUSH2 0x31EE JUMP JUMPDEST JUMPDEST SWAP3 SWAP2 POP POP JUMP JUMPDEST PUSH1 0x0 DUP2 SWAP1 POP SWAP2 SWAP1 POP JUMP JUMPDEST PUSH2 0x326C PUSH2 0x3267 DUP3 PUSH2 0x25D5 JUMP JUMPDEST PUSH2 0x3251 JUMP JUMPDEST DUP3 MSTORE POP POP JUMP JUMPDEST PUSH1 0x0 DUP2 SWAP1 POP SWAP2 SWAP1 POP JUMP JUMPDEST PUSH2 0x328D PUSH2 0x3288 DUP3 PUSH2 0x2535 JUMP JUMPDEST PUSH2 0x3272 JUMP JUMPDEST DUP3 MSTORE POP POP JUMP JUMPDEST PUSH1 0x0 PUSH2 0x329F DUP3 DUP7 PUSH2 0x325B JUMP JUMPDEST PUSH1 0x20 DUP3 ADD SWAP2 POP PUSH2 0x32AF DUP3 DUP6 PUSH2 0x325B JUMP JUMPDEST PUSH1 0x20 DUP3 ADD SWAP2 POP PUSH2 0x32BF DUP3 DUP5 PUSH2 0x327C JUMP JUMPDEST PUSH1 0x20 DUP3 ADD SWAP2 POP DUP2 SWAP1 POP SWAP5 SWAP4 POP POP POP POP JUMP JUMPDEST PUSH1 0x0 DUP2 PUSH1 0x60 SHL SWAP1 POP SWAP2 SWAP1 POP JUMP JUMPDEST PUSH1 0x0 PUSH2 0x32E8 DUP3 PUSH2 0x32D0 JUMP JUMPDEST SWAP1 POP SWAP2 SWAP1 POP JUMP JUMPDEST PUSH1 0x0 PUSH2 0x32FA DUP3 PUSH2 0x32DD JUMP JUMPDEST SWAP1 POP SWAP2 SWAP1 POP JUMP JUMPDEST PUSH2 0x3312 PUSH2 0x330D DUP3 PUSH2 0x24F7 JUMP JUMPDEST PUSH2 0x32EF JUMP JUMPDEST DUP3 MSTORE POP POP JUMP JUMPDEST PUSH1 0x0 PUSH2 0x3324 DUP3 DUP6 PUSH2 0x3301 JUMP JUMPDEST PUSH1 0x14 DUP3 ADD SWAP2 POP PUSH2 0x3334 DUP3 DUP5 PUSH2 0x325B JUMP JUMPDEST PUSH1 0x20 DUP3 ADD SWAP2 POP DUP2 SWAP1 POP SWAP4 SWAP3 POP POP POP JUMP JUMPDEST PUSH1 0x0 PUSH2 0x334F DUP3 PUSH2 0x2535 JUMP JUMPDEST SWAP2 POP PUSH2 0x335A DUP4 PUSH2 0x2535 JUMP JUMPDEST SWAP3 POP DUP3 DUP3 MUL PUSH2 0x3368 DUP2 PUSH2 0x2535 JUMP JUMPDEST SWAP2 POP DUP3 DUP3 DIV DUP5 EQ DUP4 ISZERO OR PUSH2 0x337F JUMPI PUSH2 0x337E PUSH2 0x31EE JUMP JUMPDEST JUMPDEST POP SWAP3 SWAP2 POP POP JUMP JUMPDEST PUSH32 0x4E487B7100000000000000000000000000000000000000000000000000000000 PUSH1 0x0 MSTORE PUSH1 0x12 PUSH1 0x4 MSTORE PUSH1 0x24 PUSH1 0x0 REVERT JUMPDEST PUSH1 0x0 PUSH2 0x33C0 DUP3 PUSH2 0x2535 JUMP JUMPDEST SWAP2 POP PUSH2 0x33CB DUP4 PUSH2 0x2535 JUMP JUMPDEST SWAP3 POP DUP3 PUSH2 0x33DB JUMPI PUSH2 0x33DA PUSH2 0x3386 JUMP JUMPDEST JUMPDEST DUP3 DUP3 DIV SWAP1 POP SWAP3 SWAP2 POP POP JUMP JUMPDEST PUSH1 0x0 PUSH1 0x40 DUP3 ADD SWAP1 POP PUSH2 0x33FB PUSH1 0x0 DUP4 ADD DUP6 PUSH2 0x2FB9 JUMP JUMPDEST PUSH2 0x3408 PUSH1 0x20 DUP4 ADD DUP5 PUSH2 0x25AB JUMP JUMPDEST SWAP4 SWAP3 POP POP POP JUMP JUMPDEST PUSH1 0x0 DUP2 MLOAD SWAP1 POP PUSH2 0x341E DUP2 PUSH2 0x2FE3 JUMP JUMPDEST SWAP3 SWAP2 POP POP JUMP JUMPDEST PUSH1 0x0 PUSH1 0x20 DUP3 DUP5 SUB SLT ISZERO PUSH2 0x343A JUMPI PUSH2 0x3439 PUSH2 0x24CD JUMP JUMPDEST JUMPDEST PUSH1 0x0 PUSH2 0x3448 DUP5 DUP3 DUP6 ADD PUSH2 0x340F JUMP JUMPDEST SWAP2 POP POP SWAP3 SWAP2 POP POP JUMP JUMPDEST PUSH32 0x5472616E73666572206661696C65640000000000000000000000000000000000 PUSH1 0x0 DUP3 ADD MSTORE POP JUMP JUMPDEST PUSH1 0x0 PUSH2 0x3487 PUSH1 0xF DUP4 PUSH2 0x282B JUMP JUMPDEST SWAP2 POP PUSH2 0x3492 DUP3 PUSH2 0x3451 JUMP JUMPDEST PUSH1 0x20 DUP3 ADD SWAP1 POP SWAP2 SWAP1 POP JUMP JUMPDEST PUSH1 0x0 PUSH1 0x20 DUP3 ADD SWAP1 POP DUP2 DUP2 SUB PUSH1 0x0 DUP4 ADD MSTORE PUSH2 0x34B6 DUP2 PUSH2 0x347A JUMP JUMPDEST SWAP1 POP SWAP2 SWAP1 POP JUMP JUMPDEST PUSH1 0x0 DUP1 REVERT JUMPDEST DUP3 DUP2 DUP4 CALLDATACOPY POP POP POP JUMP JUMPDEST PUSH1 0x0 PUSH2 0x34D7 DUP4 DUP6 PUSH2 0x2D1A JUMP JUMPDEST SWAP4 POP PUSH32 0x7FFFFFFFFFFFFFFFFFFFFFFFFFFFFFFFFFFFFFFFFFFFFFFFFFFFFFFFFFFFFFF DUP4 GT ISZERO PUSH2 0x350A JUMPI PUSH2 0x3509 PUSH2 0x34BD JUMP JUMPDEST JUMPDEST PUSH1 0x20 DUP4 MUL SWAP3 POP PUSH2 0x351B DUP4 DUP6 DUP5 PUSH2 0x34C2 JUMP JUMPDEST DUP3 DUP5 ADD SWAP1 POP SWAP4 SWAP3 POP POP POP JUMP JUMPDEST PUSH1 0x0 PUSH1 0x60 DUP3 ADD SWAP1 POP PUSH2 0x353C PUSH1 0x0 DUP4 ADD DUP8 PUSH2 0x2F3C JUMP JUMPDEST DUP2 DUP2 SUB PUSH1 0x20 DUP4 ADD MSTORE PUSH2 0x354F DUP2 DUP6 DUP8 PUSH2 0x34CB JUMP JUMPDEST SWAP1 POP PUSH2 0x355E PUSH1 0x40 DUP4 ADD DUP5 PUSH2 0x25AB JUMP JUMPDEST SWAP6 SWAP5 POP POP POP POP POP JUMP JUMPDEST PUSH32 0x4E487B7100000000000000000000000000000000000000000000000000000000 PUSH1 0x0 MSTORE PUSH1 0x22 PUSH1 0x4 MSTORE PUSH1 0x24 PUSH1 0x0 REVERT JUMPDEST PUSH1 0x0 PUSH1 0x2 DUP3 DIV SWAP1 POP PUSH1 0x1 DUP3 AND DUP1 PUSH2 0x35AE JUMPI PUSH1 0x7F DUP3 AND SWAP2 POP JUMPDEST PUSH1 0x20 DUP3 LT DUP2 SUB PUSH2 0x35C1 JUMPI PUSH2 0x35C0 PUSH2 0x3567 JUMP JUMPDEST JUMPDEST POP SWAP2 SWAP1 POP JUMP JUMPDEST PUSH1 0x0 PUSH1 0x40 DUP3 ADD SWAP1 POP PUSH2 0x35DC PUSH1 0x0 DUP4 ADD DUP6 PUSH2 0x2FB9 JUMP JUMPDEST PUSH2 0x35E9 PUSH1 0x20 DUP4 ADD DUP5 PUSH2 0x2FB9 JUMP JUMPDEST SWAP4 SWAP3 POP POP POP JUMP JUMPDEST PUSH1 0x0 PUSH1 0x40 DUP3 ADD SWAP1 POP PUSH2 0x3605 PUSH1 0x0 DUP4 ADD DUP6 PUSH2 0x25AB JUMP JUMPDEST PUSH2 0x3612 PUSH1 0x20 DUP4 ADD DUP5 PUSH2 0x25AB JUMP JUMPDEST SWAP4 SWAP3 POP POP POP JUMP JUMPDEST PUSH32 0x506172746974696F6E206D757374206E6F7420626520656D7074790000000000 PUSH1 0x0 DUP3 ADD MSTORE POP JUMP JUMPDEST PUSH1 0x0 PUSH2 0x364F PUSH1 0x1B DUP4 PUSH2 0x282B JUMP JUMPDEST SWAP2 POP PUSH2 0x365A DUP3 PUSH2 0x3619 JUMP JUMPDEST PUSH1 0x20 DUP3 ADD SWAP1 POP SWAP2 SWAP1 POP JUMP JUMPDEST PUSH1 0x0 PUSH1 0x20 DUP3 ADD SWAP1 POP DUP2 DUP2 SUB PUSH1 0x0 DUP4 ADD MSTORE PUSH2 0x367E DUP2 PUSH2 0x3642 JUMP JUMPDEST SWAP1 POP SWAP2 SWAP1 POP JUMP JUMPDEST PUSH1 0x0 PUSH1 0x60 DUP3 ADD SWAP1 POP PUSH2 0x369A PUSH1 0x0 DUP4 ADD DUP7 PUSH2 0x2FB9 JUMP JUMPDEST PUSH2 0x36A7 PUSH1 0x20 DUP4 ADD DUP6 PUSH2 0x2FB9 JUMP JUMPDEST PUSH2 0x36B4 PUSH1 0x40 DUP4 ADD DUP5 PUSH2 0x25AB JUMP JUMPDEST SWAP5 SWAP4 POP POP POP POP JUMP JUMPDEST PUSH1 0x0 PUSH1 0x60 DUP3 ADD SWAP1 POP PUSH2 0x36D1 PUSH1 0x0 DUP4 ADD DUP8 PUSH2 0x2FB9 JUMP JUMPDEST DUP2 DUP2 SUB PUSH1 0x20 DUP4 ADD MSTORE PUSH2 0x36E4 DUP2 DUP6 DUP8 PUSH2 0x34CB JUMP JUMPDEST SWAP1 POP PUSH2 0x36F3 PUSH1 0x40 DUP4 ADD DUP5 PUSH2 0x25AB JUMP JUMPDEST SWAP6 SWAP5 POP POP POP POP POP JUMP JUMPDEST PUSH32 0x546F74616C207061796F7574206D757374206265203E20300000000000000000 PUSH1 0x0 DUP3 ADD MSTORE POP JUMP JUMPDEST PUSH1 0x0 PUSH2 0x3732 PUSH1 0x18 DUP4 PUSH2 0x282B JUMP JUMPDEST SWAP2 POP PUSH2 0x373D DUP3 PUSH2 0x36FC JUMP JUMPDEST PUSH1 0x20 DUP3 ADD SWAP1 POP SWAP2 SWAP1 POP JUMP JUMPDEST PUSH1 0x0 PUSH1 0x20 DUP3 ADD SWAP1 POP DUP2 DUP2 SUB PUSH1 0x0 DUP4 ADD MSTORE PUSH2 0x3761 DUP2 PUSH2 0x3725 JUMP JUMPDEST SWAP1 POP SWAP2 SWAP1 POP JUMP JUMPDEST PUSH32 0x5061796F757420636F756E74206D69736D617463680000000000000000000000 PUSH1 0x0 DUP3 ADD MSTORE POP JUMP JUMPDEST PUSH1 0x0 PUSH2 0x379E PUSH1 0x15 DUP4 PUSH2 0x282B JUMP JUMPDEST SWAP2 POP PUSH2 0x37A9 DUP3 PUSH2 0x3768 JUMP JUMPDEST PUSH1 0x20 DUP3 ADD SWAP1 POP SWAP2 SWAP1 POP JUMP JUMPDEST PUSH1 0x0 PUSH1 0x20 DUP3 ADD SWAP1 POP DUP2 DUP2 SUB PUSH1 0x0 DUP4 ADD MSTORE PUSH2 0x37CD DUP2 PUSH2 0x3791 JUMP JUMPDEST SWAP1 POP SWAP2 SWAP1 POP JUMP JUMPDEST PUSH32 0x416C7265616479207265736F6C76656400000000000000000000000000000000 PUSH1 0x0 DUP3 ADD MSTORE POP JUMP JUMPDEST PUSH1 0x0 PUSH2 0x380A PUSH1 0x10 DUP4 PUSH2 0x282B JUMP JUMPDEST SWAP2 POP PUSH2 0x3815 DUP3 PUSH2 0x37D4 JUMP JUMPDEST PUSH1 0x20 DUP3 ADD SWAP1 POP SWAP2 SWAP1 POP JUMP JUMPDEST PUSH1 0x0 PUSH1 0x20 DUP3 ADD SWAP1 POP DUP2 DUP2 SUB PUSH1 0x0 DUP4 ADD MSTORE PUSH2 0x3839 DUP2 PUSH2 0x37FD JUMP JUMPDEST SWAP1 POP SWAP2 SWAP1 POP JUMP JUMPDEST PUSH1 0x0 PUSH2 0x384C DUP3 DUP7 PUSH2 0x3301 JUMP JUMPDEST PUSH1 0x14 DUP3 ADD SWAP2 POP PUSH2 0x385C DUP3 DUP6 PUSH2 0x325B JUMP JUMPDEST PUSH1 0x20 DUP3 ADD SWAP2 POP PUSH2 0x386C DUP3 DUP5 PUSH2 0x327C JUMP JUMPDEST PUSH1 0x20 DUP3 ADD SWAP2 POP DUP2 SWAP1 POP SWAP5 SWAP4 POP POP POP POP JUMP JUMPDEST PUSH32 0x42696E617279206D61726B657473206F6E6C7920666F72204D56500000000000 PUSH1 0x0 DUP3 ADD MSTORE POP JUMP JUMPDEST PUSH1 0x0 PUSH2 0x38B3 PUSH1 0x1B DUP4 PUSH2 0x282B JUMP JUMPDEST SWAP2 POP PUSH2 0x38BE DUP3 PUSH2 0x387D JUMP JUMPDEST PUSH1 0x20 DUP3 ADD SWAP1 POP SWAP2 SWAP1 POP JUMP JUMPDEST PUSH1 0x0 PUSH1 0x20 DUP3 ADD SWAP1 POP DUP2 DUP2 SUB PUSH1 0x0 DUP4 ADD MSTORE PUSH2 0x38E2 DUP2 PUSH2 0x38A6 JUMP JUMPDEST SWAP1 POP SWAP2 SWAP1 POP JUMP JUMPDEST PUSH32 0x436F6E646974696F6E20616C7265616479207072657061726564000000000000 PUSH1 0x0 DUP3 ADD MSTORE POP JUMP JUMPDEST PUSH1 0x0 PUSH2 0x391F PUSH1 0x1A DUP4 PUSH2 0x282B JUMP JUMPDEST SWAP2 POP PUSH2 0x392A DUP3 PUSH2 0x38E9 JUMP JUMPDEST PUSH1 0x20 DUP3 ADD SWAP1 POP SWAP2 SWAP1 POP JUMP JUMPDEST PUSH1 0x0 PUSH1 0x20 DUP3 ADD SWAP1 POP DUP2 DUP2 SUB PUSH1 0x0 DUP4 ADD MSTORE PUSH2 0x394E DUP2 PUSH2 0x3912 JUMP JUMPDEST SWAP1 POP SWAP2 SWAP1 POP JUMP JUMPDEST PUSH1 0x0 PUSH1 0x80 DUP3 ADD SWAP1 POP PUSH2 0x396A PUSH1 0x0 DUP4 ADD DUP8 PUSH2 0x2FB9 JUMP JUMPDEST PUSH2 0x3977 PUSH1 0x20 DUP4 ADD DUP7 PUSH2 0x25AB JUMP JUMPDEST PUSH2 0x3984 PUSH1 0x40 DUP4 ADD DUP6 PUSH2 0x25AB JUMP JUMPDEST PUSH2 0x3991 PUSH1 0x60 DUP4 ADD DUP5 PUSH2 0x25AB JUMP JUMPDEST SWAP6 SWAP5 POP POP POP POP POP JUMP JUMPDEST PUSH1 0x0 PUSH1 0x40 DUP3 ADD SWAP1 POP DUP2 DUP2 SUB PUSH1 0x0 DUP4 ADD MSTORE PUSH2 0x39B4 DUP2 DUP6 PUSH2 0x2D6F JUMP JUMPDEST SWAP1 POP DUP2 DUP2 SUB PUSH1 0x20 DUP4 ADD MSTORE PUSH2 0x39C8 DUP2 DUP5 PUSH2 0x2D6F JUMP JUMPDEST SWAP1 POP SWAP4 SWAP3 POP POP POP JUMP JUMPDEST PUSH1 0x0 DUP2 MLOAD SWAP1 POP SWAP2 SWAP1 POP JUMP JUMPDEST PUSH1 0x0 DUP3 DUP3 MSTORE PUSH1 0x20 DUP3 ADD SWAP1 POP SWAP3 SWAP2 POP POP JUMP JUMPDEST PUSH1 0x0 PUSH2 0x39F8 DUP3 PUSH2 0x39D1 JUMP JUMPDEST PUSH2 0x3A02 DUP2 DUP6 PUSH2 0x39DC JUMP JUMPDEST SWAP4 POP PUSH2 0x3A12 DUP2 DUP6 PUSH1 0x20 DUP7 ADD PUSH2 0x283C JUMP JUMPDEST PUSH2 0x3A1B DUP2 PUSH2 0x2866 JUMP JUMPDEST DUP5 ADD SWAP2 POP POP SWAP3 SWAP2 POP POP JUMP JUMPDEST PUSH1 0x0 PUSH1 0xA0 DUP3 ADD SWAP1 POP PUSH2 0x3A3B PUSH1 0x0 DUP4 ADD DUP9 PUSH2 0x2FB9 JUMP JUMPDEST PUSH2 0x3A48 PUSH1 0x20 DUP4 ADD DUP8 PUSH2 0x2FB9 JUMP JUMPDEST PUSH2 0x3A55 PUSH1 0x40 DUP4 ADD DUP7 PUSH2 0x25AB JUMP JUMPDEST PUSH2 0x3A62 PUSH1 0x60 DUP4 ADD DUP6 PUSH2 0x25AB JUMP JUMPDEST DUP2 DUP2 SUB PUSH1 0x80 DUP4 ADD MSTORE PUSH2 0x3A74 DUP2 DUP5 PUSH2 0x39ED JUMP JUMPDEST SWAP1 POP SWAP7 SWAP6 POP POP POP POP POP POP JUMP JUMPDEST PUSH1 0x0 DUP2 MLOAD SWAP1 POP PUSH2 0x3A8F DUP2 PUSH2 0x2724 JUMP JUMPDEST SWAP3 SWAP2 POP POP JUMP JUMPDEST PUSH1 0x0 PUSH1 0x20 DUP3 DUP5 SUB SLT ISZERO PUSH2 0x3AAB JUMPI PUSH2 0x3AAA PUSH2 0x24CD JUMP JUMPDEST JUMPDEST PUSH1 0x0 PUSH2 0x3AB9 DUP5 DUP3 DUP6 ADD PUSH2 0x3A80 JUMP JUMPDEST SWAP2 POP POP SWAP3 SWAP2 POP POP JUMP JUMPDEST PUSH1 0x0 PUSH1 0xA0 DUP3 ADD SWAP1 POP PUSH2 0x3AD7 PUSH1 0x0 DUP4 ADD DUP9 PUSH2 0x2FB9 JUMP JUMPDEST PUSH2 0x3AE4 PUSH1 0x20 DUP4 ADD DUP8 PUSH2 0x2FB9 JUMP JUMPDEST DUP2 DUP2 SUB PUSH1 0x40 DUP4 ADD MSTORE PUSH2 0x3AF6 DUP2 DUP7 PUSH2 0x2D6F JUMP JUMPDEST SWAP1 POP DUP2 DUP2 SUB PUSH1 0x60 DUP4 ADD MSTORE PUSH2 0x3B0A DUP2 DUP6 PUSH2 0x2D6F JUMP JUMPDEST SWAP1 POP DUP2 DUP2 SUB PUSH1 0x80 DUP4 ADD MSTORE PUSH2 0x3B1E DUP2 DUP5 PUSH2 0x39ED JUMP JUMPDEST SWAP1 POP SWAP7 SWAP6 POP POP POP POP POP POP JUMP INVALID LOG2 PUSH5 0x6970667358 0x22 SLT KECCAK256 SWAP8 LOG4 PUSH29 0x8E96861BDF7215C802A1E53D22409510F5D16AEADFD762ED8A75E6DA6E PUSH5 0x736F6C6343 STOP ADDMOD SHR STOP CALLER "},"methodIdentifiers":{"balanceOf(address,uint256)":"00fdd58e","balanceOfBatch(address[],uint256[])":"4e1273f4","getCollectionId(bytes32,bytes32,uint256)":"856296f7","getConditionId(address,bytes32,uint256)":"852c6ae2","getPositionId(address,bytes32)":"39dd7530","isApprovedForAll(address,address)":"e985e9c5","mergePositions(address,bytes32,bytes32,uint256[],uint256)":"9e7212ad","owner()":"8da5cb5b","payoutNumerators(bytes32,uint256)":"0504c814","prepareCondition(address,bytes32,uint256)":"d96ee754","redeemPositions(address,bytes32,bytes32,uint256[])":"01b7037c","renounceOwnership()":"715018a6","reportPayouts(bytes32,uint256[])":"c49298ac","resolveCondition(bytes32,uint256[])":"7ce9b989","safeBatchTransferFrom(address,address,uint256[],uint256[],bytes)":"2eb2c2d6","safeTransferFrom(address,address,uint256,uint256,bytes)":"f242432a","setApprovalForAll(address,bool)":"a22cb465","splitPosition(address,bytes32,bytes32,uint256[],uint256)":"72ce4275","supportsInterface(bytes4)":"01ffc9a7","transferOwnership(address)":"f2fde38b","uri(uint256)":"0e89341c"}}}}}